:020000040800F2
:1000000000500020252C0008651900086719000819
:10001000691900086B1900086D190008000000003C
:100020000000000000000000000000006F19000840
:100030007119000800000000731900087519000804
:100040006D2C00086D2C00086D2C00086D2C00082C
:100050006D2C00086D2C00086D2C00086D2C00081C
:100060006D2C00086D2C00086D2C00086D2C00080C
:100070006D2C00086D2C00086D2C00086D2C0008FC
:100080006D2C00086D2C00086D2C00086D2C0008EC
:100090006D2C00086D2C00086D2C00086D2C0008DC
:1000A0006D2C00086D2C00086D2C00086D2C0008CC
:1000B0006D2C00086D2C00086D2C00086D2C0008BC
:1000C0006D2C00086D2C00086D2C00086D2C0008AC
:1000D0006D2C00086D2C00086D2C00086D2C00089C
:1000E0006D2C00086D2C00086D2C0008000000002D
:1000F0000000000000000000000000000000000000
:0C01000000000000000000005FF808F1A3
:1001100010B5054C237833B9044B13B10448AFF341
:1001200000800123237010BD740000200000000037
:10013000A03D000808B5034B1BB103490348AFF3CA
:10014000008008BD0000000078000020A03D0008ED
:1001500081F0004102E000BF83F0004330B54FEA78
:1001600041044FEA430594EA050F08BF90EA020FE5
:100170001FBF54EA000C55EA020C7FEA645C7FEA78
:10018000655C00F0E2804FEA5454D4EB5555B8BF9B
:100190006D420CDD2C4480EA020281EA030382EA0C
:1001A000000083EA010180EA020281EA0303362D9E
:1001B00088BF30BD11F0004F4FEA01314FF4801C71
:1001C0004CEA113102D0404261EB410113F0004F83
:1001D0004FEA03334CEA133302D0524263EB43033A
:1001E00094EA050F00F0A780A4F10104D5F1200ED8
:1001F0000DDB02FA0EFC22FA05F2801841F1000133
:1002000003FA0EF2801843FA05F359410EE0A5F106
:1002100020050EF1200E012A03FA0EFC28BF4CF037
:10022000020C43FA05F3C01851EBE37101F00045ED
:1002300007D54FF0000EDCF1000C7EEB00006EEBFA
:100240000101B1F5801F1BD3B1F5001F0CD3490884
:100250005FEA30004FEA3C0C04F101044FEA4452DB
:1002600012F5800F80F09A80BCF1004F08BF5FEA62
:10027000500C50F1000041EB045141EA050130BD42
:100280005FEA4C0C404141EB010111F4801FA4F1E5
:100290000104E9D191F0000F04BF01460020B1FA3A
:1002A00081F308BF2033A3F10B03B3F120020CDA72
:1002B0000C3208DD02F1140CC2F10C0201FA0CF050
:1002C00021FA02F10CE002F11402D8BFC2F1200CB5
:1002D00001FA02F120FA0CFCDCBF41EA0C0190406B
:1002E000E41AA2BF01EB0451294330BD6FEA0404B4
:1002F0001F3C1CDA0C340EDC04F11404C4F120029F
:1003000020FA04F001FA02F340EA030021FA04F3B0
:1003100045EA030130BDC4F10C04C4F1200220FA07
:1003200002F001FA04F340EA0300294630BD21FA45
:1003300004F0294630BD94F0000F83F4801306BF0B
:1003400081F480110134013D4EE77FEA645C18BFFF
:100350007FEA655C29D094EA050F08BF90EA020F96
:1003600005D054EA000C04BF1946104630BD91EA8E
:10037000030F1EBF0021002030BD5FEA545C05D191
:100380004000494128BF41F0004130BD14F58004D0
:100390003CBF01F5801130BD01F0004545F0FE4144
:1003A00041F470014FF0000030BD7FEA645C1ABF79
:1003B000194610467FEA655C1CBF0B46024650EAB0
:1003C000013406BF52EA033591EA030F41F40021DC
:1003D00030BD00BF90F0000F04BF0021704730B562
:1003E0004FF4806404F132044FF000054FF0000137
:1003F00050E700BF90F0000F04BF0021704730B5F8
:100400004FF4806404F1320410F0004548BF4042CC
:100410004FF000013EE700BF42004FEAE2014FEA21
:1004200031014FEA02701FBF12F07F4393F07F4FFC
:1004300081F06051704792F0000F14BF93F07F4F2E
:10044000704730B54FF4607401F0004521F0004171
:1004500020E700BF50EA010208BF704730B54FF0F7
:1004600000050AE050EA010208BF704730B511F0FC
:10047000004502D5404261EB41014FF4806404F134
:1004800032045FEA915C3FF4DCAE4FF003025FEAB6
:10049000DC0C18BF03325FEADC0C18BF033202EB3E
:1004A000DC02C2F1200300FA03FC20FA02F001FA98
:1004B00003FE40EA0E0021FA02F11444C1E600BF37
:1004C00070B54FF0FF0C4CF4E06C1CEA11541DBFEA
:1004D0001CEA135594EA0C0F95EA0C0F00F0DEF8B5
:1004E0002C4481EA030621EA4C5123EA4C5350EA9A
:1004F000013518BF52EA033541F4801143F48013EB
:1005000038D0A0FB02CE4FF00005E1FB02E506F07B
:100510000042E0FB03E54FF00006E1FB03569CF0D0
:10052000000F18BF4EF0010EA4F1FF04B6F5007FD6
:1005300064F5407404D25FEA4E0E6D4146EB060648
:1005400042EAC62141EA55514FEAC52040EA5E50D1
:100550004FEACE2EB4F1FD0C88BFBCF5E06F1ED87B
:10056000BEF1004F08BF5FEA500E50F1000041EBB2
:10057000045170BD06F0004646EA010140EA02005F
:1005800081EA0301B4EB5C04C2BFD4EB0C0541EA81
:10059000045170BD41F480114FF0000E013C00F396
:1005A000AB8014F1360FDEBF002001F0004170BDBA
:1005B000C4F10004203C35DA0C341BDC04F11404D3
:1005C000C4F1200500FA05F320FA04F001FA05F25F
:1005D00040EA020001F0004221F0004110EBD3702C
:1005E00021FA04F642EB06015EEA430E08BF20EA58
:1005F000D37070BDC4F10C04C4F1200500FA04F3FB
:1006000020FA05F001FA04F240EA020001F000418C
:1006100010EBD37041F100015EEA430E08BF20EAFF
:10062000D37070BDC4F1200500FA05F24EEA020E47
:1006300020FA04F301FA05F243EA020321FA04F076
:1006400001F0004121FA04F220EA020000EBD3702D
:100650005EEA430E08BF20EAD37070BD94F0000F2D
:100660000FD101F00046400041EB010111F4801F61
:1006700008BF013CF7D041EA060195F0000F18BF12
:10068000704703F00046520043EB030313F4801F4E
:1006900008BF013DF7D043EA0603704794EA0C0F08
:1006A0000CEA135518BF95EA0C0F0CD050EA41061E
:1006B00018BF52EA4306D1D181EA030101F000419B
:1006C0004FF0000070BD50EA410606BF10461946C3
:1006D00052EA430619D094EA0C0F02D150EA0136CF
:1006E00013D195EA0C0F05D152EA03361CBF104610
:1006F00019460AD181EA030101F0004141F0FE41AF
:1007000041F470014FF0000070BD41F0FE4141F432
:10071000780170BD70B54FF0FF0C4CF4E06C1CEA32
:1007200011541DBF1CEA135594EA0C0F95EA0C0FE7
:1007300000F0A7F8A4EB050481EA030E52EA0335A2
:100740004FEA013100F088804FEA03334FF08055C3
:1007500045EA131343EA12634FEA022245EA1115F0
:1007600045EA10654FEA00260EF000419D4208BFA1
:10077000964244F1FD0404F5407402D25B084FEA4E
:100780003202B61A65EB03055B084FEA32024FF4FA
:1007900080104FF4002CB6EB020E75EB030E22BF57
:1007A000B61A754640EA0C005B084FEA3202B6EB17
:1007B000020E75EB030E22BFB61A754640EA5C00C6
:1007C0005B084FEA3202B6EB020E75EB030E22BF56
:1007D000B61A754640EA9C005B084FEA3202B6EB57
:1007E000020E75EB030E22BFB61A754640EADC0016
:1007F00055EA060E18D04FEA051545EA16754FEA78
:1008000006164FEAC30343EA52734FEAC2025FEA95
:100810001C1CC0D111F4801F0BD141EA00014FF024
:1008200000004FF0004CB6E711F4801F04BF0143F5
:100830000020B4F1FD0C88BFBCF5E06F3FF6AFAE11
:10084000B5EB030C04BFB6EB020C5FEA500C50F1A1
:10085000000041EB045170BD0EF0004E4EEA113124
:1008600014EB5C04C2BFD4EB0C0541EA045170BD2B
:1008700041F480114FF0000E013C90E645EA060E6F
:100880008DE60CEA135594EA0C0F08BF95EA0C0F9D
:100890003FF43BAF94EA0C0F0AD150EA01347FF4E5
:1008A00034AF95EA0C0F7FF425AF104619462CE7BC
:1008B00095EA0C0F06D152EA03353FF4FDAE10461F
:1008C000194622E750EA410618BF52EA43067FF470
:1008D000C5AE50EA41047FF40DAF52EA43057FF400
:1008E000EBAE12E74FF0FF3C06E000BF4FF0010C0B
:1008F00002E000BF4FF0010C4DF804CD4FEA410C6F
:100900007FEA6C5C4FEA430C18BF7FEA6C5C1BD03B
:1009100001B050EA410C0CBF52EA430C91EA030FBC
:1009200002BF90EA020F0020704710F1000F91EA19
:10093000030F58BF994208BF90422CBFD8176FEAE7
:10094000E37040F0010070474FEA410C7FEA6C5CB5
:1009500002D150EA013C07D14FEA430C7FEA6C5CBC
:10096000D6D152EA033CD3D05DF8040B704700BFE8
:100970008446104662468C461946634600E000BF36
:1009800001B5FFF7B7FF002848BF10F1000F01BD08
:100990004DF808EDFFF7F4FF0CBF012000205DF8D3
:1009A00008FB00BF4DF808EDFFF7EAFF34BF012058
:1009B00000205DF808FB00BF4DF808EDFFF7E0FFF1
:1009C00094BF012000205DF808FB00BF4DF808ED42
:1009D000FFF7CEFF94BF012000205DF808FB00BFA9
:1009E0004DF808EDFFF7C4FF34BF012000205DF88B
:1009F00008FB00BF4FEA410C7FEA6C5C02D150EA71
:100A0000013C0AD14FEA430C7FEA6C5C02D152EA06
:100A1000033C02D14FF0000070474FF001007047D7
:100A20004FEA4102B2F1E04324BFB3F5001CDCF110
:100A3000FE5C0DD901F0004C4FEAC0024CEA507048
:100A4000B2F1004F40EB830008BF20F00100704777
:100A500011F0804F21D113F13872BCBF01F000407A
:100A6000704741F480114FEA5252C2F11802C2F1AC
:100A7000200C10FA0CF320FA02F018BF40F001002D
:100A80004FEAC1234FEAD32303FA0CFC40EA0C00DF
:100A900023FA02F34FEA4303CCE77FEA625307D11C
:100AA00050EA01331EBF4FF0FE4040F44000704753
:100AB00001F0004040F0FE4040F40000704700BFED
:100AC00080F0004002E000BF81F0004142001FBF03
:100AD0005FEA410392EA030F7FEA226C7FEA236C0C
:100AE0006AD04FEA1262D2EB1363C1BFD218414001
:100AF00048404140B8BF5B42192B88BF704710F097
:100B0000004F40F4000020F07F4018BF404211F039
:100B1000004F41F4000121F07F4118BF494292EAA1
:100B2000030F3FD0A2F1010241FA03FC10EB0C00CD
:100B3000C3F1200301FA03F100F0004302D549425A
:100B400060EB4000B0F5000F13D3B0F1807F06D307
:100B500040084FEA310102F10102FE2A51D2B1F1FF
:100B6000004F40EBC25008BF20F0010040EA0300F4
:100B70007047490040EB000010F4000FA2F10102A1
:100B8000EDD1B0FA80FCACF1080CB2EB0C0200FA2B
:100B90000CF0AABF00EBC25052421843BCBFD04079
:100BA0001843704792F0000F81F4000106BF80F4F3
:100BB00000000132013BB5E74FEA41037FEA226CB6
:100BC00018BF7FEA236C21D092EA030F04D092F081
:100BD000000F08BF0846704790EA010F1CBF0020B5
:100BE000704712F07F4F04D1400028BF40F0004012
:100BF000704712F100723CBF00F50000704700F032
:100C0000004343F0FE4040F4000070477FEA226258
:100C100016BF08467FEA23630146420206BF5FEA29
:100C2000412390EA010F40F4800070474FF0000329
:100C300004E000BF10F0004348BF40425FEA000CF0
:100C400008BF704743F0964301464FF000001CE098
:100C500050EA010208BF70474FF000030AE000BFEE
:100C600050EA010208BF704711F0004302D540422C
:100C700061EB41015FEA010C02BF8446014600209E
:100C800043F0B64308BFA3F18053A3F50003BCFAB9
:100C90008CF2083AA3EBC25310DB01FA02FC634466
:100CA00000FA02FCC2F12002BCF1004F20FA02F26D
:100CB00043EB020008BF20F00100704702F1200260
:100CC00001FA02FCC2F1200250EA4C0021FA02F2C1
:100CD00043EB020008BF20EADC7070474FF0FF0CC6
:100CE0001CEAD0521EBF1CEAD15392EA0C0F93EAC1
:100CF0000C0F6FD01A4480EA010C400218BF5FEA63
:100D000041211ED04FF0006343EA501043EA5111D5
:100D1000A0FB01310CF00040B1F5000F3EBF4900CF
:100D200041EAD3715B0040EA010062F17F02FD2AD3
:100D30001DD8B3F1004F40EBC25008BF20F00100B6
:100D4000704790F0000F0CF0004C08BF49024CEACD
:100D5000502040EA51207F3AC2BFD2F1FF0340EA5F
:100D6000C250704740F400004FF00003013A5DDCD0
:100D700012F1190FDCBF00F000407047C2F1000211
:100D8000410021FA02F1C2F1200200FA02FC5FEAFE
:100D9000310040F1000053EA4C0308BF20EADC7048
:100DA000704792F0000F00F0004C02BF400010F4BA
:100DB000000F013AF9D040EA0C0093F0000F01F067
:100DC000004C02BF490011F4000F013BF9D041EA89
:100DD0000C018FE70CEAD15392EA0C0F18BF93EA8B
:100DE0000C0F0AD030F0004C18BF31F0004CD8D1B5
:100DF00080EA010000F00040704790F0000F17BF3C
:100E000090F0004F084691F0000F91F0004F14D081
:100E100092EA0C0F01D142020FD193EA0C0F03D1D9
:100E20004B0218BF084608D180EA010000F00040DC
:100E300040F0FE4040F40000704740F0FE4040F4B7
:100E4000400070474FF0FF0C1CEAD0521EBF1CEA56
:100E5000D15392EA0C0F93EA0C0F69D0A2EB030274
:100E600080EA010C49024FEA402037D04FF080530E
:100E700043EA111143EA10130CF000408B4238BFD3
:100E80005B0042F17D024FF4000C8B4224BF5B1AE1
:100E900040EA0C00B3EB510F24BFA3EB510340EA2F
:100EA0005C00B3EB910F24BFA3EB910340EA9C00DD
:100EB000B3EBD10F24BFA3EBD10340EADC001B014D
:100EC00018BF5FEA1C1CE0D1FD2A3FF650AF8B42F1
:100ED00040EBC25008BF20F0010070470CF0004CFE
:100EE0004CEA50207F32C2BFD2F1FF0340EAC25029
:100EF000704740F400004FF00003013A37E792F0EA
:100F0000000F00F0004C02BF400010F4000F013A47
:100F1000F9D040EA0C0093F0000F01F0004C02BF42
:100F2000490011F4000F013BF9D041EA0C0195E7AB
:100F30000CEAD15392EA0C0F08D142027FF47DAF44
:100F400093EA0C0F7FF470AF084676E793EA0C0F34
:100F500004D14B023FF44CAF08466EE730F0004C32
:100F600018BF31F0004CCAD130F000427FF45CAFC2
:100F700031F000437FF43CAF5FE700BF4FEA40022F
:100F8000B2F1FE4F0FD34FF09E03B3EB12620DD9B7
:100F90004FEA002343F0004310F0004F23FA02F021
:100FA00018BF404270474FF00000704712F1610FC8
:100FB00001D1420205D110F0004008BF6FF000409F
:100FC00070474FF0000070472DE9F74F0027DFF81A
:100FD000F890DFF8F8B00F20642589F8007089F8E0
:100FE00001708BF800708BF8017000F08DFD4FF0F0
:100FF00011034FF0800A334CDFF8D480224623706F
:101000001C2102230095404684F801A001F04CF811
:101010000F2000F079FD4FF01003012622462370C7
:101020001C21022300954046667001F03DF80F2018
:1010300000F06AFD4FF0110384F801A0DFF894A0DE
:10104000224623701C2102230095504601F02CF803
:101050000F2000F059FD4FF01003224623701C2191
:10106000022300955046667001F01EF80F2000F034
:101070004BFD072322462370009533461C21504622
:10108000677001F011F8334622461C210095404656
:1010900001F00AF80A2000F037FD33464A46009571
:1010A0001C21404601F0D6F8009533465A461C21D3
:1010B000504601F0CFF80F2003B0BDE8F04F00F02C
:1010C00023BD00BF940000209A000020970000205C
:1010D00000010020540100202DE9F047041F0E46B6
:1010E00025464FF0000A00F1080755F8040FFFF7F6
:1010F00081F902460B46FFF7E3F9804650468946E0
:10110000FFF78AF902460B4640464946FFF726F8A4
:10111000FFF786FCBD428246E7D1FFF77DF901F07B
:1011200037FFFFF77DFC0746043E54F8040FFFF736
:1011300081FD3946FFF786FEA54246F8040FF4D13B
:101140003846BDE8F0870000F7B50123642705465F
:10115000134A144E144C13701C210097304600F0B3
:10116000A3FF022000F0D0FC224606231C2100979A
:10117000304601F06FF8022000F0C6FC2278637858
:1011800043EA02232B60A278E37843EA02236B60F0
:101190002279637943EA0223AB6003B0F0BD00BF5C
:1011A000E000002000010020DA000020F7B5012354
:1011B00064270546134A144E144C13701C210097E3
:1011C000304600F071FF022000F09EFC224606230C
:1011D0001C210097304601F03DF8022000F094FCFD
:1011E0002278637843EA02232B60A278E37843EA0B
:1011F00002236B602279637943EA0223AB6003B078
:10120000F0BD00BFE000002054010020DA00002003
:1012100010B50C46FFF798FF2046BDE81040FFF7D9
:10122000C5BF2DE9F84F05460F46904600240A9E9B
:10123000A2F10409A3F1040A00F10C0BB44201DD90
:10124000BDE8F88F11D14B46514608F108005A68A5
:1012500092FBF4F243F8042F4A68984292FBF4F2AE
:1012600041F8042FF3D10134E8E739462846FFF767
:10127000CFFF2946CC46D6463A460B68B3F5004F19
:10128000C4BFA3F580330B601368B3F5004FC4BF30
:10129000A3F58033136051F8040BDCF80430594592
:1012A00003444CF8043FDEF8040052F8043B1844B1
:1012B0004EF8040FE1D1D6E72DE9F04107460E467E
:1012C000002400254FF6FD78B44208DB3046FFF7D6
:1012D000B1FC01462846FFF7B5FDBDE8F08157F89F
:1012E0002400431E434506D8FFF7A4FC01462846C8
:1012F000FFF7ECFB05460134E6E70000102210B5CD
:1013000088B00DEB0200002101F0D6FC1D4B1E4CF5
:101310009A69204642F010029A619A694FF400518E
:1013200002F010020092009A9A6942F020029A613B
:101330009A6902F020020192019A9A6942F0080229
:101340009A619A6902F008020292029A9A6942F03E
:1013500004029A619B69002203F004030393039B38
:1013600000F020FD4FF40053049301230593002364
:101370000693022304A92046079300F033FC08B02B
:1013800010BD00BF001002400010014008B50C481D
:101390000C4BDFF834E04FF4804280E80840002333
:1013A00002618360C36043618361C361036200F0D3
:1013B000FBFD18B1BDE8084000F0B0BA08BD00BFA1
:1013C0000001002000540040801A060008B50C48B7
:1013D0000C4BDFF834E04FF4804280E808400023F3
:1013E00002618360C36043618361C361036200F093
:1013F000DBFD18B1BDE8084000F090BA08BD00BFA1
:101400005401002000580040801A0600102210B538
:10141000044688B00DEB0200002101F04DFC23686A
:10142000214A93421ED1214C04A9A369204843F0CC
:101430000803A361A36903F008030093009BC02382
:101440000493122305930323079300F0CBFBE36976
:1014500043F40013E361E36903F400130193019B78
:1014600008B010BD134A9342FAD1104C04A9A369E5
:101470000F4843F00803A361A36903F00803029334
:10148000029B4FF4406304931223059303230793B5
:1014900000F0A8FBE36943F48003E361E36903F42C
:1014A00080030393039BDBE70054004000100240DD
:1014B000000C0140005800402DE9F04F87B0049126
:1014C0001199039008461E469346FFF707FCFEF766
:1014D000A3FF47A3D3E90023FEF7F2FF04461298C7
:1014E0000D46FEF799FF02460B4620462946FEF7B9
:1014F000E7FFFFF795FA404904461098FFF7EEFB27
:1015000001462046FFF7EAFB31460290FFF7E6FB73
:101510003A49FFF7E3FB00210446FFF7DFFB2146D2
:1015200081463046FFF7DAFB82463046FEF774FF0D
:1015300002460B46FEF7C4FF00220023FEF70EFE14
:101540000025CDE900012E4E0024DDE9000101F067
:101550001FFD00222B4B01F0B7FBFFF761FA80461D
:10156000DDE9000101F014FD0022274B01F0ACFB86
:10157000FFF756FA414607464846FFF763FC3946EF
:1015800005900020FFF75EFC059B01461846FFF71B
:101590009BFA3146FFF7A2FBFFF7F0FC039B4146A5
:1015A0002B4443F82400049B2B4443F824000BEB0A
:1015B000050350460593FFF745FC394680460298DF
:1015C000FFF740FC01464046FFF77EFA3146FFF741
:1015D00085FBFFF7D3FC059B43F824000134142C52
:1015E000B3D15035B5F5C86FAED107B0BDE8F08FB7
:1015F000182D4454FB210940EC474249000040406B
:1016000094BFD63300001440000008402DE9F04F8D
:1016100089B0079018681C4692468B46FEF7EAFE92
:10162000064660680F46FEF7E5FE8046A0688946DC
:10163000FEF7E0FE32460D4604463B46304639464C
:10164000FEF73EFF424606460F464B464046494699
:10165000FEF736FF02460B4630463946FEF77EFD62
:101660002B4606460F46224629462046FEF728FF0F
:101670004FF0000802460B4630463946FEF76EFD35
:1016800001F086FCFFF7CCF94546DFF8B4900190F5
:101690002C4605F115030693079B53F82400FEF72B
:1016A000A9FE06465BF824000F46FEF7A3FECDE92F
:1016B00002015AF82400FEF79DFE3246CDE90401EE
:1016C0003B4630463946FEF7FBFEDDE9022306467F
:1016D0000F4610461946FEF7F3FE02460B4630460B
:1016E0003946FEF73BFDDDE9042306460F4610466A
:1016F0001946FEF7E5FE0B46024639463046FEF730
:101700002DFD01F045FCFFF78BF90199FFF7DCF99E
:10171000FFF734FC0028B8BF40424845069BB8BFDD
:10172000A04604F10104B8BF81469C42B4D140F206
:10173000B91315359D42ABD1404609B0BDE8F08FD5
:101740003F420F0010B590B02822002106A801F0FA
:10175000B3FA0021142201A801F0AEFA4FF480334D
:101760000122022407930E934FF4E01306A8069279
:101770000A920F930D9400F0EFFE0F234FF4806256
:1017800001930023214601A8029403930492059338
:1017900001F0AAF810B010BD2DE9FF4700F090F954
:1017A000FFF7D0FFFFF7AAFDFFF710FE00F00AF9E0
:1017B000FFF7ECFDFFF708FC6423434A009343491D
:1017C000434B4448FFF72DFD434B444A0293444B9F
:1017D000444901934FF07E5343480093434BFFF736
:1017E0006BFE3A4D3B4E424F29463046FFF710FD07
:1017F00000233849354ADFF8D0C0DFF8D4E0086864
:101800005CF82340B0F5004FC4BFA0F580300860FD
:101810001068B0F5004FC4BFA0F5803010600868B4
:10182000001B41F8040B5EF8234010680133001BD5
:10183000032B42F8040BE2D12E493046FFF74CFC53
:10184000DFF8D0A02C49CAF800002846FFF744FC76
:101850002A4B81461860DAF80000FFF78FFBDFF8AB
:10186000B880D8F8004047F824004846FFF786FBC8
:10187000234B142143F824000134132CC8BF002348
:101880003846CCBFC8F80030C8F80040FFF714FD58
:101890001C4B142118601A48FFF70EFD1A4B0F4A13
:1018A0001860104933461048FFF7B0FE174B0B4A3B
:1018B00018600C492B460C48FFF7A8FE144B186023
:1018C000012000F021F98FE7F4000020E80000205B
:1018D000C00000209C000020F4FDD43C780F0020C4
:1018E000A69BC43BB0010020940800204260653CE8
:1018F000B4160020B4000020A8000020CC00002076
:101900005C160020AC160020A8010020AC010020CD
:10191000B0160020D000002090000020704700008A
:101920000E4B82B09A6942F001029A619A6902F004
:1019300001020092009ADA6942F08052DA61DB69B2
:10194000074A03F080530193019B536823F0E0633F
:1019500043F00073536002B0704700BF00100240B4
:10196000000001407047FEE7FEE7FEE7FEE7704734
:101970007047704700F0B6B80F4B1A6842F001028A
:101980001A6059680D4A0A405A601A6822F0847237
:1019900022F480321A601A6822F480221A605A688F
:1019A00022F4FE025A604FF41F029A604FF0006268
:1019B000034B9A60704700BF001002400000FFF820
:1019C00000ED00E008B54FF480624FF4E13E0A48B4
:1019D0000A4B026180E808400C22002342618360C8
:1019E000C3608361C36101F0EFF818B1BDE808403E
:1019F000FFF794BF08BD00BF041700200038014066
:101A000010B5044686B01022002102A801F054F956
:101A10002268174B9A4228D103F558439A6902A9C4
:101A200042F480429A619A69124802F4804200921C
:101A3000009A9A6942F004029A619B6903F00403D8
:101A40000193019B4FF4007302930223039303233A
:101A5000059300F0C7F84FF480630293002302A9B6
:101A600004480393049300F0BDF806B010BD00BF16
:101A7000003801400008014038B50E4B0546187883
:101A80004FF47A73B3FBF0F30B4A1068B0FBF3F03A
:101A900000F092F8044658B90F2D09D8024629469D
:101AA0004FF0FF3000F054F8044B20461D6038BD65
:101AB000012038BD040000200000002008000020A4
:101AC000074A08B51368032043F01003136000F0C1
:101AD0002DF80020FFF7D0FFFFF722FF002008BD00
:101AE00000200240034A044B11681B780B4413602A
:101AF000704700BF4417002004000020014B186805
:101B0000704700BF4417002038B50446FFF7F6FFC2
:101B10000546631C1EBF044B1B78E418FFF7EEFF5D
:101B2000401B8442FAD838BD04000020074A000256
:101B3000D36800F4E06023F4E0631B041B0C43F063
:101B4000BF6343F400330343D360704700ED00E00C
:101B5000174B30B5DC68C4F30224C4F10703251D1C
:101B6000042B28BF0423062D4FF0010598BF002445
:101B700005FA03F303F1FF3388BF033C1940A1408A
:101B800005FA04F4013C2240002842EA01024FEA2F
:101B90000212AFBF00F16040064B00F00F00D2B25E
:101BA000A5BFD2B200F561401A5480F8002330BDC1
:101BB00000ED00E014ED00E00138B0F1807F0AD2C2
:101BC000F021064B064A586082F8231000200722B5
:101BD00098601A6070470120704700BF10E000E075
:101BE00000ED00E02DE9F74F00221646654BDFF8C7
:101BF000A4E1DFF8A4C14FF001080C6808FA06F868
:101C000008EA0404A0457FD14D68122D00F0AF8092
:101C100000F28880022D00F0A7807CD8002D00F013
:101C20008E80012D00F09E804FF00F09FF2C93BF96
:101C3000824606F18045083DD0F800B092BFB5005D
:101C4000D0F804B0AD0009FA05F82BEA080802FA4A
:101C500005F588BF00F1040A48EA0505CAF80050F6
:101C6000D1F804A01AF0805F4ED0474D464FAD69C1
:101C700026F0030845F00105BD61BD6908F1804803
:101C800005F00105019508F5803806F0030B019D6C
:101C90004FEA8B0BD8F8085009FA0BF925EA090925
:101CA0003A4DA84268D005F58065A84266D005F592
:101CB0008065A84264D005F58065A8420CBF032565
:101CC000042505FA0BF545EA0905C8F808501D6812
:101CD0001AF4803F14BF2543A5431D605D681AF4C4
:101CE000003F14BF2543A5435D609D681AF4801F23
:101CF00014BF2543A5439D60DD681AF4001F14BF7F
:101D00002C4325EA0404DC600136102E7FF473AF07
:101D100003B0BDE8F08F032D22D0112D84D1CA6805
:101D2000043281E71A4FBD4209D012D8DFF86C9017
:101D30004D4504D009F580394D457FF475AF8A686B
:101D4000C2B1012A0CBFC0F81080C0F8148008226C
:101D50006AE77545F3D06545F1D0DFF84490EBE7CD
:101D6000002261E7CA685FE7CA6808325CE7CA68B0
:101D70000C3259E7042257E70025A2E70125A0E726
:101D800002259EE7000401400010024000080140C7
:101D9000000021100000311000003210000011106E
:101DA000000022100AB1016170470904FBE70268D4
:101DB000536913F480630DD06FF48063536104237F
:101DC000202203640023036380F83C3080F83D2028
:101DD00001207047184670472DE9F843044617461E
:101DE0009946C1F307488EB22568B8F1010F0CBFC0
:101DF0006B69AB6936EA030314BF0120002008B900
:101E0000BDE8F8836B695A0512D52B68202243F48C
:101E100000732B606FF480636B61042323640023E1
:101E20000120236384F83C3084F83D20BDE8F8832A
:101E30007B1CD9D04FB900232022236384F83C3087
:101E400084F83D200320BDE8F883FFF757FEA0EBA0
:101E500009008742C8D2EEE72DE9F84304469046D0
:101E60001F46089EC1F307498DB22368B9F1010FDF
:101E70000CBF5B699B6935EA03030CBF0123002398
:101E8000434502D00020BDE8F8837B1CEDD05FB94C
:101E900000232022236384F83C3084F83D20032073
:101EA00084F83E30BDE8F883FFF728FE801B8742A8
:101EB000DBD2EDE770B504460D46164623685B6934
:101EC0001B0601D5002070BD2046FFF770FFA8B9A2
:101ED0006A1CF3D065B9236C202243F020032364ED
:101EE00000230320236384F83C3084F83D2070BD38
:101EF000FFF704FE801B8542E0D2ECE7012070BDB5
:101F000070B504460D4616462068436913F0400339
:101F100001D0002070BD4269D2060BD56FF01002CF
:101F200042612022236484F83C302363012084F83A
:101F30003D2070BD5DB9236C032043F02003236472
:101F4000202384F83D30002384F83C3070BDFFF737
:101F5000D5FD801B8542D7D2EDE770B504460D460E
:101F6000164623685B695B0701D5002070BD2046DB
:101F7000FFF71DFFA8B96A1CF3D065B9236C2022B6
:101F800043F02003236400230320236384F83C30C0
:101F900084F83D2070BDFFF7B1FD801B8542E0D283
:101FA000ECE7012070BD000038B5044608B90120F7
:101FB00038BD90F83D3003F0FF021BB980F83C209B
:101FC000FFF724FA2423226884F83D30136823F0B5
:101FD0000103136000F03AFD63682F4A934230D842
:101FE0002E4A9042E3D92E4A2168B0FBF2F24A60B1
:101FF00001320A62284A0138934232D85B00B0FBB2
:10200000F3F0431CC3F30B03042B38BF0423CB6151
:10201000226AE369002013430B60E26823691343DB
:102020008B60A26963691343CB600B6843F00103C3
:102030000B602023206484F83D30206384F83E0048
:1020400038BD184A9042B2D9154D4FF49672B0FB84
:10205000F5F521686A434D604FF47A75B2FBF5F2ED
:10206000C6E7A26852B903EB4303B0FBF3F0431C8D
:10207000C3F30B036BB143F40043C8E71922534386
:10208000B0FBF3F0431CC3F30B0313B143F4404321
:10209000BDE70123BBE700BFA08601007F841E00CF
:1020A00040420F00FF083D002DE9FF4104461F4656
:1020B0000D469046FFF722FD94F83D300646202B52
:1020C00004D00225284604B0BDE8F0810090192311
:1020D00001225D492046FFF7BFFE0028F1D194F8A8
:1020E0003C30012BEDD0012384F83C3023681A6882
:1020F000D2075EBF1A6842F001021A601A6822F421
:1021000000621A60212284F83D20102284F83E20CB
:1021100000222264A2F580326785E262628DC4F8F3
:1021200024802285E26A042A04D0012A02D012F512
:10213000803F04D11A6842F480721A6002E0226B78
:10214000122AF7D000960A9B00224FF00111204678
:10215000FFF782FE28BB23692268B3F5804F12D1B6
:1021600005F0FE05156133460A9A38492046FFF707
:1021700033FE0546A0B9236803905A6903929B6910
:102180000393039B50E0EB1103F0060343F0F003CD
:1021900013612F4933460A9A2046FFF71DFE48B1C6
:1021A000236C236C042B4FF0000307D184F83C30E0
:1021B000012587E72368EDB21D61D4E784F83C3040
:1021C00003257FE732460A992046FFF773FE40B1A8
:1021D000236C042BF4D12268136843F4007313605A
:1021E000E6E7616A20684B1C63620B78228D03610D
:1021F000638D013B9BB263854769531E9BB27F078A
:1022000023850AD54BB18B1C63624B78023A03617C
:10221000638D2285013B9BB2638532460A99204635
:10222000FFF79BFE0028D3D1238D002BCAD1216854
:102230000A6842F400720A60202284F83C3084F874
:102240003D2084F83E303DE702001000020001000E
:10225000080001002DE9F043044689B098460D4678
:102260009146109FFFF74AFC94F83D300646202B1C
:1022700004D00225284609B0BDE8F0830090192358
:102280000122A2492046FFF7E7FD0028F1D194F88A
:102290003C30012BEDD0012384F83C3023681A68D0
:1022A000D2075EBF1A6842F001021A601A6822F46F
:1022B00000621A60222284F83D20102284F83E2019
:1022C00000222264A2F58032A4F82A80E262628DA4
:1022D000C4F824902285E26A1968042A41F48061D6
:1022E000196004D0012A02D012F5803F04D11A6887
:1022F00042F480721A6002E0226B112AF7D0009635
:102300003B4600224FF001112046FFF7A5FD0028B3
:102310004DD12369B3F5804F236839D145F00105CC
:10232000EDB21D6133463A4679492046FFF754FD28
:10233000054600283AD1228D2368002A69D0012A57
:102340007AD11A6822F480621A6072B62368049502
:102350005A6904929A690492049A1A6842F40072C3
:102360001A6062B6DFF8B081238D002B5BD0032B9F
:1023700000F2D480012B7BD1324639462046FFF74C
:10238000BFFD002800F09380236C202B16D13EE087
:102390004FEAE51808F0060848F0F0021A615D49B6
:1023A00033463A462046FFF717FD48B1236C236CAD
:1023B000042B4FF0000328D184F83C30012559E765
:1023C0002368EDB21D613A46334651492046FFF776
:1023D00003FD02460028E9D1236807905969204689
:1023E0000791996907910799196841F480711960FB
:1023F00000963B464FF00111FFF72EFD0028D6D185
:10240000226848F0F10313618CE784F83C3003251F
:1024100030E703955A6903929A690392039A1A68FE
:1024200042F400721A60202384F83D30002384F8BF
:102430003E3084F83C301DE7022A1A680ED142F47F
:1024400000621A6072B6236805955A6905929A6906
:102450000592059A1A6822F4806281E742F480624C
:102460001A6006955A6906929B690693069B79E75E
:10247000022B00963B464FF000024146204624D1F5
:10248000FFF7EAFC0028C2D172B623681A6842F44A
:1024900000721A60626A1B69511C61621370238D9D
:1024A000013B2385638D013B9BB2638562B6636A02
:1024B0005A1C6262226812691A70238D013B2385BF
:1024C000638D013B9BB263854EE7FFF7C5FC024677
:1024D00000289CD121680B6823F480630B6072B6DE
:1024E000636A2046591C6162216809691970238D4D
:1024F0000096013B2385638D4146013B9BB263857A
:102500003B46FFF7A9FC0028BFD080E7020010007F
:1025100002000100080001000400010032463946B3
:102520002046FFF7EDFC00287FF42EAF636A5A1CAB
:102530006262226812691A70238D2268013B23852A
:10254000638D013B9BB2638553695B077FF50CAFDD
:10255000636A591C6162AEE703682DE9F341DB074A
:10256000054610D42B689F075ED42B68190700F12D
:1025700095802B685A0700F1BF80EA69002A40F075
:102580002D81002014E0904C636803F00C03042BB1
:1025900007D0636803F00C03082B0CD16368DE03DB
:1025A00009D523689C03DDD56B68002BDAD10120A7
:1025B00002B0BDE8F0816B68B3F5803F10D12368AD
:1025C00043F480332360FFF799FA064623689803A3
:1025D000C8D4FFF793FA801B6428F7D90320E7E7F4
:1025E0009BB9236823F480332360236823F480237A
:1025F0002360FFF783FA064623689903B2D5FFF7F5
:102600007DFA801B6428F7D9E8E7B3F5A02F23688B
:1026100003D143F480232360D1E723F48033236084
:10262000236823F48023CDE7674C636813F00C0F15
:1026300007D0636803F00C03082B10D16368DA033A
:102640000DD423689B0702D52B69012BAFD12368DA
:102650006A6923F0F80343EAC203236085E72A6925
:102660005A4B6AB101221A60FFF748FA06462368FE
:102670009F07ECD4FFF742FA801B0228F7D9ADE799
:102680001A60FFF73BFA0646236898077FF56DAF9F
:10269000FFF734FA801B0228F6D99FE7AA694A4C53
:1026A0004B4BDAB101221A60FFF728FA0646636A3B
:1026B0009B070DD54FF4FA52464B1B68B3FBF2F360
:1026C000019300BF019B5A1E0192002BF9D150E7E4
:1026D000FFF714FA801B0228E9D97FE71A60FFF799
:1026E0000DFA0646636A9F077FF543AFFFF706FAC8
:1026F000801B0228F6D971E7334CE369D80024D453
:102700000127E36943F08053E361E36903F08053F9
:102710000093009B304E3368D90518D5EB68012B28
:1027200026D1236A43F001032362FFF7E7F941F260
:1027300088368046236A9B073FD5002F3FF41DAFA4
:10274000E36923F08053E36117E70027E2E733688A
:1027500043F480733360FFF7D1F980463368DA05BC
:10276000DCD4FFF7CBF9A0EB08006428F6D935E7F5
:10277000ABB9236A41F2883823F001032362236A4C
:1027800023F004032362FFF7B9F90646236A98078A
:10279000D3D5FFF7B3F9801B4045F7D91EE7052BCA
:1027A000236A03D143F004032362BAE723F0010351
:1027B0002362236A23F00403B6E7FFF79FF9A0EB37
:1027C0000800B042B6D909E70010024000004242BA
:1027D000800442420000002000700040224C6368E8
:1027E00003F00C03082B3FF4E2AE00231F4E022A35
:1027F00033602BD1FFF782F90746236899011FD474
:102800002B6AB3F5803F05D16268A96822F40032D3
:102810000A436260696A62680B4322F474121343CC
:10282000636001233360FFF769F9054623689A0165
:102830003FF5A7AEFFF762F9401B0228F6D9CDE6B7
:10284000FFF75CF9C01B0228D7D9C7E6FFF756F996
:10285000054623689B017FF594AEFFF74FF9401BB7
:102860000228F6D9BAE600BF0010024060004242DA
:1028700030B5194B87B002AC03F110052246186839
:102880005968083303C2AB421446F7D101238DF8CF
:102890000430022311498DF805304B6803F00C0217
:1028A000082A17D1C3F3834206A80244DB0312F8B7
:1028B000102C0CD54B680A48C3F34043504306AA7A
:1028C000134413F8143CB0FBF3F007B030BD0548D7
:1028D0005043FAE70248F8E7B83D0008001002400C
:1028E00000127A0000093D00544A2DE9F0411368B6
:1028F000054603F007038B420E462AD329688C074E
:1029000034D4CA0747D44D4A136803F007039E42E4
:10291000C0F082802A684A4C12F0040F40F0878091
:10292000130706D563682A6923F4605343EAC20398
:102930006360FFF79DFF6368424AC3F30313D35CF0
:10294000D840414B18600020FFF796F80020BDE802
:10295000F081136823F007030B431360136803F03F
:1029600007039942CAD00120BDE8F081344B11F031
:10297000040F1EBF5A6842F4E0625A60080742BF63
:102980005A6842F460525A605A68A86822F0F0020D
:1029900002435A60B5E76A68294C012A23681CD1B2
:1029A00013F4003FDFD0636841F2883823F003035B
:1029B00013436360FFF7A2F86B680746012B14D13D
:1029C000636803F00C03042B9DD0FFF797F8C01B3E
:1029D0004045F5D90320BDE8F081022A02D113F069
:1029E000007FDFE713F0020FDCE7022B0FD16368F3
:1029F00003F00C03082B86D0FFF780F8C01B40457E
:102A0000F5D9E7E7FFF77AF8C01B4045E2D86368DD
:102A100013F00C0FF6D176E7136823F00703334366
:102A20001360136803F007039E429CD172E763684A
:102A3000E96823F4E0630B43636071E70020024020
:102A400000100240C83D000800000020044B054A69
:102A50005B68C3F30223D35C034A1068D840704715
:102A600000100240D83D000800000020044B054A39
:102A70005B68C3F3C223D35C034A1068D840704735
:102A800000100240D83D0008000000202DE9F0476A
:102A90000568C2682B69016923F4405313432B6115
:102AA0008368EA680B43416922F4B05222F00C02B9
:102AB0000B431343EB606B69826923F44073134348
:102AC0006B61404B81469D424FF0190446D1FFF7A0
:102AD000CDFF04FB00F3D9F804604FF06408B600A2
:102AE000B3FBF6F3B3FBF8F31E01FFF7BFFF604340
:102AF000D9F804309B00B0FBF3F7FFF7B7FF604352
:102B0000D9F804309B00B0FBF3F3B3FBF8F308FBF8
:102B100013731B013233B3FBF8F303F0F007FFF735
:102B2000A5FF6043D9F804209200B0FBF2FAFFF74A
:102B30009DFF6043D9F804309B00B0FBF3F3B3FB77
:102B4000F8F308FB13A31B013233B3FBF8F303F0D4
:102B50000F033B433344AB60BDE8F087FFF776FFDC
:102B600004FB00F3D9F804604FF06408B600B3FB2F
:102B7000F6F3B3FBF8F31E01FFF768FF6043D9F8E3
:102B800004309B00B0FBF3F7FFF760FF6043D9F818
:102B900004309B00B0FBF3F3B3FBF8F308FB1373B3
:102BA0001B013233B3FBF8F303F0F007FFF74EFFDE
:102BB0006043D9F804209200B0FBF2FAFFF746FF19
:102BC000B7E700BF0038014010B5044640B390F8A5
:102BD000393003F0FF021BB980F83820FEF710FFF0
:102BE0002423226884F83930D368204623F4005324
:102BF000D360FFF74BFF236800201A6922F490424C
:102C00001A615A6922F02A025A61DA6842F40052C3
:102C1000DA602023E06384F8393084F83A3010BD5C
:102C2000012010BD002103E00B4B5B5843500431E1
:102C30000A480B4B42189A42F6D30A4A02E0002394
:102C400042F8043B084B9A42F9D3FEF795FE00F098
:102C50000FF8FEF7A1FD7047383E00080000002085
:102C6000740000207400002048170020FEE70000D8
:102C700070B500250C4E0D4CA41BA410A54209D123
:102C800001F08EF800250A4E0A4CA41BA410A542A0
:102C900005D170BD56F8253098470135EEE756F856
:102CA000253098470135F2E7303E0008303E0008F5
:102CB000303E0008343E000803460244934200D1EF
:102CC000704703F8011BF9E72DE9F04F8FB01D465F
:102CD00080468946144600F0AFF9A54FCDE90001C2
:102CE00097F900303E46029301335FD022462B46CF
:102CF00020462946FDF77EFE8246002856D14246F0
:102D00004B4640464946FDF775FE0390E8B1002268
:102D1000002320462946FDF73BFE002846D001232C
:102D200000220493934BCDF830A00593924BCDE94C
:102D30000689CDE90A23029BCDE90845022B31D053
:102D400004A800F020FF38BB58E04FF0000A4FF015
:102D5000000B52465B4640464946FDF719FE0028E7
:102D600051D052465B4620462946FDF711FE0646E5
:102D700008B3012304937F4BCDE906890593039B98
:102D8000CDE908450C93029BCDE90AAB002BD7D0C7
:102D90000022794BCDE90A230C9B1BB100F0FAFF0E
:102DA0000C9B0360DDE90A348DE81800DDE90001C1
:102DB0000FB0BDE8F08F2046294600F0DEFE002867
:102DC000F4D052465B4620462946FDF7EBFD00282D
:102DD000ECD001230493674B0C96059397F90030D0
:102DE000CDE90689CDE9084513B9CDE90AABA7E7D6
:102DF00000206249022BCDE90A01A1D100F0CAFFEF
:102E000021230360C8E7DDE9000100F0B6FE02906F
:102E100000287FD14046494600F0AFFE002879D017
:102E20002046294600F0A9FE002873D0DDE90023E2
:102E300019461046FDF7DEFD97F900704D4BA0B125
:102E400001220593029B04920C93CDE90689CDE9FA
:102E50000845002FC9D052465B4650465946FDF7FB
:102E600059FC022FCDE90A01C7E70322059304921A
:102E70000C90CDE90689CDE9084557BB4FF060427B
:102E80003F4B4046CDE90A23494652465B46FDF793
:102E900089FD002864D000223A4B20462946FDF7E0
:102EA0000FFB04460D4600F077FE02460B46204617
:102EB0002946FDF76DFD20B94FF06042324BCDE958
:102EC0000A2396F90030022B4AD100F063FF222337
:102ED00097E700222D4B4046CDE90A23494652464A
:102EE0005B46FDF75FFD0028EBD00022254B204616
:102EF0002946FDF7E5FA04460D4600F04DFE024670
:102F00000B4620462946FDF743FD0028D9D1002273
:102F10001A4BD4E70022DDE900010023FDF738FD5C
:102F200000283FF443AF4046494600F026FE002803
:102F30003FF43CAF2046294600F01FFE00283FF436
:102F400035AF042304930B4BCDE9084505930023CB
:102F500000240C930023CDE90689CDE90A34B0E7BB
:102F600004A800F010FE00287FF416AFADE700BF04
:102F700070000020E03D00080000F03F0000F0FF7E
:102F8000FFFFEF470000E03FFFFFEFC70000F07FCB
:102F90002DE9F04F8BB004460D4600F03FFD244B69
:102FA000804693F900A08946BAF1FF3F2BD0224614
:102FB0002B4620462946FDF71DFD834618BB0026FB
:102FC000002732463B4620462946FDF7EBFCD0B1B0
:102FD00001230093174BCDF820B00193CDE90445B0
:102FE000CDE90245BAF1000F12D1CDE90667684676
:102FF00000F0C9FDB8B1089B1BB100F0CBFE089BE7
:103000000360DDE90689404649460BB0BDE8F08F14
:1030100032463B4630463946FDF77CFBBAF1020F9B
:10302000CDE90601E3D100F0B5FE21230360E2E71C
:1030300070000020E43D00082DE9F04F93B0CDE989
:103040000223039E029A26F0004555EA0203074632
:1030500088468246894600F09E84774B21F00044E2
:103060009C4209DC03D138B9A5420DDC01E09D4248
:1030700002DC9D420ED16AB104F1404404F5801493
:1030800054EA0A0300F087846C4813B0BDE8F04F9F
:1030900000F07CBDB9F1000F4FDA694B9D424ADC6C
:1030A000A3F154739D4248DD2B15A3F2FF33142B7B
:1030B00024DDC3F1340322FA03F101FA03F39A4247
:1030C0003BD101F00101C1F102030093002A56D166
:1030D000594B9D4222D104F1404303F5801353EA3A
:1030E0000A0300F05884574B9C4228DD002E80F2E2
:1030F00056840020002113B0BDE8F08F002A3CD197
:10310000C3F1140345FA03F101FA03F39D4240F0C1
:103110004E8401F00101C1F1020300934A4B9D422C
:1031200014D1002E80F23F843A464346002046499F
:10313000FDF7F0FADFE70223C7E70023C5E7002E1B
:10314000D7DA039B029803F10041D4E7B6F1804F30
:1031500006D13A46434638464146FDF7B1F9CAE73B
:103160003A4B9E420BD1B9F1000F08DB384641467D
:1031700013B0BDE8F04F00F051BC00230093384677
:10318000414600F0F7FCBAF1000F25D124B12E4BD7
:1031900029F040429A421FD1002E05DA02460B4622
:1031A00000202949FDF7B6FAB9F1000FA3DA04F1BE
:1031B0004044009B04F58014234306D102460B468D
:1031C000FCF7CAFF02460B46B2E7009B012B92D1E7
:1031D00001F1004319468EE74FEAD97909F1FF332F
:1031E0000C930C9A009B134304D13A46434638464D
:1031F0004146E5E7164B9D4240F3FC8003F1047322
:103200009D420BDD0F4B9C420EDC002EBFF671AFD2
:1032100007A3D3E90023104619469EE70D4B9C42B5
:10322000F3DD094B9C4217DD002EF1DC61E700BFA6
:103230009C7500883CE4377E0000F07FE83D000884
:10324000FFFF3F43FFFFEF3F0000F03F0000E03F84
:103250000000E041FEFFEF3F0022614BFCF77CFFE6
:1032600055A3D3E9002304460D46FDF729F954A3DD
:10327000D3E9002306460F4620462946FDF720F9EC
:10328000002282468B46574B20462946FDF718F907
:1032900002460B464CA1D1E90001FCF75DFF224636
:1032A0002B46FDF70DF902460B4600204E49FCF770
:1032B00053FF22462B468046894620462946FDF785
:1032C000FFF802460B4640464946FDF7F9F840A391
:1032D000D3E90023FDF7F4F802460B465046594661
:1032E000FCF73AFF02460B4604460D463046394687
:1032F000FCF734FF00208B46824632463B46FCF703
:103300002BFF02460B4620462946FCF725FF009B73
:103310000C9A013B13434FF000030CBF334C304C6D
:1033200006468DE81800DDE9024500240F46DDE978
:10333000020122462B46FCF70FFF52465B46FDF783
:10334000BFF8DDE902238046894630463946FDF75D
:10335000B7F802460B4640464946FCF7FFFE2246B8
:103360002B468046894650465946FDF7A9F8044643
:103370000D460B46024649464046CDE90245FCF75C
:10338000EDFE1B4B824699420F460E4640F3DA8211
:1033900001F13F4303F5E003034300F0D5810EA3A1
:1033A000D3E90023DDE90001FDF78AF80AA3D3E998
:1033B0000023D2E6AFF30080000000604715F73F1E
:1033C00044DF5DF80BAE543E555555555555D53F28
:1033D000FE822B654715F73F9C7500883CE4377EDD
:1033E0000000F03F0000D03F0000E03F0000F0BFD1
:1033F000FFFF8F40B4F5801F4FF0000205DACA4B83
:10340000FDF75EF86FF034020C462315A3F2FF338C
:1034100013440793C54BC4F3130444F07F559C42F7
:1034200045F4401508DDC24B9C4240F35481079B94
:10343000A5F580150133079300262946F3000D9367
:10344000BC4BF200134418CBCDE90A341A4623468C
:10345000CDE90801FCF780FEDDE90A23CDE90E0184
:10346000DDE90801FCF77AFE02460B460020B2496E
:10347000FDF750F902460B46CDE91001DDE90E01DA
:10348000FDF71EF8CDE90401DDE904AB4FF0000AB9
:1034900000226D1045F0005505F5002505EB86432B
:1034A0005946504614461D46FDF70AF802460B469B
:1034B000DDE90E01FCF750FEDDE90A2306460F4662
:1034C00020462946FCF748FE02460B46DDE9080186
:1034D000FCF742FE5B465246FCF7F2FF02460B4603
:1034E00030463946FCF738FEDDE91023FCF7E8FFEB
:1034F000DDE90423CDE9080110461946FCF7E0FF99
:1035000077A3D3E9002304460D46FCF7D9FF76A341
:10351000D3E90023FCF722FE22462B46FCF7D0FF1E
:1035200073A3D3E90023FCF719FE22462B46FCF7D0
:10353000C7FF71A3D3E90023FCF710FE22462B46F8
:10354000FCF7BEFF6EA3D3E90023FCF707FE22467B
:103550002B46FCF7B5FF6CA3D3E90023FCF7FEFD77
:10356000224606460F462B4620462946FCF7A8FF72
:1035700002460B4630463946FCF7A2FF04460D468C
:10358000DDE904015B465246FCF7E8FDDDE908236E
:10359000FCF796FF22462B46FCF7E0FD5B4606460D
:1035A0000F46524659465046FCF78AFF0022634BAD
:1035B000CDE90A01FCF7D2FD32463B46FCF7CEFDD1
:1035C00050460D4602460B4650465946FCF778FFDA
:1035D000002280468946594B29465046FCF7BCFDDF
:1035E000DDE90A23FCF7B8FD02460B4630463946B2
:1035F000FCF7B2FDDDE90423FCF762FF2B4606462B
:103600000F46DDE908015246FCF75AFF02460B4619
:1036100030463946FCF7A2FD06460F4602460B46E9
:1036200040464946FCF79AFD39A3D3E900235046AA
:103630000D46FCF745FF4246CDE904014B462946BD
:103640005046FCF789FD02460B4630463946FCF7EA
:1036500083FD31A3D3E90023FCF732FF30A3D3E984
:10366000002306460F4650462946FCF729FF02462E
:103670000B4630463946FCF771FD0D9A304B13442A
:10368000D3E90023FCF76AFD044607980D46FCF7D2
:10369000B1FE06460F460D9A2A4BDDE9040113449C
:1036A000D3E9008922462B46FCF758FD42464B469B
:1036B000FCF754FD32463B46FCF750FD32463B4694
:1036C00050468B46FCF748FD42464B46FCF744FD0E
:1036D000DDE9042313E60126AFE600BFAFF3008067
:1036E000EF4E454A287ECA3F65DBC9934A86CD3FE7
:1036F00001411DA96074D13F4D268F515555D53FCD
:10370000FFAB6FDBB66DDB3F033333333333E33F64
:10371000000000E009C7EE3FFD033ADC09C7EE3FB9
:10372000F5015B14E02F3EBE000040438E9803007D
:1037300079B60B00F03D00080000F03F00000840A3
:10374000103E0008003E00089BA3D3E9002340463A
:103750004946FCF703FD2246CDE904012B465046BD
:103760003946FCF7F9FC02460B46DDE90401FDF79A
:1037700037F900287FF413AEA34A26F000439342A2
:1037800040F304814FF4801A00201B15A3F2FE338E
:103790004AFA03F33344C3F30A529C4FA2F2FF32B6
:1037A0001741C3F3130A23EA0701C2F114024AF4D2
:1037B000801A4AFA02FA002E02460B462046294693
:1037C000B8BFCAF1000AFCF7C7FCCDE90201DDE988
:1037D000020142464B46FCF7C1FC79A3D3E9002322
:1037E00000200D460446FCF76BFEDDE90223064689
:1037F0000F4620462946FCF7AFFC02460B464046E2
:103800004946FCF7A9FC70A3D3E90023FCF758FE56
:103810006FA3D3E900238046894620462946FCF75A
:103820004FFE02460B4640464946FCF797FC0446CD
:103830000D4602460B4630463946FCF78FFC3246B1
:103840003B4680468946FCF787FC02460B462046ED
:103850002946FCF781FC424606460F464B46404649
:103860004946FCF72DFE5CA3D3E9002304460D4630
:10387000FCF726FE5AA3D3E90023FCF76DFC224691
:103880002B46FCF71DFE58A3D3E90023FCF766FC8A
:1038900022462B46FCF714FE55A3D3E90023FCF780
:1038A0005BFC22462B46FCF70BFE53A3D3E9002317
:1038B000FCF754FC22462B46FCF702FE02460B4660
:1038C00040464946FCF748FC04460D4602460B4676
:1038D00040464946FCF7F4FD0022CDE902014FF0D5
:1038E000804320462946FCF737FC02460B46DDE9BB
:1038F0000201FCF70FFF324604460D463B464046A8
:103900004946FCF7DDFD32463B46FCF727FC024604
:103910000B4620462946FCF71FFC42464B46FCF767
:103920001BFC02460B4600203949FCF715FC01EB55
:103930000A54B4F5801F2CDA524600F0B5F9DDE9DF
:1039400000230AE4334B21F000479F427FF714AF76
:10395000314B0B4403430BD029A3D3E90023DDE90A
:103960000001FCF7ADFD26A3D3E90023FFF7F5BB6B
:1039700022462B46FCF7F0FB02460B4640464946E2
:10398000FDF71AF800283FF4F7AEE5E74FF0000A1C
:103990001DE72146D3E700201D49FFF7ACBBDDE959
:1039A0000201FFF7A8BB38464146FFF7A4BB0092CF
:1039B000FFF7B4BBAFF30080FE822B654715973C41
:1039C00000000000432EE63FEF39FAFE422EE63FAC
:1039D000396CA80C615C20BED0A4BE726937663E0B
:1039E000F16BD2C541BDBB3E2CDE25AF6A56113FFF
:1039F00093BDBE166CC1663F3E5555555555C53FE6
:103A000059F3F8C21F6EA5010000E03FFFFF0F0051
:103A10000000F03FFFCB904000346F3F2DE9F041B4
:103A2000DFF84CE106463EEA010E0D4607460A461F
:103A30000C4603460FD102460B46FCF741FD0246F9
:103A40000B4630462946FCF789FB06460D463046B4
:103A50002946BDE8F08100290EDC21F0004E5EEA27
:103A60000707F4D041B102460B46FCF775FB02464E
:103A70000B46FCF74FFEE8E712150CD1002C6ED078
:103A80000021E6026FD5481E121AC1F1200023FA68
:103A900000F004438B40A2F2FF32D5074FF000053F
:103AA000C4F3130444F4801442BF640004EBD374E1
:103AB0005B0004EBD3715010214416222C464FF4C6
:103AC00000165B00A7198F42DEBFC91BBC19AD19D8
:103AD0004900013A01EBD3714FEA56064FEA43031E
:103AE000F0D14FF0200E94464FF00046A14206EB75
:103AF0000C0702DC12D19F4210D8002F07EB060CF6
:103B000034DABCF1000F31DB04F10108091B444633
:103B10009F4288BF01F1FF31DB1B324401EBD377B9
:103B2000BEF1010E39444FEA43034FEA5606DDD198
:103B30000B4306D0541C0BBF72460132013522F0F4
:103B400001026B105208E90703F17F5303F50013DC
:103B500048BF42F0004203EB0055164677E7DC0A07
:103B6000153A5B058AE7640001318AE7A046CDE794
:103B70000000F07F21F00041704741F0004101F565
:103B80008010C00F704700207047000000200149DE
:103B9000704700BF0000F87FF7B5C1F30A5EAEF2D0
:103BA000FF37132F02460B4684460C4605464FEA64
:103BB000D17656DC002F29DA21F00041014321D0D3
:103BC000C3F3130505436B422B431B0B640C03F437
:103BD0000023640443EA0401314B03EBC603D3E939
:103BE000004522462B46FCF7B9FACDE90001DDE994
:103BF000000122462B46FCF7AFFA024621F00041B5
:103C000041EAC6731046194603B0F0BD2549394153
:103C100003EA01001043F5D04B0804EA030252EA1C
:103C20000C050AD024EA03034FF48024132F0CBFA1
:103C30004FF0004500253C411C43194B214603EB46
:103C4000C6062846D6E9004522462B46FCF786FAEA
:103C5000CDE90001DDE9000122462B46FCF77CFAA4
:103C600006E0332F07DDB7F5806FCBD1FCF776FA8E
:103C700002460B46C6E74FF0FF31AEF2134E21FA73
:103C80000EF10842BED04B0818421FBF4FF08045CE
:103C900020EA030345FA0EFE4EEA0305CDE700BF16
:103CA000203E0008FFFF0F00F8B51646C1F30A5288
:103CB00004460D460B468AB921F00043034335D034
:103CC00000222D4BFCF7FCFB2C4A044696420D4685
:103CD0000B460EDA24A3D3E900231CE040F2FF7761
:103CE000BA4209D102460B46FCF738FA04460D46A3
:103CF0001CE0C1F30A52363A40F2FE7132448A4265
:103D00000CDD22462B461AA1D1E9000100F03AF859
:103D100017A3D3E90023FCF7D3FBE7E7002A08DD6C
:103D200023F0FF4323F4E00343EA025520462946EB
:103D3000F8BD12F1350F0BDA4CF250339E42224699
:103D40002B46E0DC08A1D1E9000100F01BF8C1E737
:103D500023F0FF43363223F4E00343EA02552046C2
:103D600029460022064BD6E759F3F8C21F6EA5017B
:103D70009C7500883CE4377E00005043B03CFFFF58
:103D80000000903C21F0004203F0004342EA0301AE
:103D900070470000014B1868704700BF0C000020FE
:103DA000F8B500BFF8BC08BC9E467047F8B500BF28
:083DB000F8BC08BC9E467047F8
:103DB80002030405060708090A0B0C0D0E0F101064
:103DC80000000000000000000102030406070809C3
:103DD8000000000001020304706F770073717274B1
:103DE8000000000000000000000000000000F03F9C
:103DF800000000000000F83F000000000000000084
:103E08000000004003B8E23F00000000000000008E
:103E180006D0CF43EBFD4C3E0000000000003043CD
:083E280000000000000030C39F
:043E30003501000850
:043E34001101000870
:103E380000A24A0401000000100000001000002049
:103E4800000000000000000000000000000000006A
:103E5800000000000000000000000000000000005A
:103E6800000000000000000000000000000000004A
:103E7800000000000000000000000000000000003A
:103E8800000000000000000000000000000000002A
:103E9800000000000000000000000000000000001A
:043EA8000100000015
:0400000508002C259E
:00000001FF
