:020000040800F2
:1000000000500020611B0008650500086705000816
:10001000690500086B0500086D0500080000000078
:100020000000000000000000000000006F05000854
:100030007105000800000000730500087505000840
:10004000A91B0008A91B0008A91B0008A91B000880
:10005000A91B0008A91B0008A91B0008A91B000870
:10006000A91B0008A91B0008A91B0008A91B000860
:10007000A91B0008A91B0008A91B0008A91B000850
:10008000A91B0008A91B0008A91B0008A91B000840
:10009000A91B0008A91B0008A91B0008A91B000830
:1000A000A91B0008A91B0008A91B0008A91B000820
:1000B000A91B0008A91B0008A91B0008A91B000810
:1000C000A91B0008A91B0008A91B0008A91B000800
:1000D000A91B0008A91B0008A91B0008A91B0008F0
:1000E000A91B0008A91B0008A91B000800000000AC
:1000F0000000000000000000000000000000000000
:0C01000000000000000000005FF808F1A3
:10010C0010B5054C237833B9044B13B10448AFF345
:10011C0000800123237010BD0C00002000000000A3
:10012C00041C000808B5034B1BB103490348AFF38B
:10013C00008008BD0000000010000020041C000816
:10014C002DE9F04F01244FF010094FF6FF771126DF
:10015C004FF0800B214DDFF888A085B0DFF884804C
:10016C0023464A460E21029701940095504688F882
:10017C0000902C7001F0F2F80F2000F0BFFA5046FE
:10018C00DFF864A0234632460297019400950E21B5
:10019C0088F8006085F800B001F0E0F823464A4684
:1001AC000E21029701940095504688F800902C700F
:1001BC0001F0D4F80F2000F0A1FA029701940095F9
:1001CC00234632460E21504688F8006085F800B070
:1001DC0001F0C4F805B0BDE8F08F00BF2F0000207F
:1001EC006000002028000020B400002070B5072318
:1001FC00642686B0194D06AA044602F80A3D0E2163
:10020C0000960123284600F09BFD03AA00960123CB
:10021C000E21284600F06AFE012306AA02F8093DC9
:10022C000E210096284600F08BFD0096062304AAAA
:10023C000E21284600F05AFEBDF810305BBA9BB276
:10024C002360BDF812305BBA9BB26360BDF814300A
:10025C005BBA9BB2A36006B070BD00BF600000200B
:10026C00012330B5114D87B006AA044602F8093DAA
:10027C000E21284600F0BCFF082304AA00930E218F
:10028C000623284601F008F8BDF810305BBA9BB283
:10029C002360BDF812305BBA9BB26360BDF81430BA
:1002AC005BBA9BB2A36007B030BD00BFB4000020A6
:1002BC0010B50C46FFF79AFF2046BDE81040FFF73B
:1002CC00CFBF0000102210B588B00DEB020000214A
:1002DC0001F08AFC1D4B1E4C9A69204642F010021C
:1002EC009A619A694FF4005102F010020092009A40
:1002FC009A6942F020029A619A6902F020020192F6
:10030C00019A9A6942F008029A619A6902F008020D
:10031C000292029A9A6942F004029A619B69002245
:10032C0003F004030393039B00F036FB4FF40053DC
:10033C0004930123059300230693022304A920466A
:10034C00079300F049FA08B010BD00BF001002403E
:10035C000010014008B50C480C4BDFF834E04FF4AA
:10036C00804280E80840002302618360C3604361DF
:10037C008361C361036200F063FC18B1BDE80840FF
:10038C0000F0C6B808BD00BF60000020005400405B
:10039C00801A060008B50C480C4BDFF834E04FF41B
:1003AC00804280E80840002302618360C36043619F
:1003BC008361C361036200F043FC18B1BDE80840DF
:1003CC0000F0A6B808BD00BFB400002000580040E3
:1003DC00801A0600102210B5044688B00DEB0200FE
:1003EC00002101F001FC2368214A93421ED1214CCB
:1003FC0004A9A369204843F00803A361A36903F08F
:10040C0008030093009BC02304931223059303233A
:10041C00079300F0E1F9E36943F40013E361E36946
:10042C0003F400130193019B08B010BD134A9342CF
:10043C00FAD1104C04A9A3690F4843F00803A36137
:10044C00A36903F008030293029B4FF440630493E7
:10045C00122305930323079300F0BEF9E36943F4D9
:10046C008003E361E36903F480030393039BDBE7FD
:10047C000054004000100240000C014000580040A5
:10048C0010B590B02822002106A801F0ADFB002188
:10049C00142201A801F0A8FB4FF48033012202249E
:1004AC0007930E934FF4E01306A806920A920F934B
:1004BC000D9400F0E9FF0F234FF4806201930023A9
:1004CC00214601A8029403930492059301F0A4F928
:1004DC0010B010BD08B500F0EDF8FFF7D1FFFFF735
:1004EC00F1FEFFF737FFFFF755FF00F065F8FFF758
:1004FC0027FE054D054C20462946FFF7D9FE642002
:10050C0000F0FCF8F7E700BF30000020540000209A
:10051C00704700000E4B82B09A6942F001029A615A
:10052C009A6902F001020092009ADA6942F0805254
:10053C00DA61DB69074A03F080530193019B53682E
:10054C0023F0E06343F00073536002B0704700BFC8
:10055C0000100240000001407047FEE7FEE7FEE796
:10056C00FEE770477047704700F0B6B80F4B1A683B
:10057C0042F001021A6059680D4A0A405A601A6822
:10058C0022F0847222F480321A601A6822F48022DB
:10059C001A605A6822F4FE025A604FF41F029A60E5
:1005AC004FF00062034B9A60704700BF001002408E
:1005BC000000FFF800ED00E008B54FF480624FF446
:1005CC00E13E0A480A4B026180E808400C220023F5
:1005DC0042618360C3608361C36101F08DFA18B11D
:1005EC00BDE80840FFF794BF08BD00BF080100201C
:1005FC000038014010B5044686B01022002102A834
:10060C0001F0F2FA2268174B9A4228D103F55843AD
:10061C009A6902A942F480429A619A69124802F4DA
:10062C0080420092009A9A6942F004029A619B6996
:10063C0003F004030193019B4FF400730293022314
:10064C0003930323059300F0C7F84FF480630293E0
:10065C00002302A904480393049300F0BDF806B0EC
:10066C0010BD00BF003801400008014038B50E4BEA
:10067C00054618784FF47A73B3FBF0F30B4A106805
:10068C00B0FBF3F000F092F8044658B90F2D09D8DE
:10069C00024629464FF0FF3000F054F8044B204638
:1006AC001D6038BD012038BD040000200000002072
:1006BC0008000020074A08B51368032043F0100314
:1006CC00136000F02DF80020FFF7D0FFFFF722FF9A
:1006DC00002008BD00200240034A044B11681B781F
:1006EC000B441360704700BF480100200400002039
:1006FC00014B1868704700BF4801002038B504460C
:10070C00FFF7F6FF0546631C1EBF044B1B78E4186D
:10071C00FFF7EEFF401B8442FAD838BD04000020DE
:10072C00074A0002D36800F4E06023F4E0631B0482
:10073C001B0C43F0BF6343F400330343D360704797
:10074C0000ED00E0174B30B5DC68C4F30224C4F1B3
:10075C000703251D042B28BF0423062D4FF001058C
:10076C0098BF002405FA03F303F1FF3388BF033C61
:10077C001940A14005FA04F4013C2240002842EA49
:10078C0001024FEA0212AFBF00F16040064B00F0CD
:10079C000F00D2B2A5BFD2B200F561401A5480F856
:1007AC00002330BD00ED00E014ED00E00138B0F1A5
:1007BC00807F0AD2F021064B064A586082F823103B
:1007CC000020072298601A6070470120704700BF14
:1007DC0010E000E000ED00E02DE9F74F0022164696
:1007EC00654BDFF8A4E1DFF8A4C14FF001080C68F9
:1007FC0008FA06F808EA0404A0457FD14D68122DCA
:10080C0000F0AF8000F28880022D00F0A7807CD829
:10081C00002D00F08E80012D00F09E804FF00F090E
:10082C00FF2C93BF824606F18045083DD0F800B0FE
:10083C0092BFB500D0F804B0AD0009FA05F82BEA68
:10084C00080802FA05F588BF00F1040A48EA050514
:10085C00CAF80050D1F804A01AF0805F4ED0474D72
:10086C00464FAD6926F0030845F00105BD61BD6931
:10087C0008F1804805F00105019508F5803806F06F
:10088C00030B019D4FEA8B0BD8F8085009FA0BF9B2
:10089C0025EA09093A4DA84268D005F58065A842B9
:1008AC0066D005F58065A84264D005F58065A84240
:1008BC000CBF0325042505FA0BF545EA0905C8F814
:1008CC0008501D681AF4803F14BF2543A5431D60D2
:1008DC005D681AF4003F14BF2543A5435D609D6815
:1008EC001AF4801F14BF2543A5439D60DD681AF4DC
:1008FC00001F14BF2C4325EA0404DC600136102EC3
:10090C007FF473AF03B0BDE8F08F032D22D0112D0F
:10091C0084D1CA68043281E71A4FBD4209D012D87B
:10092C00DFF86C904D4504D009F580394D457FF4C6
:10093C0075AF8A68C2B1012A0CBFC0F81080C0F82C
:10094C00148008226AE77545F3D06545F1D0DFF8CD
:10095C004490EBE7002261E7CA685FE7CA68083297
:10096C005CE7CA680C3259E7042257E70025A2E776
:10097C000125A0E702259EE700040140001002407B
:10098C00000801400000211000003110000032105E
:10099C0000001110000022100AB101617047090417
:1009AC00FBE70268536913F480630DD06FF4806326
:1009BC0053610423202203640023036380F83C303A
:1009CC0080F83D2001207047184670472DE9F84308
:1009DC00044617469946C1F307488EB22568B8F10C
:1009EC00010F0CBF6B69AB6936EA030314BF01201E
:1009FC00002008B9BDE8F8836B695A0512D52B683D
:100A0C00202243F400732B606FF480636B6104232A
:100A1C00236400230120236384F83C3084F83D20B8
:100A2C00BDE8F8837B1CD9D04FB900232022236367
:100A3C0084F83C3084F83D200320BDE8F883FFF7B0
:100A4C0057FEA0EB09008742C8D2EEE72DE9F84328
:100A5C00044690461F46089EC1F307498DB2236891
:100A6C00B9F1010F0CBF5B699B6935EA03030CBF3D
:100A7C0001230023434502D00020BDE8F8837B1CF2
:100A8C00EDD05FB900232022236384F83C3084F836
:100A9C003D20032084F83E30BDE8F883FFF728FEA4
:100AAC00801B8742DBD2EDE770B504460D46164637
:100ABC0023685B691B0601D5002070BD2046FFF73B
:100ACC0070FFA8B96A1CF3D065B9236C202243F0DF
:100ADC002003236400230320236384F83C3084F830
:100AEC003D2070BDFFF704FE801B8542E0D2ECE791
:100AFC00012070BD2DE9FF41154602689846136828
:100B0C000B9E43F4807313600F4600960A9B0022E1
:100B1C004FF001110446FFF799FF68B9236807F0FD
:100B2C00FE071F610A9A33461A492046FFF74EFF0B
:100B3C0030B1236C042B18D0032004B0BDE8F08135
:100B4C00236803905A690A9903929B69324603936E
:100B5C002046039BFFF7A8FF48B1236C042BEBD175
:100B6C002268136843F4007313600120E5E7B8F1C1
:100B7C00010F236802D1EDB21D61DEE72A0A1A616A
:100B8C000A9932462046FFF78FFF0028E5D12368EB
:100B9C00F1E700BF0200010070B504460D46164691
:100BAC002068436913F0400301D0002070BD4269F6
:100BBC00D2060BD56FF0100242612022236484F818
:100BCC003C302363012084F83D2070BD5DB9236C5B
:100BDC00032043F020032364202384F83D300023BA
:100BEC0084F83C3070BDFFF783FD801B8542D7D263
:100BFC00EDE770B504460D46164623685B695B0746
:100C0C0001D5002070BD2046FFF7CBFEA8B96A1CA9
:100C1C00F3D065B9236C202243F020032364002316
:100C2C000320236384F83C3084F83D2070BDFFF72B
:100C3C005FFD801B8542E0D2ECE7012070BD000017
:100C4C0038B5044608B9012038BD90F83D3003F0A2
:100C5C00FF021BB980F83C20FFF7BCFB2423226861
:100C6C0084F83D30136823F00103136000F086FE16
:100C7C0063682F4A934230D82E4A9042E3D92E4AC9
:100C8C002168B0FBF2F24A6001320A62284A01384C
:100C9C00934232D85B00B0FBF3F0431CC3F30B035D
:100CAC00042B38BF0423CB61226AE3690020134371
:100CBC000B60E268236913438B60A2696369134379
:100CCC00CB600B6843F001030B602023206484F895
:100CDC003D30206384F83E0038BD184A9042B2D9AA
:100CEC00154D4FF49672B0FBF5F521686A434D60D3
:100CFC004FF47A75B2FBF5F2C6E7A26852B903EB72
:100D0C004303B0FBF3F0431CC3F30B036BB143F48D
:100D1C000043C8E719225343B0FBF3F0431CC3F361
:100D2C000B0313B143F44043BDE70123BBE700BF02
:100D3C00A08601007F841E0040420F00FF083D008A
:100D4C002DE9FF4104461F460D469046FFF7D0FCA7
:100D5C0094F83D300646202B04D00225284604B0DA
:100D6C00BDE8F0810090192301225D492046FFF770
:100D7C006DFE0028F1D194F83C30012BEDD001230D
:100D8C0084F83C3023681A68D2075EBF1A6842F0B8
:100D9C0001021A601A6822F400621A60212284F897
:100DAC003D20102284F83E2000222264A2F58032DD
:100DBC006785E262628DC4F824802285E26A042A87
:100DCC0004D0012A02D012F5803F04D11A6842F4F3
:100DDC0080721A6002E0226B122AF7D000960A9BEE
:100DEC0000224FF001112046FFF730FE28BB23698B
:100DFC002268B3F5804F12D105F0FE05156133461C
:100E0C000A9A38492046FFF7E1FD0546A0B9236848
:100E1C0003905A6903929B690393039B50E0EB1177
:100E2C0003F0060343F0F00313612F4933460A9A8B
:100E3C002046FFF7CBFD48B1236C236C042B4FF0FD
:100E4C00000307D184F83C30012587E72368EDB215
:100E5C001D61D4E784F83C3003257FE732460A99BC
:100E6C002046FFF721FE40B1236C042BF4D12268FD
:100E7C00136843F400731360E6E7616A20684B1C47
:100E8C0063620B78228D0361638D013B9BB263859A
:100E9C004769531E9BB27F0723850AD54BB18B1C28
:100EAC0063624B78023A0361638D2285013B9BB2EE
:100EBC00638532460A992046FFF79BFE0028D3D162
:100ECC00238D002BCAD121680A6842F400720A6093
:100EDC00202284F83C3084F83D2084F83E303DE7F5
:100EEC000200100002000100080001002DE9F0438F
:100EFC00044689B098460D469146109FFFF7F8FBC3
:100F0C0094F83D300646202B04D00225284609B023
:100F1C00BDE8F083009019230122A2492046FFF777
:100F2C0095FD0028F1D194F83C30012BEDD0012334
:100F3C0084F83C3023681A68D2075EBF1A6842F006
:100F4C0001021A601A6822F400621A60222284F8E4
:100F5C003D20102284F83E2000222264A2F580322B
:100F6C00A4F82A80E262628DC4F824902285E26A99
:100F7C001968042A41F48061196004D0012A02D056
:100F8C0012F5803F04D11A6842F480721A6002E0B4
:100F9C00226B112AF7D000963B4600224FF001112C
:100FAC002046FFF753FD00284DD12369B3F5804F40
:100FBC00236839D145F00105EDB21D6133463A463F
:100FCC0079492046FFF702FD054600283AD1228DCB
:100FDC002368002A69D0012A7AD11A6822F4806227
:100FEC001A6072B6236804955A6904929A6904923D
:100FFC00049A1A6842F400721A6062B6DFF8B08183
:10100C00238D002B5BD0032B00F2D480012B7BD1E2
:10101C00324639462046FFF7BFFD002800F093808A
:10102C00236C202B16D13EE04FEAE51808F0060899
:10103C0048F0F0021A615D4933463A462046FFF704
:10104C00C5FC48B1236C236C042B4FF0000328D152
:10105C0084F83C30012559E72368EDB21D613A460E
:10106C00334651492046FFF7B1FC02460028E9D12E
:10107C002368079059692046079199690791079948
:10108C00196841F48071196000963B464FF00111CC
:10109C00FFF7DCFC0028D6D1226848F0F10313617D
:1010AC008CE784F83C30032530E703955A690392AA
:1010BC009A690392039A1A6842F400721A60202308
:1010CC0084F83D30002384F83E3084F83C301DE732
:1010DC00022A1A680ED142F400621A6072B62368B2
:1010EC0005955A6905929A690592059A1A6822F42F
:1010FC00806281E742F480621A6006955A69069212
:10110C009B690693069B79E7022B00963B464FF0B2
:10111C0000024146204624D1FFF798FC0028C2D19A
:10112C0072B623681A6842F400721A60626A1B690C
:10113C00511C61621370238D013B2385638D013B30
:10114C009BB2638562B6636A5A1C6262226812693A
:10115C001A70238D013B2385638D013B9BB2638504
:10116C004EE7FFF773FC024600289CD121680B6800
:10117C0023F480630B6072B6636A2046591C61626B
:10118C00216809691970238D0096013B2385638DB5
:10119C004146013B9BB263853B46FFF757FC002859
:1011AC00BFD080E70200100002000100080001001F
:1011BC0004000100324639462046FFF7EDFC0028BA
:1011CC007FF42EAF636A5A1C6262226812691A702D
:1011DC00238D2268013B2385638D013B9BB2638584
:1011EC0053695B077FF50CAF636A591C6162AEE70C
:1011FC0037B50024019490F83D40202C02D00220F9
:10120C0003B030BD46F2A815214C2468B4FBF5F5AB
:10121C0019246C430194019C651E01953CB9202353
:10122C00046380F83C4080F83D300320E8E7046814
:10123C00A569AD07EFD490F83C50012DDFD0012506
:10124C0080F83C502568ED075EBF256845F0010528
:10125C002560256825F400652560212580F83D5022
:10126C00102580F83E50002505644385094B4262E9
:10127C00C362438D41640385236843F48073236008
:10128C00636880F83C5043F4E06363602846B7E73A
:10129C00000000200000FFFF73B50024019490F8BB
:1012AC003D40069D202C02D0022002B070BD042DC2
:1012BC0038D0012D36D090F83C40012CF4D00124CC
:1012CC0080F83C4004682668F6075EBF266846F046
:1012DC0001062660266826F400662660222680F821
:1012EC003D60102680F83E60002606644385C5628A
:1012FC00438D41640385036B4262112B01D0036B58
:10130C003BB9236843F480632360236843F4807300
:10131C0023600023626880F83C3042F4E062626033
:10132C001846C2E746F2A8160B4C2468B4FBF6F636
:10133C00192474430194019C661E01963CB9202328
:10134C00046380F83C4080F83D300320ADE704682E
:10135C00A469A407EFD4AEE7000000202DE9F34701
:10136C0004469A46884691460C9EFFF7C1F994F8BC
:10137C003D300546202B03D0022002B0BDE8F0879B
:10138C000090192301223E492046FFF75FFB0028FD
:10139C00F2D194F83C30012BEED0012384F83C3090
:1013AC00236800271A684146D20758BF1A6820469E
:1013BC005CBF42F001021A601A6822F400621A60E3
:1013CC00212384F83D30402384F83E300A9B276467
:1013DC006362BDF82C30019563852A4B0096E3625D
:1013EC00638D4A4623855346FFF784FB00282AD099
:1013FC00236C84F83C70042B07D10120BDE7FFF768
:10140C0053FB20B1236C042B34D00320B5E7616A65
:10141C0027684B1C63620B78228D3B61638D501ED9
:10142C00013B9BB263857B6980B25B0720850AD543
:10143C0048B18B1C63624B78023A3B61638D228509
:10144C00013B9BB26385238D2A4631462046002BF7
:10145C00D5D1FFF7CEFB0028D4D12268136843F412
:10146C0000731360202384F83C0084F83D3084F82A
:10147C003E0082E72268136843F400731360BCE7F4
:10148C00020010000000FFFF03682DE9F341DB07A9
:10149C00054610D42B689F075ED42B68190700F102
:1014AC0095802B685A0700F1BF80EA69002A40F04A
:1014BC002D81002014E0904C636803F00C03042B86
:1014CC0007D0636803F00C03082B0CD16368DE03B0
:1014DC0009D523689C03DDD56B68002BDAD101207C
:1014EC0002B0BDE8F0816B68B3F5803F10D1236882
:1014FC0043F480332360FFF7FBF806462368980318
:10150C00C8D4FFF7F5F8801B6428F7D90320E7E768
:10151C009BB9236823F480332360236823F480234E
:10152C002360FFF7E5F8064623689903B2D5FFF769
:10153C00DFF8801B6428F7D9E8E7B3F5A02F236800
:10154C0003D143F480232360D1E723F48033236059
:10155C00236823F48023CDE7674C636813F00C0FEA
:10156C0007D0636803F00C03082B10D16368DA030F
:10157C000DD423689B0702D52B69012BAFD12368AF
:10158C006A6923F0F80343EAC203236085E72A69FA
:10159C005A4B6AB101221A60FFF7AAF80646236873
:1015AC009F07ECD4FFF7A4F8801B0228F7D9ADE70E
:1015BC001A60FFF79DF80646236898077FF56DAF14
:1015CC00FFF796F8801B0228F6D99FE7AA694A4CC8
:1015DC004B4BDAB101221A60FFF78AF80646636AB0
:1015EC009B070DD54FF4FA52464B1B68B3FBF2F335
:1015FC00019300BF019B5A1E0192002BF9D150E7B9
:10160C00FFF776F8801B0228E9D97FE71A60FFF70D
:10161C006FF80646636A9F077FF543AFFFF768F8DC
:10162C00801B0228F6D971E7334CE369D80024D427
:10163C000127E36943F08053E361E36903F08053CE
:10164C000093009B304E3368D90518D5EB68012BFD
:10165C0026D1236A43F001032362FFF749F841F2D4
:10166C0088368046236A9B073FD5002F3FF41DAF79
:10167C00E36923F08053E36117E70027E2E733685F
:10168C0043F480733360FFF733F880463368DA0530
:10169C00DCD4FFF72DF8A0EB08006428F6D935E769
:1016AC00ABB9236A41F2883823F001032362236A21
:1016BC0023F004032362FFF71BF80646236A9807FE
:1016CC00D3D5FFF715F8801B4045F7D91EE7052B3E
:1016DC00236A03D143F004032362BAE723F0010326
:1016EC002362236A23F00403B6E7FFF701F8A0EBAB
:1016FC000800B042B6D909E700100240000042428F
:10170C00800442420000002000700040224C6368BC
:10171C0003F00C03082B3FF4E2AE00231F4E022A09
:10172C0033602BD1FEF7E4FF0746236899011FD4E1
:10173C002B6AB3F5803F05D16268A96822F40032A8
:10174C000A436260696A62680B4322F474121343A1
:10175C00636001233360FEF7CBFF054623689A01D3
:10176C003FF5A7AEFEF7C4FF401B0228F6D9CDE625
:10177C00FEF7BEFFC01B0228D7D9C7E6FEF7B8FF9D
:10178C00054623689B017FF594AEFEF7B1FF401B25
:10179C000228F6D9BAE600BF0010024060004242AF
:1017AC0030B5194B87B002AC03F11005224618680E
:1017BC005968083303C2AB421446F7D101238DF8A4
:1017CC000430022311498DF805304B6803F00C02EC
:1017DC00082A17D1C3F3834206A80244DB0312F88C
:1017EC00102C0CD54B680A48C3F34043504306AA4F
:1017FC00134413F8143CB0FBF3F007B030BD0548AC
:10180C005043FAE70248F8E71C1C0008001002409D
:10181C0000127A0000093D00544A2DE9F04113688A
:10182C00054603F007038B420E462AD329688C0722
:10183C0034D4CA0747D44D4A136803F007039E42B9
:10184C00C0F082802A684A4C12F0040F40F0878066
:10185C00130706D563682A6923F4605343EAC2036D
:10186C006360FFF79DFF6368424AC3F30313D35CC5
:10187C00D840414B18600020FEF7F8FE0020BDE870
:10188C00F081136823F007030B431360136803F014
:10189C0007039942CAD00120BDE8F081344B11F006
:1018AC00040F1EBF5A6842F4E0625A60080742BF38
:1018BC005A6842F460525A605A68A86822F0F002E2
:1018CC0002435A60B5E76A68294C012A23681CD187
:1018DC0013F4003FDFD0636841F2883823F0030330
:1018EC0013436360FEF704FF6B680746012B14D1AA
:1018FC00636803F00C03042B9DD0FEF7F9FEC01BAC
:10190C004045F5D90320BDE8F081022A02D113F03D
:10191C00007FDFE713F0020FDCE7022B0FD16368C7
:10192C0003F00C03082B86D0FEF7E2FEC01B4045EB
:10193C00F5D9E7E7FEF7DCFEC01B4045E2D863684B
:10194C0013F00C0FF6D176E7136823F0070333433B
:10195C001360136803F007039E429CD172E763681F
:10196C00E96823F4E0630B43636071E700200240F5
:10197C00001002402C1C000800000020044B054AFB
:10198C005B68C3F30223D35C034A1068D8407047EA
:10199C00001002403C1C000800000020044B054ACB
:1019AC005B68C3F3C223D35C034A1068D84070470A
:1019BC00001002403C1C0008000000202DE9F047FC
:1019CC000568C2682B69016923F4405313432B61EA
:1019DC008368EA680B43416922F4B05222F00C028E
:1019EC000B431343EB606B69826923F4407313431D
:1019FC006B61404B81469D424FF0190446D1FFF775
:101A0C00CDFF04FB00F3D9F804604FF06408B60076
:101A1C00B3FBF6F3B3FBF8F31E01FFF7BFFF604314
:101A2C00D9F804309B00B0FBF3F7FFF7B7FF604326
:101A3C00D9F804309B00B0FBF3F3B3FBF8F308FBCD
:101A4C0013731B013233B3FBF8F303F0F007FFF70A
:101A5C00A5FF6043D9F804209200B0FBF2FAFFF71F
:101A6C009DFF6043D9F804309B00B0FBF3F3B3FB4C
:101A7C00F8F308FB13A31B013233B3FBF8F303F0A9
:101A8C000F033B433344AB60BDE8F087FFF776FFB1
:101A9C0004FB00F3D9F804604FF06408B600B3FB04
:101AAC00F6F3B3FBF8F31E01FFF768FF6043D9F8B8
:101ABC0004309B00B0FBF3F7FFF760FF6043D9F8ED
:101ACC0004309B00B0FBF3F3B3FBF8F308FB137388
:101ADC001B013233B3FBF8F303F0F007FFF74EFFB3
:101AEC006043D9F804209200B0FBF2FAFFF746FFEE
:101AFC00B7E700BF0038014010B5044640B390F87A
:101B0C00393003F0FF021BB980F83820FEF772FD64
:101B1C002423226884F83930D368204623F40053F8
:101B2C00D360FFF74BFF236800201A6922F4904220
:101B3C001A615A6922F02A025A61DA6842F4005298
:101B4C00DA602023E06384F8393084F83A3010BD31
:101B5C00012010BD002103E00B4B5B5843500431B6
:101B6C000A480B4B42189A42F6D30A4A02E0002369
:101B7C0042F8043B084B9A42F9D3FEF7F7FC00F00D
:101B8C000FF8FEF7A7FC70474C1C00080000002063
:101B9C000C0000200C0000204C010020FEE700008F
:101BAC0070B500250C4E0D4CA41BA410A54209D1F8
:101BBC0000F022F800250A4E0A4CA41BA410A542E2
:101BCC0005D170BD56F8253098470135EEE756F82B
:101BDC00253098470135F2E7441C0008441C0008E6
:101BEC00441C0008481C000803460244934200D1E0
:101BFC00704703F8011BF9E7F8B500BFF8BC08BC47
:101C0C009E467047F8B500BFF8BC08BC9E467047AE
:101C1C0002030405060708090A0B0C0D0E0F101021
:101C2C000000000000000000010203040607080980
:081C3C00000000000102030496
:041C44003101000862
:041C48000D01000882
:0C1C4C0000A24A0401000000100000008B
:0400000508001B6173
:00000001FF
