:020000040800F2
:100000000050002055290008951600089716000892
:10001000991600089B1600089D16000800000000B5
:100020000000000000000000000000009F16000813
:10003000A116000800000000A3160008A51600087D
:100040009D2900089D2900089D2900089D29000878
:100050009D2900089D2900089D2900089D29000868
:100060009D2900089D2900089D2900089D29000858
:100070009D2900089D2900089D2900089D29000848
:100080009D2900089D2900089D2900089D29000838
:100090009D2900089D2900089D2900089D29000828
:1000A0009D2900089D2900089D2900089D29000818
:1000B0009D2900089D2900089D2900089D29000808
:1000C0009D2900089D2900089D2900089D290008F8
:1000D0009D2900089D2900089D2900089D290008E8
:1000E0009D2900089D2900089D29000800000000A6
:1000F0000000000000000000000000000000000000
:0C01000000000000000000005FF808F1A3
:10010C0010B5054C237833B9044B13B10448AFF345
:10011C0000800123237010BD74000020000000003B
:10012C00082C000808B5034B1BB103490348AFF377
:10013C00008008BD0000000078000020082C00089A
:10014C0081F0004102E000BF83F0004330B54FEA7C
:10015C0041044FEA430594EA050F08BF90EA020FE9
:10016C001FBF54EA000C55EA020C7FEA645C7FEA7C
:10017C00655C00F0E2804FEA5454D4EB5555B8BF9F
:10018C006D420CDD2C4480EA020281EA030382EA10
:10019C00000083EA010180EA020281EA0303362DA2
:1001AC0088BF30BD11F0004F4FEA01314FF4801C75
:1001BC004CEA113102D0404261EB410113F0004F87
:1001CC004FEA03334CEA133302D0524263EB43033E
:1001DC0094EA050F00F0A780A4F10104D5F1200EDC
:1001EC000DDB02FA0EFC22FA05F2801841F1000137
:1001FC0003FA0EF2801843FA05F359410EE0A5F10B
:10020C0020050EF1200E012A03FA0EFC28BF4CF03B
:10021C00020C43FA05F3C01851EBE37101F00045F1
:10022C0007D54FF0000EDCF1000C7EEB00006EEBFE
:10023C000101B1F5801F1BD3B1F5001F0CD3490888
:10024C005FEA30004FEA3C0C04F101044FEA4452DF
:10025C0012F5800F80F09A80BCF1004F08BF5FEA66
:10026C00500C50F1000041EB045141EA050130BD46
:10027C005FEA4C0C404141EB010111F4801FA4F1E9
:10028C000104E9D191F0000F04BF01460020B1FA3E
:10029C0081F308BF2033A3F10B03B3F120020CDA76
:1002AC000C3208DD02F1140CC2F10C0201FA0CF054
:1002BC0021FA02F10CE002F11402D8BFC2F1200CB9
:1002CC0001FA02F120FA0CFCDCBF41EA0C0190406F
:1002DC00E41AA2BF01EB0451294330BD6FEA0404B8
:1002EC001F3C1CDA0C340EDC04F11404C4F12002A3
:1002FC0020FA04F001FA02F340EA030021FA04F3B5
:10030C0045EA030130BDC4F10C04C4F1200220FA0B
:10031C0002F001FA04F340EA0300294630BD21FA49
:10032C0004F0294630BD94F0000F83F4801306BF0F
:10033C0081F480110134013D4EE77FEA645C18BF03
:10034C007FEA655C29D094EA050F08BF90EA020F9A
:10035C0005D054EA000C04BF1946104630BD91EA92
:10036C00030F1EBF0021002030BD5FEA545C05D195
:10037C004000494128BF41F0004130BD14F58004D4
:10038C003CBF01F5801130BD01F0004545F0FE4148
:10039C0041F470014FF0000030BD7FEA645C1ABF7D
:1003AC00194610467FEA655C1CBF0B46024650EAB4
:1003BC00013406BF52EA033591EA030F41F40021E0
:1003CC0030BD00BF90F0000F04BF0021704730B566
:1003DC004FF4806404F132044FF000054FF000013B
:1003EC0050E700BF90F0000F04BF0021704730B5FC
:1003FC004FF4806404F1320410F0004548BF4042D1
:10040C004FF000013EE700BF42004FEAE2014FEA25
:10041C0031014FEA02701FBF12F07F4393F07F4F00
:10042C0081F06051704792F0000F14BF93F07F4F32
:10043C00704730B54FF4607401F0004521F0004175
:10044C0020E700BF50EA010208BF704730B54FF0FB
:10045C0000050AE050EA010208BF704730B511F000
:10046C00004502D5404261EB41014FF4806404F138
:10047C0032045FEA915C3FF4DCAE4FF003025FEABA
:10048C00DC0C18BF03325FEADC0C18BF033202EB42
:10049C00DC02C2F1200300FA03FC20FA02F001FA9C
:1004AC0003FE40EA0E0021FA02F11444C1E600BF3B
:1004BC0070B54FF0FF0C4CF4E06C1CEA11541DBFEE
:1004CC001CEA135594EA0C0F95EA0C0F00F0DEF8B9
:1004DC002C4481EA030621EA4C5123EA4C5350EA9E
:1004EC00013518BF52EA033541F4801143F48013EF
:1004FC0038D0A0FB02CE4FF00005E1FB02E506F080
:10050C000042E0FB03E54FF00006E1FB03569CF0D4
:10051C00000F18BF4EF0010EA4F1FF04B6F5007FDA
:10052C0064F5407404D25FEA4E0E6D4146EB06064C
:10053C0042EAC62141EA55514FEAC52040EA5E50D5
:10054C004FEACE2EB4F1FD0C88BFBCF5E06F1ED87F
:10055C00BEF1004F08BF5FEA500E50F1000041EBB6
:10056C00045170BD06F0004646EA010140EA020063
:10057C0081EA0301B4EB5C04C2BFD4EB0C0541EA85
:10058C00045170BD41F480114FF0000E013C00F39A
:10059C00AB8014F1360FDEBF002001F0004170BDBE
:1005AC00C4F10004203C35DA0C341BDC04F11404D7
:1005BC00C4F1200500FA05F320FA04F001FA05F263
:1005CC0040EA020001F0004221F0004110EBD37030
:1005DC0021FA04F642EB06015EEA430E08BF20EA5C
:1005EC00D37070BDC4F10C04C4F1200500FA04F3FF
:1005FC0020FA05F001FA04F240EA020001F0004191
:10060C0010EBD37041F100015EEA430E08BF20EA03
:10061C00D37070BDC4F1200500FA05F24EEA020E4B
:10062C0020FA04F301FA05F243EA020321FA04F07A
:10063C0001F0004121FA04F220EA020000EBD37031
:10064C005EEA430E08BF20EAD37070BD94F0000F31
:10065C000FD101F00046400041EB010111F4801F65
:10066C0008BF013CF7D041EA060195F0000F18BF16
:10067C00704703F00046520043EB030313F4801F52
:10068C0008BF013DF7D043EA0603704794EA0C0F0C
:10069C000CEA135518BF95EA0C0F0CD050EA410622
:1006AC0018BF52EA4306D1D181EA030101F000419F
:1006BC004FF0000070BD50EA410606BF10461946C7
:1006CC0052EA430619D094EA0C0F02D150EA0136D3
:1006DC0013D195EA0C0F05D152EA03361CBF104614
:1006EC0019460AD181EA030101F0004141F0FE41B3
:1006FC0041F470014FF0000070BD41F0FE4141F437
:10070C00780170BD70B54FF0FF0C4CF4E06C1CEA36
:10071C0011541DBF1CEA135594EA0C0F95EA0C0FEB
:10072C0000F0A7F8A4EB050481EA030E52EA0335A6
:10073C004FEA013100F088804FEA03334FF08055C7
:10074C0045EA131343EA12634FEA022245EA1115F4
:10075C0045EA10654FEA00260EF000419D4208BFA5
:10076C00964244F1FD0404F5407402D25B084FEA52
:10077C003202B61A65EB03055B084FEA32024FF4FE
:10078C0080104FF4002CB6EB020E75EB030E22BF5B
:10079C00B61A754640EA0C005B084FEA3202B6EB1B
:1007AC00020E75EB030E22BFB61A754640EA5C00CA
:1007BC005B084FEA3202B6EB020E75EB030E22BF5A
:1007CC00B61A754640EA9C005B084FEA3202B6EB5B
:1007DC00020E75EB030E22BFB61A754640EADC001A
:1007EC0055EA060E18D04FEA051545EA16754FEA7C
:1007FC0006164FEAC30343EA52734FEAC2025FEA9A
:10080C001C1CC0D111F4801F0BD141EA00014FF028
:10081C0000004FF0004CB6E711F4801F04BF0143F9
:10082C000020B4F1FD0C88BFBCF5E06F3FF6AFAE15
:10083C00B5EB030C04BFB6EB020C5FEA500C50F1A5
:10084C00000041EB045170BD0EF0004E4EEA113128
:10085C0014EB5C04C2BFD4EB0C0541EA045170BD2F
:10086C0041F480114FF0000E013C90E645EA060E73
:10087C008DE60CEA135594EA0C0F08BF95EA0C0FA1
:10088C003FF43BAF94EA0C0F0AD150EA01347FF4E9
:10089C0034AF95EA0C0F7FF425AF104619462CE7C0
:1008AC0095EA0C0F06D152EA03353FF4FDAE104623
:1008BC00194622E750EA410618BF52EA43067FF474
:1008CC00C5AE50EA41047FF40DAF52EA43057FF404
:1008DC00EBAE12E74FF0FF3C06E000BF4FF0010C0F
:1008EC0002E000BF4FF0010C4DF804CD4FEA410C73
:1008FC007FEA6C5C4FEA430C18BF7FEA6C5C1BD040
:10090C0001B050EA410C0CBF52EA430C91EA030FC0
:10091C0002BF90EA020F0020704710F1000F91EA1D
:10092C00030F58BF994208BF90422CBFD8176FEAEB
:10093C00E37040F0010070474FEA410C7FEA6C5CB9
:10094C0002D150EA013C07D14FEA430C7FEA6C5CC0
:10095C00D6D152EA033CD3D05DF8040B704700BFEC
:10096C008446104662468C461946634600E000BF3A
:10097C0001B5FFF7B7FF002848BF10F1000F01BD0C
:10098C004DF808EDFFF7F4FF0CBF012000205DF8D7
:10099C0008FB00BF4DF808EDFFF7EAFF34BF01205C
:1009AC0000205DF808FB00BF4DF808EDFFF7E0FFF5
:1009BC0094BF012000205DF808FB00BF4DF808ED46
:1009CC00FFF7CEFF94BF012000205DF808FB00BFAD
:1009DC004DF808EDFFF7C4FF34BF012000205DF88F
:1009EC0008FB00BF4FEA410C7FEA6C5C02D150EA75
:1009FC00013C0AD14FEA430C7FEA6C5C02D152EA0B
:100A0C00033C02D14FF0000070474FF001007047DB
:100A1C004FEA4102B2F1E04324BFB3F5001CDCF114
:100A2C00FE5C0DD901F0004C4FEAC0024CEA50704C
:100A3C00B2F1004F40EB830008BF20F0010070477B
:100A4C0011F0804F21D113F13872BCBF01F000407E
:100A5C00704741F480114FEA5252C2F11802C2F1B0
:100A6C00200C10FA0CF320FA02F018BF40F0010031
:100A7C004FEAC1234FEAD32303FA0CFC40EA0C00E3
:100A8C0023FA02F34FEA4303CCE77FEA625307D120
:100A9C0050EA01331EBF4FF0FE4040F44000704757
:100AAC0001F0004040F0FE4040F40000704700BFF1
:100ABC0080F0004002E000BF81F0004142001FBF07
:100ACC005FEA410392EA030F7FEA226C7FEA236C10
:100ADC006AD04FEA1262D2EB1363C1BFD218414005
:100AEC0048404140B8BF5B42192B88BF704710F09B
:100AFC00004F40F4000020F07F4018BF404211F03E
:100B0C00004F41F4000121F07F4118BF494292EAA5
:100B1C00030F3FD0A2F1010241FA03FC10EB0C00D1
:100B2C00C3F1200301FA03F100F0004302D549425E
:100B3C0060EB4000B0F5000F13D3B0F1807F06D30B
:100B4C0040084FEA310102F10102FE2A51D2B1F103
:100B5C00004F40EBC25008BF20F0010040EA0300F8
:100B6C007047490040EB000010F4000FA2F10102A5
:100B7C00EDD1B0FA80FCACF1080CB2EB0C0200FA2F
:100B8C000CF0AABF00EBC25052421843BCBFD0407D
:100B9C001843704792F0000F81F4000106BF80F4F7
:100BAC0000000132013BB5E74FEA41037FEA226CBA
:100BBC0018BF7FEA236C21D092EA030F04D092F085
:100BCC00000F08BF0846704790EA010F1CBF0020B9
:100BDC00704712F07F4F04D1400028BF40F0004016
:100BEC00704712F100723CBF00F50000704700F036
:100BFC00004343F0FE4040F4000070477FEA22625D
:100C0C0016BF08467FEA23630146420206BF5FEA2D
:100C1C00412390EA010F40F4800070474FF000032D
:100C2C0004E000BF10F0004348BF40425FEA000CF4
:100C3C0008BF704743F0964301464FF000001CE09C
:100C4C0050EA010208BF70474FF000030AE000BFF2
:100C5C0050EA010208BF704711F0004302D5404230
:100C6C0061EB41015FEA010C02BF844601460020A2
:100C7C0043F0B64308BFA3F18053A3F50003BCFABD
:100C8C008CF2083AA3EBC25310DB01FA02FC63446A
:100C9C0000FA02FCC2F12002BCF1004F20FA02F271
:100CAC0043EB020008BF20F00100704702F1200264
:100CBC0001FA02FCC2F1200250EA4C0021FA02F2C5
:100CCC0043EB020008BF20EADC7070474FF0FF0CCA
:100CDC001CEAD0521EBF1CEAD15392EA0C0F93EAC5
:100CEC000C0F6FD01A4480EA010C400218BF5FEA67
:100CFC0041211ED04FF0006343EA501043EA5111DA
:100D0C00A0FB01310CF00040B1F5000F3EBF4900D3
:100D1C0041EAD3715B0040EA010062F17F02FD2AD7
:100D2C001DD8B3F1004F40EBC25008BF20F00100BA
:100D3C00704790F0000F0CF0004C08BF49024CEAD1
:100D4C00502040EA51207F3AC2BFD2F1FF0340EA63
:100D5C00C250704740F400004FF00003013A5DDCD4
:100D6C0012F1190FDCBF00F000407047C2F1000215
:100D7C00410021FA02F1C2F1200200FA02FC5FEA02
:100D8C00310040F1000053EA4C0308BF20EADC704C
:100D9C00704792F0000F00F0004C02BF400010F4BE
:100DAC00000F013AF9D040EA0C0093F0000F01F06B
:100DBC00004C02BF490011F4000F013BF9D041EA8D
:100DCC000C018FE70CEAD15392EA0C0F18BF93EA8F
:100DDC000C0F0AD030F0004C18BF31F0004CD8D1B9
:100DEC0080EA010000F00040704790F0000F17BF40
:100DFC0090F0004F084691F0000F91F0004F14D086
:100E0C0092EA0C0F01D142020FD193EA0C0F03D1DD
:100E1C004B0218BF084608D180EA010000F00040E0
:100E2C0040F0FE4040F40000704740F0FE4040F4BB
:100E3C00400070474FF0FF0C1CEAD0521EBF1CEA5A
:100E4C00D15392EA0C0F93EA0C0F69D0A2EB030278
:100E5C0080EA010C49024FEA402037D04FF0805312
:100E6C0043EA111143EA10130CF000408B4238BFD7
:100E7C005B0042F17D024FF4000C8B4224BF5B1AE5
:100E8C0040EA0C00B3EB510F24BFA3EB510340EA33
:100E9C005C00B3EB910F24BFA3EB910340EA9C00E1
:100EAC00B3EBD10F24BFA3EBD10340EADC001B0151
:100EBC0018BF5FEA1C1CE0D1FD2A3FF650AF8B42F5
:100ECC0040EBC25008BF20F0010070470CF0004C02
:100EDC004CEA50207F32C2BFD2F1FF0340EAC2502D
:100EEC00704740F400004FF00003013A37E792F0EE
:100EFC00000F00F0004C02BF400010F4000F013A4C
:100F0C00F9D040EA0C0093F0000F01F0004C02BF46
:100F1C00490011F4000F013BF9D041EA0C0195E7AF
:100F2C000CEAD15392EA0C0F08D142027FF47DAF48
:100F3C0093EA0C0F7FF470AF084676E793EA0C0F38
:100F4C0004D14B023FF44CAF08466EE730F0004C36
:100F5C0018BF31F0004CCAD130F000427FF45CAFC6
:100F6C0031F000437FF43CAF5FE700BF4FEA400233
:100F7C00B2F1FE4F0FD34FF09E03B3EB12620DD9BB
:100F8C004FEA002343F0004310F0004F23FA02F025
:100F9C0018BF404270474FF00000704712F1610FCC
:100FAC0001D1420205D110F0004008BF6FF00040A3
:100FBC0070474FF0000070472DE9F74F0027DFF81E
:100FCC00F890DFF8F8B00F20642589F8007089F8E4
:100FDC0001708BF800708BF8017000F027FC4FF05B
:100FEC0011034FF0800A334CDFF8D4802246237073
:100FFC001C2102230095404684F801A000F0E6FE77
:10100C000F2000F013FC4FF0100301262246237032
:10101C001C21022300954046667000F0D7FE0F207D
:10102C0000F004FC4FF0110384F801A0DFF894A049
:10103C00224623701C2102230095504600F0C6FE68
:10104C000F2000F0F3FB4FF01003224623701C21FD
:10105C00022300955046667000F0B8FE0F2000F099
:10106C00E5FB072322462370009533461C2150468E
:10107C00677000F0ABFE334622461C2100954046BB
:10108C0000F0A4FE0A2000F0D1FB33464A4600953E
:10109C001C21404600F070FF009533465A461C2137
:1010AC00504600F069FF0F2003B0BDE8F04F00F090
:1010BC00BDBB00BF940000209A00002097000020C8
:1010CC0000010020540100202DE9F047041F0E46BA
:1010DC0025464FF0000A00F1080755F8040FFFF7FA
:1010EC0081F902460B46FFF7E3F9804650468946E4
:1010FC00FFF78AF902460B4640464946FFF726F8A9
:10110C00FFF786FCBD428246E7D1FFF77DF901F07F
:10111C006DFCFFF77DFC0746043E54F8040FFFF707
:10112C0081FD3946FFF786FEA54246F8040FF4D13F
:10113C003846BDE8F08700002DE9F34101254FF05A
:10114C0064080646154A164F164C15702B461C2182
:10115C00CDF80080384600F039FE284600F066FBDA
:10116C00224606231C21CDF80080384600F004FFEF
:10117C00284600F05BFB2278637843EA0223336055
:10118C00A278E37843EA022373602279637943EA15
:10119C000223B36002B0BDE8F08100BFE000002084
:1011AC0000010020DA0000202DE9F34101254FF069
:1011BC0064080646154A164F164C15702B461C2112
:1011CC00CDF80080384600F001FE284600F02EFBDA
:1011DC00224606231C21CDF80080384600F0CCFEB8
:1011EC00284600F023FB2278637843EA022333601D
:1011FC00A278E37843EA022373602279637943EAA5
:10120C000223B36002B0BDE8F08100BFE000002013
:10121C0054010020DA00002010B50C46FFF78CFFBB
:10122C002046BDE81040FFF7BFBF2DE9F84F05463B
:10123C000F46904600240A9EA2F10409A3F1040A69
:10124C0000F10C0BB44201DDBDE8F88F11D14B4617
:10125C00514608F108005A6892FBF4F243F8042F47
:10126C004A68984292FBF4F241F8042FF3D101340E
:10127C00E8E739462846FFF7CFFF2946CC46D64645
:10128C003A460B68B3F5004FC4BFA3F580330B602F
:10129C001368B3F5004FC4BFA3F58033136051F846
:1012AC00040BDCF80430594503444CF8043FDEF8D9
:1012BC00040052F8043B18444EF8040FE1D1D6E771
:1012CC002DE9F04107460E46002400254FF6FD7827
:1012DC00B44208DB3046FFF7A5FC01462846FFF771
:1012EC00A9FDBDE8F08157F82400431E434506D8FC
:1012FC00FFF798FC01462846FFF7E0FB0546013452
:10130C00E6E70000102210B588B00DEB02000021BA
:10131C0001F064FB1D4B1E4C9A69204642F01002F2
:10132C009A619A694FF4005102F010020092009AEF
:10133C009A6942F020029A619A6902F020020192A5
:10134C00019A9A6942F008029A619A6902F00802BD
:10135C000292029A9A6942F004029A619B690022F5
:10136C0003F004030393039B00F0AEFB4FF4005314
:10137C0004930123059300230693022304A920461A
:10138C00079300F0C1FA08B010BD00BF0010024076
:10139C000010014008B50C480C4BDFF834E04FF45A
:1013AC00804280E80840002302618360C36043618F
:1013BC008361C361036200F089FC18B1BDE8084089
:1013CC0000F03EB908BD00BF0001002000540040F1
:1013DC00801A060008B50C480C4BDFF834E04FF4CB
:1013EC00804280E80840002302618360C36043614F
:1013FC008361C361036200F069FC18B1BDE8084069
:10140C0000F01EB908BD00BF540100200058004078
:10141C00801A0600102210B5044688B00DEB0200AD
:10142C00002101F0DBFA2368214A93421ED1214CA2
:10143C0004A9A369204843F00803A361A36903F03E
:10144C0008030093009BC0230493122305930323EA
:10145C00079300F059FAE36943F40013E361E3697D
:10146C0003F400130193019B08B010BD134A93427F
:10147C00FAD1104C04A9A3690F4843F00803A361E7
:10148C00A36903F008030293029B4FF44063049397
:10149C00122305930323079300F036FAE36943F410
:1014AC008003E361E36903F480030393039BDBE7AD
:1014BC000054004000100240000C01400058004055
:1014CC0010B590B02822002106A801F087FA00215F
:1014DC00142201A801F082FA4FF480330122022475
:1014EC0007930E934FF4E01306A806920A920F93FB
:1014FC000D9400F0C3FE0F234FF480620193002380
:10150C00214601A8029403930492059301F07EF8FE
:10151C0010B010BD2DE9F34700F064F9FFF7D0FFD0
:10152C00FFF7F0FEFFF756FF00F0DEF8FFF732FF93
:10153C00FFF742FD6423354A00933549354B364855
:10154C00FFF773FE324E344F344D31463846FFF7B9
:10155C0063FE002330492E4ADFF8B0C0DFF8B4E058
:10156C0008685CF82340B0F5004FC4BFA0F580308C
:10157C0008601068B0F5004FC4BFA0F58030106053
:10158C000868001B41F8040B5EF823401068013317
:10159C00001B032B42F8040BE2D121493846FFF71C
:1015AC0093FDDFF894A01F49CAF800003046FFF7FE
:1015BC008BFD1D4B81461860DAF80000FFF7D6FC56
:1015CC00DFF87880D8F8004045F824004846FFF74B
:1015DC00CDFC164B142143F824000134132CC8BF46
:1015EC0000232846CCBFC8F80030C8F80040FFF7ED
:1015FC0067FE0F4B142118600C48FFF761FE0D4B72
:10160C001860012000F012F99FE700BFF4000020E1
:10161C00E8000020C00000209C00002000020020F8
:10162C00B4000020A8000020CC000020AC01002059
:10163C00FC010020A8010020D00000209000002018
:10164C00704700000E4B82B09A6942F001029A6119
:10165C009A6902F001020092009ADA6942F0805213
:10166C00DA61DB69074A03F080530193019B5368ED
:10167C0023F0E06343F00073536002B0704700BF87
:10168C0000100240000001407047FEE7FEE7FEE755
:10169C00FEE770477047704700F0B6B80F4B1A68FA
:1016AC0042F001021A6059680D4A0A405A601A68E1
:1016BC0022F0847222F480321A601A6822F480229A
:1016CC001A605A6822F4FE025A604FF41F029A60A4
:1016DC004FF00062034B9A60704700BF001002404D
:1016EC000000FFF800ED00E008B54FF480624FF405
:1016FC00E13E0A480A4B026180E808400C220023B4
:10170C0042618360C3608361C36101F0EFF818B17B
:10171C00BDE80840FFF794BF08BD00BF5002002091
:10172C000038014010B5044686B01022002102A8F2
:10173C0001F054F92268174B9A4228D103F558430B
:10174C009A6902A942F480429A619A69124802F499
:10175C0080420092009A9A6942F004029A619B6955
:10176C0003F004030193019B4FF4007302930223D3
:10177C0003930323059300F0C7F84FF4806302939F
:10178C00002302A904480393049300F0BDF806B0AB
:10179C0010BD00BF003801400008014038B50E4BA9
:1017AC00054618784FF47A73B3FBF0F30B4A1068C4
:1017BC00B0FBF3F000F092F8044658B90F2D09D89D
:1017CC00024629464FF0FF3000F054F8044B2046F7
:1017DC001D6038BD012038BD040000200000002031
:1017EC0008000020074A08B51368032043F01003D3
:1017FC00136000F02DF80020FFF7D0FFFFF722FF59
:10180C00002008BD00200240034A044B11681B78DD
:10181C000B441360704700BF9002002004000020AE
:10182C00014B1868704700BF9002002038B5044681
:10183C00FFF7F6FF0546631C1EBF044B1B78E4182C
:10184C00FFF7EEFF401B8442FAD838BD040000209D
:10185C00074A0002D36800F4E06023F4E0631B0441
:10186C001B0C43F0BF6343F400330343D360704756
:10187C0000ED00E0174B30B5DC68C4F30224C4F172
:10188C000703251D042B28BF0423062D4FF001054B
:10189C0098BF002405FA03F303F1FF3388BF033C20
:1018AC001940A14005FA04F4013C2240002842EA08
:1018BC0001024FEA0212AFBF00F16040064B00F08C
:1018CC000F00D2B2A5BFD2B200F561401A5480F815
:1018DC00002330BD00ED00E014ED00E00138B0F164
:1018EC00807F0AD2F021064B064A586082F82310FA
:1018FC000020072298601A6070470120704700BFD3
:10190C0010E000E000ED00E02DE9F74F0022164654
:10191C00654BDFF8A4E1DFF8A4C14FF001080C68B7
:10192C0008FA06F808EA0404A0457FD14D68122D88
:10193C0000F0AF8000F28880022D00F0A7807CD8E8
:10194C00002D00F08E80012D00F09E804FF00F09CD
:10195C00FF2C93BF824606F18045083DD0F800B0BD
:10196C0092BFB500D0F804B0AD0009FA05F82BEA27
:10197C00080802FA05F588BF00F1040A48EA0505D3
:10198C00CAF80050D1F804A01AF0805F4ED0474D31
:10199C00464FAD6926F0030845F00105BD61BD69F0
:1019AC0008F1804805F00105019508F5803806F02E
:1019BC00030B019D4FEA8B0BD8F8085009FA0BF971
:1019CC0025EA09093A4DA84268D005F58065A84278
:1019DC0066D005F58065A84264D005F58065A842FF
:1019EC000CBF0325042505FA0BF545EA0905C8F8D3
:1019FC0008501D681AF4803F14BF2543A5431D6091
:101A0C005D681AF4003F14BF2543A5435D609D68D3
:101A1C001AF4801F14BF2543A5439D60DD681AF49A
:101A2C00001F14BF2C4325EA0404DC600136102E81
:101A3C007FF473AF03B0BDE8F08F032D22D0112DCE
:101A4C0084D1CA68043281E71A4FBD4209D012D83A
:101A5C00DFF86C904D4504D009F580394D457FF485
:101A6C0075AF8A68C2B1012A0CBFC0F81080C0F8EB
:101A7C00148008226AE77545F3D06545F1D0DFF88C
:101A8C004490EBE7002261E7CA685FE7CA68083256
:101A9C005CE7CA680C3259E7042257E70025A2E735
:101AAC000125A0E702259EE700040140001002403A
:101ABC00000801400000211000003110000032101D
:101ACC0000001110000022100AB1016170470904D6
:101ADC00FBE70268536913F480630DD06FF48063E5
:101AEC0053610423202203640023036380F83C30F9
:101AFC0080F83D2001207047184670472DE9F843C7
:101B0C00044617469946C1F307488EB22568B8F1CA
:101B1C00010F0CBF6B69AB6936EA030314BF0120DC
:101B2C00002008B9BDE8F8836B695A0512D52B68FB
:101B3C00202243F400732B606FF480636B610423E9
:101B4C00236400230120236384F83C3084F83D2077
:101B5C00BDE8F8837B1CD9D04FB900232022236326
:101B6C0084F83C3084F83D200320BDE8F883FFF76F
:101B7C0057FEA0EB09008742C8D2EEE72DE9F843E7
:101B8C00044690461F46089EC1F307498DB2236850
:101B9C00B9F1010F0CBF5B699B6935EA03030CBFFC
:101BAC0001230023434502D00020BDE8F8837B1CB1
:101BBC00EDD05FB900232022236384F83C3084F8F5
:101BCC003D20032084F83E30BDE8F883FFF728FE63
:101BDC00801B8742DBD2EDE770B504460D461646F6
:101BEC0023685B691B0601D5002070BD2046FFF7FA
:101BFC0070FFA8B96A1CF3D065B9236C202243F09E
:101C0C002003236400230320236384F83C3084F8EE
:101C1C003D2070BDFFF704FE801B8542E0D2ECE74F
:101C2C00012070BD70B504460D4616462068436908
:101C3C0013F0400301D0002070BD4269D2060BD5D1
:101C4C006FF0100242612022236484F83C3023633D
:101C5C00012084F83D2070BD5DB9236C032043F056
:101C6C0020032364202384F83D30002384F83C3087
:101C7C0070BDFFF7D5FD801B8542D7D2EDE770B55F
:101C8C0004460D46164623685B695B0701D50020A8
:101C9C0070BD2046FFF71DFFA8B96A1CF3D065B9CB
:101CAC00236C202243F020032364002303202363AE
:101CBC0084F83C3084F83D2070BDFFF7B1FD801BEB
:101CCC008542E0D2ECE7012070BD000038B5044637
:101CDC0008B9012038BD90F83D3003F0FF021BB964
:101CEC0080F83C20FFF796FB2423226884F83D30D3
:101CFC00136823F00103136000F03AFD63682F4A68
:101D0C00934230D82E4A9042E3D92E4A2168B0FB38
:101D1C00F2F24A6001320A62284A0138934232D800
:101D2C005B00B0FBF3F0431CC3F30B03042B38BF75
:101D3C000423CB61226AE369002013430B60E26841
:101D4C00236913438B60A26963691343CB600B68EF
:101D5C0043F001030B602023206484F83D302063A2
:101D6C0084F83E0038BD184A9042B2D9154D4FF454
:101D7C009672B0FBF5F521686A434D604FF47A75A5
:101D8C00B2FBF5F2C6E7A26852B903EB4303B0FB12
:101D9C00F3F0431CC3F30B036BB143F40043C8E7EC
:101DAC0019225343B0FBF3F0431CC3F30B0313B1E1
:101DBC0043F44043BDE70123BBE700BFA08601000D
:101DCC007F841E0040420F00FF083D002DE9FF41BB
:101DDC0004461F460D469046FFF722FD94F83D3011
:101DEC000646202B04D00225284604B0BDE8F0811D
:101DFC000090192301225D492046FFF7BFFE002801
:101E0C00F1D194F83C30012BEDD0012384F83C3017
:101E1C0023681A68D2075EBF1A6842F001021A6082
:101E2C001A6822F400621A60212284F83D201022E4
:101E3C0084F83E2000222264A2F580326785E2629B
:101E4C00628DC4F824802285E26A042A04D0012A17
:101E5C0002D012F5803F04D11A6842F480721A60E5
:101E6C0002E0226B122AF7D000960A9B00224FF058
:101E7C0001112046FFF782FE28BB23692268B3F5C7
:101E8C00804F12D105F0FE05156133460A9A384988
:101E9C002046FFF733FE0546A0B9236803905A6924
:101EAC0003929B690393039B50E0EB1103F0060331
:101EBC0043F0F00313612F4933460A9A2046FFF78B
:101ECC001DFE48B1236C236C042B4FF0000307D18B
:101EDC0084F83C30012587E72368EDB21D61D4E717
:101EEC0084F83C3003257FE732460A992046FFF7F9
:101EFC0073FE40B1236C042BF4D12268136843F4B5
:101F0C0000731360E6E7616A20684B1C63620B7810
:101F1C00228D0361638D013B9BB263854769531E20
:101F2C009BB27F0723850AD54BB18B1C63624B7820
:101F3C00023A0361638D2285013B9BB26385324675
:101F4C000A992046FFF79BFE0028D3D1238D002B46
:101F5C00CAD121680A6842F400720A60202284F80F
:101F6C003C3084F83D2084F83E303DE70200100000
:101F7C0002000100080001002DE9F043044689B07D
:101F8C0098460D469146109FFFF74AFC94F83D3059
:101F9C000646202B04D00225284609B0BDE8F08364
:101FAC00009019230122A2492046FFF7E7FD0028E3
:101FBC00F1D194F83C30012BEDD0012384F83C3066
:101FCC0023681A68D2075EBF1A6842F001021A60D1
:101FDC001A6822F400621A60222284F83D20102232
:101FEC0084F83E2000222264A2F58032A4F82A80D4
:101FFC00E262628DC4F824902285E26A1968042A90
:10200C0041F48061196004D0012A02D012F5803F9E
:10201C0004D11A6842F480721A6002E0226B112A11
:10202C00F7D000963B4600224FF001112046FFF7F7
:10203C00A5FD00284DD12369B3F5804F236839D114
:10204C0045F00105EDB21D6133463A46794920460B
:10205C00FFF754FD054600283AD1228D2368002A4B
:10206C0069D0012A7AD11A6822F480621A6072B699
:10207C00236804955A6904929A690492049A1A681E
:10208C0042F400721A6062B6DFF8B081238D002B27
:10209C005BD0032B00F2D480012B7BD13246394626
:1020AC002046FFF7BFFD002800F09380236C202B07
:1020BC0016D13EE04FEAE51808F0060848F0F002A9
:1020CC001A615D4933463A462046FFF717FD48B181
:1020DC00236C236C042B4FF0000328D184F83C3084
:1020EC00012559E72368EDB21D613A463346514943
:1020FC002046FFF703FD02460028E9D1236807902C
:10210C00596920460791996907910799196841F413
:10211C008071196000963B464FF00111FFF72EFDC0
:10212C000028D6D1226848F0F10313618CE784F8BB
:10213C003C30032530E703955A6903929A69039260
:10214C00039A1A6842F400721A60202384F83D3016
:10215C00002384F83E3084F83C301DE7022A1A68CC
:10216C000ED142F400621A6072B6236805955A6962
:10217C0005929A690592059A1A6822F4806281E7A1
:10218C0042F480621A6006955A6906929B6906931E
:10219C00069B79E7022B00963B464FF00002414626
:1021AC00204624D1FFF7EAFC0028C2D172B623687E
:1021BC001A6842F400721A60626A1B69511C6162EF
:1021CC001370238D013B2385638D013B9BB263858B
:1021DC0062B6636A5A1C6262226812691A70238D95
:1021EC00013B2385638D013B9BB263854EE7FFF773
:1021FC00C5FC024600289CD121680B6823F480633F
:10220C000B6072B6636A2046591C616221680969C9
:10221C001970238D0096013B2385638D4146013B4C
:10222C009BB263853B46FFF7A9FC0028BFD080E733
:10223C00020010000200010008000100040001006F
:10224C00324639462046FFF7EDFC00287FF42EAFCE
:10225C00636A5A1C6262226812691A70238D2268A2
:10226C00013B2385638D013B9BB2638553695B07FF
:10227C007FF50CAF636A591C6162AEE703682DE908
:10228C00F341DB07054610D42B689F075ED42B68FF
:10229C00190700F195802B685A0700F1BF80EA6995
:1022AC00002A40F02D81002014E0904C636803F06C
:1022BC000C03042B07D0636803F00C03082B0CD120
:1022CC006368DE0309D523689C03DDD56B68002B9E
:1022DC00DAD1012002B0BDE8F0816B68B3F5803F24
:1022EC0010D1236843F480332360FFF799FA064634
:1022FC0023689803C8D4FFF793FA801B6428F7D996
:10230C000320E7E79BB9236823F480332360236819
:10231C0023F480232360FFF783FA0646236899038E
:10232C00B2D5FFF77DFA801B6428F7D9E8E7B3F53F
:10233C00A02F236803D143F480232360D1E723F437
:10234C0080332360236823F48023CDE7674C6368D4
:10235C0013F00C0F07D0636803F00C03082B10D19B
:10236C006368DA030DD423689B0702D52B69012B14
:10237C00AFD123686A6923F0F80343EAC2032360F0
:10238C0085E72A695A4B6AB101221A60FFF748FAAD
:10239C00064623689F07ECD4FFF742FA801B0228FD
:1023AC00F7D9ADE71A60FFF73BFA064623689807A2
:1023BC007FF56DAFFFF734FA801B0228F6D99FE743
:1023CC00AA694A4C4B4BDAB101221A60FFF728FA82
:1023DC000646636A9B070DD54FF4FA52464B1B68B1
:1023EC00B3FBF2F3019300BF019B5A1E0192002B29
:1023FC00F9D150E7FFF714FA801B0228E9D97FE7DF
:10240C001A60FFF70DFA0646636A9F077FF543AF24
:10241C00FFF706FA801B0228F6D971E7334CE36903
:10242C00D80024D40127E36943F08053E361E369C6
:10243C0003F080530093009B304E3368D90518D5B8
:10244C00EB68012B26D1236A43F001032362FFF7CB
:10245C00E7F941F288368046236A9B073FD5002F67
:10246C003FF41DAFE36923F08053E36117E70027C6
:10247C00E2E7336843F480733360FFF7D1F98046A9
:10248C003368DA05DCD4FFF7CBF9A0EB080064283D
:10249C00F6D935E7ABB9236A41F2883823F001034A
:1024AC002362236A23F004032362FFF7B9F906467B
:1024BC00236A9807D3D5FFF7B3F9801B4045F7D9AA
:1024CC001EE7052B236A03D143F004032362BAE70A
:1024DC0023F001032362236A23F00403B6E7FFF71A
:1024EC009FF9A0EB0800B042B6D909E700100240F2
:1024FC000000424280044242000000200070004074
:10250C00224C636803F00C03082B3FF4E2AE00236B
:10251C001F4E022A33602BD1FFF782F9074623683E
:10252C0099011FD42B6AB3F5803F05D16268A96865
:10253C0022F400320A436260696A62680B4322F437
:10254C0074121343636001233360FFF769F9054686
:10255C0023689A013FF5A7AEFFF762F9401B0228EA
:10256C00F6D9CDE6FFF75CF9C01B0228D7D9C7E630
:10257C00FFF756F9054623689B017FF594AEFFF7EC
:10258C004FF9401B0228F6D9BAE600BF00100240F2
:10259C006000424230B5194B87B002AC03F1100514
:1025AC00224618685968083303C2AB421446F7D167
:1025BC0001238DF80430022311498DF805304B6846
:1025CC0003F00C02082A17D1C3F3834206A8024475
:1025DC00DB0312F8102C0CD54B680A48C3F34043AC
:1025EC00504306AA134413F8143CB0FBF3F007B0A5
:1025FC0030BD05485043FAE70248F8E7202C0008A4
:10260C000010024000127A0000093D00544A2DE9E6
:10261C00F0411368054603F007038B420E462AD39C
:10262C0029688C0734D4CA0747D44D4A136803F081
:10263C0007039E42C0F082802A684A4C12F0040FB5
:10264C0040F08780130706D563682A6923F460532A
:10265C0043EAC2036360FFF79DFF6368424AC3F31A
:10266C000313D35CD840414B18600020FFF796F859
:10267C000020BDE8F081136823F007030B431360BF
:10268C00136803F007039942CAD00120BDE8F0811A
:10269C00344B11F0040F1EBF5A6842F4E0625A60CA
:1026AC00080742BF5A6842F460525A605A68A868D8
:1026BC0022F0F00202435A60B5E76A68294C012AFD
:1026CC0023681CD113F4003FDFD0636841F28838D3
:1026DC0023F0030313436360FFF7A2F86B6807460C
:1026EC00012B14D1636803F00C03042B9DD0FFF76E
:1026FC0097F8C01B4045F5D90320BDE8F081022AAC
:10270C0002D113F0007FDFE713F0020FDCE7022B9E
:10271C000FD1636803F00C03082B86D0FFF780F809
:10272C00C01B4045F5D9E7E7FFF77AF8C01B4045D9
:10273C00E2D8636813F00C0FF6D176E7136823F038
:10274C00070333431360136803F007039E429CD1C5
:10275C0072E76368E96823F4E0630B43636071E735
:10276C000020024000100240302C00080000002025
:10277C00044B054A5B68C3F30223D35C034A10681D
:10278C00D840704700100240402C00080000002088
:10279C00044B054A5B68C3F3C223D35C034A10683D
:1027AC00D840704700100240402C00080000002068
:1027BC002DE9F0470568C2682B69016923F4405381
:1027CC0013432B618368EA680B43416922F4B052CE
:1027DC0022F00C020B431343EB606B69826923F408
:1027EC00407313436B61404B81469D424FF019047B
:1027FC0046D1FFF7CDFF04FB00F3D9F804604FF08E
:10280C006408B600B3FBF6F3B3FBF8F31E01FFF755
:10281C00BFFF6043D9F804309B00B0FBF3F7FFF720
:10282C00B7FF6043D9F804309B00B0FBF3F3B3FB64
:10283C00F8F308FB13731B013233B3FBF8F303F00B
:10284C00F007FFF7A5FF6043D9F804209200B0FB16
:10285C00F2FAFFF79DFF6043D9F804309B00B0FB00
:10286C00F3F3B3FBF8F308FB13A31B013233B3FBF5
:10287C00F8F303F00F033B433344AB60BDE8F08740
:10288C00FFF776FF04FB00F3D9F804604FF06408FF
:10289C00B600B3FBF6F3B3FBF8F31E01FFF768FFCA
:1028AC006043D9F804309B00B0FBF3F7FFF760FFEF
:1028BC006043D9F804309B00B0FBF3F3B3FBF8F39F
:1028CC0008FB13731B013233B3FBF8F303F0F0076F
:1028DC00FFF74EFF6043D9F804209200B0FBF2FAE8
:1028EC00FFF746FFB7E700BF0038014010B50446BC
:1028FC0040B390F8393003F0FF021BB980F8382050
:10290C00FEF710FF2423226884F83930D368204660
:10291C0023F40053D360FFF74BFF236800201A69A0
:10292C0022F490421A615A6922F02A025A61DA683A
:10293C0042F40052DA602023E06384F8393084F8E2
:10294C003A3010BD012010BD002103E00B4B5B5849
:10295C00435004310A480B4B42189A42F6D30A4AA8
:10296C0002E0002342F8043B084B9A42F9D3FEF7ED
:10297C0095FE00F00FF8FEF7CDFD7047582C0008BF
:10298C00000000207400002074000020940200203D
:10299C00FEE7000070B500250C4E0D4CA41BA410D6
:1029AC00A54209D100F02AF900250A4E0A4CA41BB5
:1029BC00A410A54205D170BD56F8253098470135B5
:1029CC00EEE756F8253098470135F2E7502C000811
:1029DC00502C0008502C0008542C000803460244CC
:1029EC00934200D1704703F8011BF9E72DE9F04F32
:1029FC008BB004460D4600F04DF8244B804693F9FD
:102A0C0000A08946BAF1FF3F2BD022462B46204628
:102A1C002946FDF7E7FF834618BB00260027324600
:102A2C003B4620462946FDF7B5FFD0B10123009364
:102A3C00174BCDF820B00193CDE90445CDE9024503
:102A4C00BAF1000F12D1CDE90667684600F0CEF856
:102A5C00B8B1089B1BB100F0CBF8089B0360DDE913
:102A6C000689404649460BB0BDE8F08F32463B46DE
:102A7C0030463946FDF746FEBAF1020FCDE90601A4
:102A8C00E3D100F0B5F821230360E2E770000020E9
:102A9C00482C00082DE9F041DFF84CE106463EEAEF
:102AAC00010E0D4607460A460C4603460FD1024658
:102ABC000B46FDF7FDFC02460B4630462946FDF75A
:102ACC0045FB06460D4630462946BDE8F0810029F7
:102ADC000EDC21F0004E5EEA0707F4D041B102464D
:102AEC000B46FDF731FB02460B46FDF70BFEE8E704
:102AFC0012150CD1002C6ED00021E6026FD5481EA9
:102B0C00121AC1F1200023FA00F004438B40A2F208
:102B1C00FF32D5074FF00005C4F3130444F48014BE
:102B2C0042BF640004EBD3745B0004EBD371501010
:102B3C00214416222C464FF400165B00A7198F4235
:102B4C00DEBFC91BBC19AD194900013A01EBD371A9
:102B5C004FEA56064FEA4303F0D14FF0200E94464D
:102B6C004FF00046A14206EB0C0702DC12D19F424B
:102B7C0010D8002F07EB060C34DABCF1000F31DB58
:102B8C0004F10108091B44469F4288BF01F1FF3143
:102B9C00DB1B324401EBD377BEF1010E39444FEA13
:102BAC0043034FEA5606DDD10B4306D0541C0BBF32
:102BBC0072460132013522F001026B105208E9070E
:102BCC0003F17F5303F5001348BF42F0004203EBBF
:102BDC000055164677E7DC0A153A5B058AE7640070
:102BEC0001318AE7A046CDE70000F07F0020704756
:102BFC00014B1868704700BF0C000020F8B500BFEF
:102C0C00F8BC08BC9E467047F8B500BFF8BC08BCC1
:042C1C009E46704719
:102C200002030405060708090A0B0C0D0E0F10100D
:102C3000000000000000000001020304060708096C
:102C400000000000010203047371727400000000B0
:042C50003101000846
:042C54000D01000866
:102C580000A24A040100000010000000100000203B
:102C6800000000000000000000000000000000005C
:102C7800000000000000000000000000000000004C
:102C8800000000000000000000000000000000003C
:102C9800000000000000000000000000000000002C
:102CA800000000000000000000000000000000001C
:102CB800000000000000000000000000000000000C
:042CC8000100000007
:040000050800295571
:00000001FF
