:020000040800F2
:1000000000500020C92B0008ED140008EF14000870
:10001000F1140008F3140008F514000800000000B3
:10002000000000000000000000000000F7140008BD
:10003000F914000800000000FB140008FD1400087B
:10004000112C0008112C0008112C0008112C00089C
:10005000112C0008112C0008112C0008112C00088C
:10006000112C0008112C0008112C0008112C00087C
:10007000112C0008112C0008112C0008112C00086C
:10008000112C0008112C0008112C0008112C00085C
:10009000112C0008112C0008112C0008112C00084C
:1000A000112C0008112C0008112C0008112C00083C
:1000B000112C0008112C0008112C0008112C00082C
:1000C000112C0008112C0008112C0008112C00081C
:1000D000112C0008112C0008112C0008112C00080C
:1000E000112C0008112C0008112C00080000000041
:1000F0000000000000000000000000000000000000
:0C01000000000000000000005FF808F1A3
:10010C0010B5054C237833B9044B13B10448AFF345
:10011C0000800123237010BD74000020000000003B
:10012C007C2E000808B5034B1BB103490348AFF301
:10013C00008008BD00000000780000207C2E000824
:10014C0081F0004102E000BF83F0004330B54FEA7C
:10015C0041044FEA430594EA050F08BF90EA020FE9
:10016C001FBF54EA000C55EA020C7FEA645C7FEA7C
:10017C00655C00F0E2804FEA5454D4EB5555B8BF9F
:10018C006D420CDD2C4480EA020281EA030382EA10
:10019C00000083EA010180EA020281EA0303362DA2
:1001AC0088BF30BD11F0004F4FEA01314FF4801C75
:1001BC004CEA113102D0404261EB410113F0004F87
:1001CC004FEA03334CEA133302D0524263EB43033E
:1001DC0094EA050F00F0A780A4F10104D5F1200EDC
:1001EC000DDB02FA0EFC22FA05F2801841F1000137
:1001FC0003FA0EF2801843FA05F359410EE0A5F10B
:10020C0020050EF1200E012A03FA0EFC28BF4CF03B
:10021C00020C43FA05F3C01851EBE37101F00045F1
:10022C0007D54FF0000EDCF1000C7EEB00006EEBFE
:10023C000101B1F5801F1BD3B1F5001F0CD3490888
:10024C005FEA30004FEA3C0C04F101044FEA4452DF
:10025C0012F5800F80F09A80BCF1004F08BF5FEA66
:10026C00500C50F1000041EB045141EA050130BD46
:10027C005FEA4C0C404141EB010111F4801FA4F1E9
:10028C000104E9D191F0000F04BF01460020B1FA3E
:10029C0081F308BF2033A3F10B03B3F120020CDA76
:1002AC000C3208DD02F1140CC2F10C0201FA0CF054
:1002BC0021FA02F10CE002F11402D8BFC2F1200CB9
:1002CC0001FA02F120FA0CFCDCBF41EA0C0190406F
:1002DC00E41AA2BF01EB0451294330BD6FEA0404B8
:1002EC001F3C1CDA0C340EDC04F11404C4F12002A3
:1002FC0020FA04F001FA02F340EA030021FA04F3B5
:10030C0045EA030130BDC4F10C04C4F1200220FA0B
:10031C0002F001FA04F340EA0300294630BD21FA49
:10032C0004F0294630BD94F0000F83F4801306BF0F
:10033C0081F480110134013D4EE77FEA645C18BF03
:10034C007FEA655C29D094EA050F08BF90EA020F9A
:10035C0005D054EA000C04BF1946104630BD91EA92
:10036C00030F1EBF0021002030BD5FEA545C05D195
:10037C004000494128BF41F0004130BD14F58004D4
:10038C003CBF01F5801130BD01F0004545F0FE4148
:10039C0041F470014FF0000030BD7FEA645C1ABF7D
:1003AC00194610467FEA655C1CBF0B46024650EAB4
:1003BC00013406BF52EA033591EA030F41F40021E0
:1003CC0030BD00BF90F0000F04BF0021704730B566
:1003DC004FF4806404F132044FF000054FF000013B
:1003EC0050E700BF90F0000F04BF0021704730B5FC
:1003FC004FF4806404F1320410F0004548BF4042D1
:10040C004FF000013EE700BF42004FEAE2014FEA25
:10041C0031014FEA02701FBF12F07F4393F07F4F00
:10042C0081F06051704792F0000F14BF93F07F4F32
:10043C00704730B54FF4607401F0004521F0004175
:10044C0020E700BF50EA010208BF704730B54FF0FB
:10045C0000050AE050EA010208BF704730B511F000
:10046C00004502D5404261EB41014FF4806404F138
:10047C0032045FEA915C3FF4DCAE4FF003025FEABA
:10048C00DC0C18BF03325FEADC0C18BF033202EB42
:10049C00DC02C2F1200300FA03FC20FA02F001FA9C
:1004AC0003FE40EA0E0021FA02F11444C1E600BF3B
:1004BC0070B54FF0FF0C4CF4E06C1CEA11541DBFEE
:1004CC001CEA135594EA0C0F95EA0C0F00F0DEF8B9
:1004DC002C4481EA030621EA4C5123EA4C5350EA9E
:1004EC00013518BF52EA033541F4801143F48013EF
:1004FC0038D0A0FB02CE4FF00005E1FB02E506F080
:10050C000042E0FB03E54FF00006E1FB03569CF0D4
:10051C00000F18BF4EF0010EA4F1FF04B6F5007FDA
:10052C0064F5407404D25FEA4E0E6D4146EB06064C
:10053C0042EAC62141EA55514FEAC52040EA5E50D5
:10054C004FEACE2EB4F1FD0C88BFBCF5E06F1ED87F
:10055C00BEF1004F08BF5FEA500E50F1000041EBB6
:10056C00045170BD06F0004646EA010140EA020063
:10057C0081EA0301B4EB5C04C2BFD4EB0C0541EA85
:10058C00045170BD41F480114FF0000E013C00F39A
:10059C00AB8014F1360FDEBF002001F0004170BDBE
:1005AC00C4F10004203C35DA0C341BDC04F11404D7
:1005BC00C4F1200500FA05F320FA04F001FA05F263
:1005CC0040EA020001F0004221F0004110EBD37030
:1005DC0021FA04F642EB06015EEA430E08BF20EA5C
:1005EC00D37070BDC4F10C04C4F1200500FA04F3FF
:1005FC0020FA05F001FA04F240EA020001F0004191
:10060C0010EBD37041F100015EEA430E08BF20EA03
:10061C00D37070BDC4F1200500FA05F24EEA020E4B
:10062C0020FA04F301FA05F243EA020321FA04F07A
:10063C0001F0004121FA04F220EA020000EBD37031
:10064C005EEA430E08BF20EAD37070BD94F0000F31
:10065C000FD101F00046400041EB010111F4801F65
:10066C0008BF013CF7D041EA060195F0000F18BF16
:10067C00704703F00046520043EB030313F4801F52
:10068C0008BF013DF7D043EA0603704794EA0C0F0C
:10069C000CEA135518BF95EA0C0F0CD050EA410622
:1006AC0018BF52EA4306D1D181EA030101F000419F
:1006BC004FF0000070BD50EA410606BF10461946C7
:1006CC0052EA430619D094EA0C0F02D150EA0136D3
:1006DC0013D195EA0C0F05D152EA03361CBF104614
:1006EC0019460AD181EA030101F0004141F0FE41B3
:1006FC0041F470014FF0000070BD41F0FE4141F437
:10070C00780170BD70B54FF0FF0C4CF4E06C1CEA36
:10071C0011541DBF1CEA135594EA0C0F95EA0C0FEB
:10072C0000F0A7F8A4EB050481EA030E52EA0335A6
:10073C004FEA013100F088804FEA03334FF08055C7
:10074C0045EA131343EA12634FEA022245EA1115F4
:10075C0045EA10654FEA00260EF000419D4208BFA5
:10076C00964244F1FD0404F5407402D25B084FEA52
:10077C003202B61A65EB03055B084FEA32024FF4FE
:10078C0080104FF4002CB6EB020E75EB030E22BF5B
:10079C00B61A754640EA0C005B084FEA3202B6EB1B
:1007AC00020E75EB030E22BFB61A754640EA5C00CA
:1007BC005B084FEA3202B6EB020E75EB030E22BF5A
:1007CC00B61A754640EA9C005B084FEA3202B6EB5B
:1007DC00020E75EB030E22BFB61A754640EADC001A
:1007EC0055EA060E18D04FEA051545EA16754FEA7C
:1007FC0006164FEAC30343EA52734FEAC2025FEA9A
:10080C001C1CC0D111F4801F0BD141EA00014FF028
:10081C0000004FF0004CB6E711F4801F04BF0143F9
:10082C000020B4F1FD0C88BFBCF5E06F3FF6AFAE15
:10083C00B5EB030C04BFB6EB020C5FEA500C50F1A5
:10084C00000041EB045170BD0EF0004E4EEA113128
:10085C0014EB5C04C2BFD4EB0C0541EA045170BD2F
:10086C0041F480114FF0000E013C90E645EA060E73
:10087C008DE60CEA135594EA0C0F08BF95EA0C0FA1
:10088C003FF43BAF94EA0C0F0AD150EA01347FF4E9
:10089C0034AF95EA0C0F7FF425AF104619462CE7C0
:1008AC0095EA0C0F06D152EA03353FF4FDAE104623
:1008BC00194622E750EA410618BF52EA43067FF474
:1008CC00C5AE50EA41047FF40DAF52EA43057FF404
:1008DC00EBAE12E74FF0FF3C06E000BF4FF0010C0F
:1008EC0002E000BF4FF0010C4DF804CD4FEA410C73
:1008FC007FEA6C5C4FEA430C18BF7FEA6C5C1BD040
:10090C0001B050EA410C0CBF52EA430C91EA030FC0
:10091C0002BF90EA020F0020704710F1000F91EA1D
:10092C00030F58BF994208BF90422CBFD8176FEAEB
:10093C00E37040F0010070474FEA410C7FEA6C5CB9
:10094C0002D150EA013C07D14FEA430C7FEA6C5CC0
:10095C00D6D152EA033CD3D05DF8040B704700BFEC
:10096C008446104662468C461946634600E000BF3A
:10097C0001B5FFF7B7FF002848BF10F1000F01BD0C
:10098C004DF808EDFFF7F4FF0CBF012000205DF8D7
:10099C0008FB00BF4DF808EDFFF7EAFF34BF01205C
:1009AC0000205DF808FB00BF4DF808EDFFF7E0FFF5
:1009BC0094BF012000205DF808FB00BF4DF808ED46
:1009CC00FFF7CEFF94BF012000205DF808FB00BFAD
:1009DC004DF808EDFFF7C4FF34BF012000205DF88F
:1009EC0008FB00BF4FEA410C7FEA6C5C02D150EA75
:1009FC00013C0AD14FEA430C7FEA6C5C02D152EA0B
:100A0C00033C02D14FF0000070474FF001007047DB
:100A1C004FEA4102B2F1E04324BFB3F5001CDCF114
:100A2C00FE5C0DD901F0004C4FEAC0024CEA50704C
:100A3C00B2F1004F40EB830008BF20F0010070477B
:100A4C0011F0804F21D113F13872BCBF01F000407E
:100A5C00704741F480114FEA5252C2F11802C2F1B0
:100A6C00200C10FA0CF320FA02F018BF40F0010031
:100A7C004FEAC1234FEAD32303FA0CFC40EA0C00E3
:100A8C0023FA02F34FEA4303CCE77FEA625307D120
:100A9C0050EA01331EBF4FF0FE4040F44000704757
:100AAC0001F0004040F0FE4040F40000704700BFF1
:100ABC0080F0004002E000BF81F0004142001FBF07
:100ACC005FEA410392EA030F7FEA226C7FEA236C10
:100ADC006AD04FEA1262D2EB1363C1BFD218414005
:100AEC0048404140B8BF5B42192B88BF704710F09B
:100AFC00004F40F4000020F07F4018BF404211F03E
:100B0C00004F41F4000121F07F4118BF494292EAA5
:100B1C00030F3FD0A2F1010241FA03FC10EB0C00D1
:100B2C00C3F1200301FA03F100F0004302D549425E
:100B3C0060EB4000B0F5000F13D3B0F1807F06D30B
:100B4C0040084FEA310102F10102FE2A51D2B1F103
:100B5C00004F40EBC25008BF20F0010040EA0300F8
:100B6C007047490040EB000010F4000FA2F10102A5
:100B7C00EDD1B0FA80FCACF1080CB2EB0C0200FA2F
:100B8C000CF0AABF00EBC25052421843BCBFD0407D
:100B9C001843704792F0000F81F4000106BF80F4F7
:100BAC0000000132013BB5E74FEA41037FEA226CBA
:100BBC0018BF7FEA236C21D092EA030F04D092F085
:100BCC00000F08BF0846704790EA010F1CBF0020B9
:100BDC00704712F07F4F04D1400028BF40F0004016
:100BEC00704712F100723CBF00F50000704700F036
:100BFC00004343F0FE4040F4000070477FEA22625D
:100C0C0016BF08467FEA23630146420206BF5FEA2D
:100C1C00412390EA010F40F4800070474FF000032D
:100C2C0004E000BF10F0004348BF40425FEA000CF4
:100C3C0008BF704743F0964301464FF000001CE09C
:100C4C0050EA010208BF70474FF000030AE000BFF2
:100C5C0050EA010208BF704711F0004302D5404230
:100C6C0061EB41015FEA010C02BF844601460020A2
:100C7C0043F0B64308BFA3F18053A3F50003BCFABD
:100C8C008CF2083AA3EBC25310DB01FA02FC63446A
:100C9C0000FA02FCC2F12002BCF1004F20FA02F271
:100CAC0043EB020008BF20F00100704702F1200264
:100CBC0001FA02FCC2F1200250EA4C0021FA02F2C5
:100CCC0043EB020008BF20EADC7070474FF0FF0CCA
:100CDC001CEAD0521EBF1CEAD15392EA0C0F93EAC5
:100CEC000C0F6FD01A4480EA010C400218BF5FEA67
:100CFC0041211ED04FF0006343EA501043EA5111DA
:100D0C00A0FB01310CF00040B1F5000F3EBF4900D3
:100D1C0041EAD3715B0040EA010062F17F02FD2AD7
:100D2C001DD8B3F1004F40EBC25008BF20F00100BA
:100D3C00704790F0000F0CF0004C08BF49024CEAD1
:100D4C00502040EA51207F3AC2BFD2F1FF0340EA63
:100D5C00C250704740F400004FF00003013A5DDCD4
:100D6C0012F1190FDCBF00F000407047C2F1000215
:100D7C00410021FA02F1C2F1200200FA02FC5FEA02
:100D8C00310040F1000053EA4C0308BF20EADC704C
:100D9C00704792F0000F00F0004C02BF400010F4BE
:100DAC00000F013AF9D040EA0C0093F0000F01F06B
:100DBC00004C02BF490011F4000F013BF9D041EA8D
:100DCC000C018FE70CEAD15392EA0C0F18BF93EA8F
:100DDC000C0F0AD030F0004C18BF31F0004CD8D1B9
:100DEC0080EA010000F00040704790F0000F17BF40
:100DFC0090F0004F084691F0000F91F0004F14D086
:100E0C0092EA0C0F01D142020FD193EA0C0F03D1DD
:100E1C004B0218BF084608D180EA010000F00040E0
:100E2C0040F0FE4040F40000704740F0FE4040F4BB
:100E3C00400070474FF0FF0C1CEAD0521EBF1CEA5A
:100E4C00D15392EA0C0F93EA0C0F69D0A2EB030278
:100E5C0080EA010C49024FEA402037D04FF0805312
:100E6C0043EA111143EA10130CF000408B4238BFD7
:100E7C005B0042F17D024FF4000C8B4224BF5B1AE5
:100E8C0040EA0C00B3EB510F24BFA3EB510340EA33
:100E9C005C00B3EB910F24BFA3EB910340EA9C00E1
:100EAC00B3EBD10F24BFA3EBD10340EADC001B0151
:100EBC0018BF5FEA1C1CE0D1FD2A3FF650AF8B42F5
:100ECC0040EBC25008BF20F0010070470CF0004C02
:100EDC004CEA50207F32C2BFD2F1FF0340EAC2502D
:100EEC00704740F400004FF00003013A37E792F0EE
:100EFC00000F00F0004C02BF400010F4000F013A4C
:100F0C00F9D040EA0C0093F0000F01F0004C02BF46
:100F1C00490011F4000F013BF9D041EA0C0195E7AF
:100F2C000CEAD15392EA0C0F08D142027FF47DAF48
:100F3C0093EA0C0F7FF470AF084676E793EA0C0F38
:100F4C0004D14B023FF44CAF08466EE730F0004C36
:100F5C0018BF31F0004CCAD130F000427FF45CAFC6
:100F6C0031F000437FF43CAF5FE700BF2DE9F04F59
:100F7C0001244FF6FF784FF0100A4FF04109254E2F
:100F8C00254D85B0B7B223463A460E21CDF80880E0
:100F9C0001940095214885F8009086F800A001F096
:100FAC0011FA0F2000F06EFB4FF011034FF0B00B55
:100FBC0033703A462346CDF80880019400950E21F3
:100FCC00164885F800B001F0FDF985F80090DFF8BF
:100FDC00509023463A460E21CDF808800194009596
:100FEC00484686F800A001F0EDF90F2000F04AFB0E
:100FFC004FF01103CDF8088033700194009523460F
:10100C003A460E21484685F800B001F0DBF905B0F0
:10101C00BDE8F08F9000002097000020C800002051
:10102C001C0100202DE9F047041F0E4625464FF009
:10103C00000A00F1080755F8040FFFF7D3F9024630
:10104C000B46FFF735FA804650468946FFF7DCF928
:10105C0002460B4640464946FFF778F8FFF7D8FCA6
:10106C00BD428246E7D1FFF7CFF901F0F9FDFFF75A
:10107C00CFFC0746043E54F8040FFFF7D3FD394666
:10108C00FFF7D8FEA54246F8040FF4D1BDE8F0876F
:10109C0070B50723642686B0184D06AA044602F8DC
:1010AC00093D0E2100960123284600F07DFE03AA7F
:1010BC00009601230E21284600F04CFF01230096D8
:1010CC001A460E21284600F06FFE082304AA00934E
:1010DC000E210623284601F013F9BDF810305BBA37
:1010EC009BB22360BDF812305BBA9BB26360BDF853
:1010FC0014305BBA9BB2A36006B070BDC800002070
:10110C00012330B5104D85B00C461A460E212846E9
:10111C0001F0A2F8082302AA00930E210623284608
:10112C0001F0EEF8BDF808305BBA9BB22360BDF855
:10113C000A305BBA9BB26360BDF80C305BBA9BB2F1
:10114C00A36005B030BD00BF1C01002038B50446BB
:10115C000D46FFF79DFF29462046BDE83840FFF7B6
:10116C00CFBF0000102210B588B00DEB020000219B
:10117C0001F06EFD1D4B1E4C9A69204642F0100288
:10118C009A619A694FF4005102F010020092009A91
:10119C009A6942F020029A619A6902F02002019247
:1011AC00019A9A6942F008029A619A6902F008025F
:1011BC000292029A9A6942F004029A619B69002297
:1011CC0003F004030393039B00F01AFC4FF4005349
:1011DC0004930123059300230693022304A92046BC
:1011EC00079300F0BDFA08B010BD00BF001002401C
:1011FC000010014030B5642087B01F4D00F042FA5A
:10120C00C0211E4800F08CFBAB69002443F008039E
:10121C00AB61AB6906A903F008030093009B122392
:10122C00039303230593C023144841F8103D049401
:10123C0000F096FA642000F025FAEB69104843F4AC
:10124C000013EB61EB690F4A03F400130193019B4C
:10125C000D4B846080E80C004FF48043C460036144
:10126C0044618461C461046200F01EFD08B100F0A9
:10127C0013F907B030BD00BF00100240000C014054
:10128C00C800002000540040801A060010B56420ED
:10129C0086B01F4C00F0F6F94FF440611D4800F089
:1012AC003FFBA36906A943F00803A361A36919488E
:1012BC0003F008030093009B12230393032305936D
:1012CC004FF4406341F8103D00F04AFA642000F0FE
:1012DC00D9F9E369104843F40013E361E3690F4C57
:1012EC0003F400130193019B0D4B4FF4804280E8F3
:1012FC001800002302618360C36043618361C36192
:10130C00036200F0D1FC08B100F0C6F806B010BDC5
:10131C0000100240000C01401C010020801A060045
:10132C0000580040102210B5044688B00DEB0200A6
:10133C00002101F08DFC2368214A93421ED1214CDF
:10134C0004A9A369204843F00803A361A36903F02F
:10135C0008030093009BC0230493122305930323DB
:10136C00079300F0FDF9E36943F40013E361E369CB
:10137C0003F400130193019B08B010BD134A934270
:10138C00FAD1104C04A9A3690F4843F00803A361D8
:10139C00A36903F008030293029B4FF44063049388
:1013AC00122305930323079300F0DAF9E36943F45E
:1013BC008003E361E36903F480030393039BDBE79E
:1013CC000054004000100240000C01400058004046
:1013DC0010B590B02822002106A801F039FC00219C
:1013EC00142201A801F034FC4FF4803301220224B2
:1013FC0007930E934FF4E01306A806920A920F93EC
:10140C000D9401F075F80F234FF4806201930023C3
:10141C00214601A8029403930492059301F030FA3B
:10142C0010B010BD08B500F009F9642000F02AF9DD
:10143C00FFF7CEFF642000F025F9FFF793FE642040
:10144C0000F020F9FFF7D6FEFFF720FF642000F034
:10145C0019F900F075F8642000F014F9FFF786FD17
:10146C00094C0A4D0A4E21462846FFF76FFE3146BD
:10147C002846FFF7D7FD20460649FFF7D3FD052088
:10148C0000F000F9EFE700BF98000020BC0000203E
:10149C00B0000020A4000020704700000E4B82B06A
:1014AC009A6942F001029A619A6902F00102009273
:1014BC00009ADA6942F08052DA61DB69074A03F07C
:1014CC0080530193019B536823F0E06343F0007356
:1014DC00536002B0704700BF001002400000014092
:1014EC007047FEE7FEE7FEE7FEE770477047704780
:1014FC0000F0B6B80F4B1A6842F001021A60596836
:10150C000D4A0A405A601A6822F0847222F4803222
:10151C001A601A6822F480221A605A6822F4FE02B9
:10152C005A604FF41F029A604FF00062034B9A60AE
:10153C00704700BF001002400000FFF800ED00E013
:10154C0008B54FF480624FF4E13E0A480A4B026141
:10155C0080E808400C22002342618360C3608361F1
:10156C00C36101F0FDFA18B1BDE80840FFF794BF64
:10157C0008BD00BF700100200038014010B50446C2
:10158C0086B01022002102A801F062FB2268174BE2
:10159C009A4228D103F558439A6902A942F4804231
:1015AC009A619A69124802F480420092009A9A69F0
:1015BC0042F004029A619B6903F004030193019BBE
:1015CC004FF400730293022303930323059300F05B
:1015DC00C7F84FF480630293002302A904480393D5
:1015EC00049300F0BDF806B010BD00BF00380140F8
:1015FC000008014038B50E4B054618784FF47A7345
:10160C00B3FBF0F30B4A1068B0FBF3F000F092F868
:10161C00044658B90F2D09D8024629464FF0FF3021
:10162C0000F054F8044B20461D6038BD012038BD35
:10163C00040000200000002008000020074A08B524
:10164C001368032043F01003136000F02DF8002002
:10165C00FFF7D0FFFFF722FF002008BD002002405B
:10166C00034A044B11681B780B441360704700BF8E
:10167C00B001002004000020014B1868704700BF27
:10168C00B001002038B50446FFF7F6FF0546631C91
:10169C001EBF044B1B78E418FFF7EEFF401B84427F
:1016AC00FAD838BD04000020074A0002D36800F4C1
:1016BC00E06023F4E0631B041B0C43F0BF6343F4B2
:1016CC0000330343D360704700ED00E0174B30B597
:1016DC00DC68C4F30224C4F10703251D042B28BFC6
:1016EC000423062D4FF0010598BF002405FA03F3DF
:1016FC0003F1FF3388BF033C1940A14005FA04F401
:10170C00013C2240002842EA01024FEA0212AFBF1C
:10171C0000F16040064B00F00F00D2B2A5BFD2B270
:10172C0000F561401A5480F8002330BD00ED00E054
:10173C0014ED00E00138B0F1807F0AD2F021064BA5
:10174C00064A586082F823100020072298601A601D
:10175C0070470120704700BF10E000E000ED00E092
:10176C002DE9F74F00221646654BDFF8A4E1DFF8B0
:10177C00A4C14FF001080C6808FA06F808EA040442
:10178C00A0457FD14D68122D00F0AF8000F288800B
:10179C00022D00F0A7807CD8002D00F08E80012D4A
:1017AC0000F09E804FF00F09FF2C93BF824606F18C
:1017BC008045083DD0F800B092BFB500D0F804B019
:1017CC00AD0009FA05F82BEA080802FA05F588BFFE
:1017DC0000F1040A48EA0505CAF80050D1F804A043
:1017EC001AF0805F4ED0474D464FAD6926F0030886
:1017FC0045F00105BD61BD6908F1804805F00105A2
:10180C00019508F5803806F0030B019D4FEA8B0B10
:10181C00D8F8085009FA0BF925EA09093A4DA842FB
:10182C0068D005F58065A84266D005F58065A842AC
:10183C0064D005F58065A8420CBF0325042505FA84
:10184C000BF545EA0905C8F808501D681AF4803FE5
:10185C0014BF2543A5431D605D681AF4003F14BFF7
:10186C002543A5435D609D681AF4801F14BF254372
:10187C00A5439D60DD681AF4001F14BF2C4325EAB4
:10188C000404DC600136102E7FF473AF03B0BDE8A6
:10189C00F08F032D22D0112D84D1CA68043281E738
:1018AC001A4FBD4209D012D8DFF86C904D4504D0C8
:1018BC0009F580394D457FF475AF8A68C2B1012AAC
:1018CC000CBFC0F81080C0F8148008226AE7754578
:1018DC00F3D06545F1D0DFF84490EBE7002261E7E7
:1018EC00CA685FE7CA6808325CE7CA680C3259E715
:1018FC00042257E70025A2E70125A0E702259EE771
:10190C0000040140001002400008014000002110BA
:10191C0000003110000032100000111000002210E5
:10192C002DE9F04F00224FF001094FF00F0C4FF052
:10193C00040A304CDFF8C4B031FA02F301D1BDE82F
:10194C00F08F09FA02F30B404CD0FF2B98BF0746DF
:10195C006FEA030385BF02F18045083DD0F800E033
:10196C00D0F804E094BF9500AD000CFA05F62EEA11
:10197C0006060AFA05F588BF071D2E433E60C568AA
:10198C0002F003071D40C56022F0030505F18045F8
:10199C0005F58035AE68BF000CFA07F806EA080EAC
:1019AC00154EB04220D006F58066B0421ED006F52A
:1019BC008066B0421CD058450CBF03260426BE409E
:1019CC00B6450FD1AE6826EA0806AE6025681D4004
:1019DC00256065681D406560A5681D40A560E568CB
:1019EC002B40E3600132A7E70026E8E70126E6E793
:1019FC000226E4E700040140000801400014014005
:101A0C000AB1016170470904FBE70268536913F4DA
:101A1C0080630DD06FF48063536104232022036430
:101A2C000023036380F83C3080F83D200120704790
:101A3C00184670472DE9F843044617469946C1F3FA
:101A4C0007488EB22568B8F1010F0CBF6B69AB6902
:101A5C0036EA030314BF0120002008B9BDE8F8835F
:101A6C006B695A0512D52B68202243F400732B6046
:101A7C006FF480636B6104232364002301202363D0
:101A8C0084F83C3084F83D20BDE8F8837B1CD9D029
:101A9C004FB900232022236384F83C3084F83D2086
:101AAC000320BDE8F883FFF7E7FDA0EB09008742B0
:101ABC00C8D2EEE72DE9F843044690461F46089E2F
:101ACC00C1F307498DB22368B9F1010F0CBF5B69F3
:101ADC009B6935EA03030CBF01230023434502D065
:101AEC000020BDE8F8837B1CEDD05FB900232022D9
:101AFC00236384F83C3084F83D20032084F83E3086
:101B0C00BDE8F883FFF7B8FD801B8742DBD2EDE719
:101B1C0070B504460D46164623685B691B0601D555
:101B2C00002070BD2046FFF770FFA8B96A1CF3D0E7
:101B3C0065B9236C202243F0200323640023032087
:101B4C00236384F83C3084F83D2070BDFFF794FD8E
:101B5C00801B8542E0D2ECE7012070BD2DE9FF41EE
:101B6C0015460268984613680B9E43F48073136005
:101B7C000F4600960A9B00224FF001110446FFF716
:101B8C0099FF68B9236807F0FE071F610A9A33466C
:101B9C001A492046FFF74EFF30B1236C042B18D0A6
:101BAC00032004B0BDE8F081236803905A690A99B8
:101BBC0003929B69324603932046039BFFF7A8FFD1
:101BCC0048B1236C042BEBD12268136843F40073E7
:101BDC0013600120E5E7B8F1010F236802D1EDB2E3
:101BEC001D61DEE72A0A1A610A9932462046FFF780
:101BFC008FFF0028E5D12368F1E700BF0200010048
:101C0C0070B504460D4616462068436913F0400330
:101C1C0001D0002070BD4269D2060BD56FF01002C6
:101C2C0042612022236484F83C302363012084F831
:101C3C003D2070BD5DB9236C032043F02003236469
:101C4C00202384F83D30002384F83C3070BDFFF72E
:101C5C0013FD801B8542D7D2EDE770B504460D46C7
:101C6C00164623685B695B0701D5002070BD2046D2
:101C7C00FFF7CBFEA8B96A1CF3D065B9236C202200
:101C8C0043F02003236400230320236384F83C30B7
:101C9C0084F83D2070BDFFF7EFFC801B8542E0D23D
:101CAC00ECE7012070BD000038B5044608B90120EE
:101CBC0038BD90F83D3003F0FF021BB980F83C2092
:101CCC00FFF730FB2423226884F83D30136823F09F
:101CDC000103136000F086FE63682F4A934230D8EC
:101CEC002E4A9042E3D92E4A2168B0FBF2F24A60A8
:101CFC0001320A62284A0138934232D85B00B0FBA9
:101D0C00F3F0431CC3F30B03042B38BF0423CB6148
:101D1C00226AE369002013430B60E26823691343D2
:101D2C008B60A26963691343CB600B6843F00103BA
:101D3C000B602023206484F83D30206384F83E003F
:101D4C0038BD184A9042B2D9154D4FF49672B0FB7B
:101D5C00F5F521686A434D604FF47A75B2FBF5F2E4
:101D6C00C6E7A26852B903EB4303B0FBF3F0431C84
:101D7C00C3F30B036BB143F40043C8E7192253437D
:101D8C00B0FBF3F0431CC3F30B0313B143F4404318
:101D9C00BDE70123BBE700BFA08601007F841E00C6
:101DAC0040420F00FF083D002DE9FF4104461F464D
:101DBC000D469046FFF760FC94F83D300646202B0C
:101DCC0004D00225284604B0BDE8F0810090192308
:101DDC0001225D492046FFF76DFE0028F1D194F8F1
:101DEC003C30012BEDD0012384F83C3023681A6879
:101DFC00D2075EBF1A6842F001021A601A6822F418
:101E0C0000621A60212284F83D20102284F83E20C2
:101E1C0000222264A2F580326785E262628DC4F8EA
:101E2C0024802285E26A042A04D0012A02D012F509
:101E3C00803F04D11A6842F480721A6002E0226B6F
:101E4C00122AF7D000960A9B00224FF0011120466F
:101E5C00FFF730FE28BB23692268B3F5804F12D1FF
:101E6C0005F0FE05156133460A9A38492046FFF7FE
:101E7C00E1FD0546A0B9236803905A6903929B695A
:101E8C000393039B50E0EB1103F0060343F0F003C4
:101E9C0013612F4933460A9A2046FFF7CBFD48B110
:101EAC00236C236C042B4FF0000307D184F83C30D7
:101EBC00012587E72368EDB21D61D4E784F83C3037
:101ECC0003257FE732460A992046FFF721FE40B1F1
:101EDC00236C042BF4D12268136843F40073136051
:101EEC00E6E7616A20684B1C63620B78228D036104
:101EFC00638D013B9BB263854769531E9BB27F0781
:101F0C0023850AD54BB18B1C63624B78023A036173
:101F1C00638D2285013B9BB2638532460A9920462C
:101F2C00FFF79BFE0028D3D1238D002BCAD121684B
:101F3C000A6842F400720A60202284F83C3084F86B
:101F4C003D2084F83E303DE7020010000200010005
:101F5C00080001002DE9F043044689B098460D466F
:101F6C009146109FFFF788FB94F83D300646202BD6
:101F7C0004D00225284609B0BDE8F083009019234F
:101F8C000122A2492046FFF795FD0028F1D194F8D3
:101F9C003C30012BEDD0012384F83C3023681A68C7
:101FAC00D2075EBF1A6842F001021A601A6822F466
:101FBC0000621A60222284F83D20102284F83E2010
:101FCC0000222264A2F58032A4F82A80E262628D9B
:101FDC00C4F824902285E26A1968042A41F48061CD
:101FEC00196004D0012A02D012F5803F04D11A687E
:101FFC0042F480721A6002E0226B112AF7D000962C
:10200C003B4600224FF001112046FFF753FD0028FC
:10201C004DD12369B3F5804F236839D145F00105C3
:10202C00EDB21D6133463A4679492046FFF702FD71
:10203C00054600283AD1228D2368002A69D0012A4E
:10204C007AD11A6822F480621A6072B623680495F9
:10205C005A6904929A690492049A1A6842F40072BA
:10206C001A6062B6DFF8B081238D002B5BD0032B96
:10207C0000F2D480012B7BD1324639462046FFF743
:10208C00BFFD002800F09380236C202B16D13EE07E
:10209C004FEAE51808F0060848F0F0021A615D49AD
:1020AC0033463A462046FFF7C5FC48B1236C236CF7
:1020BC00042B4FF0000328D184F83C30012559E75C
:1020CC002368EDB21D613A46334651492046FFF76D
:1020DC00B1FC02460028E9D12368079059692046D3
:1020EC000791996907910799196841F480711960F2
:1020FC0000963B464FF00111FFF7DCFC0028D6D1CF
:10210C00226848F0F10313618CE784F83C30032516
:10211C0030E703955A6903929A690392039A1A68F5
:10212C0042F400721A60202384F83D30002384F8B6
:10213C003E3084F83C301DE7022A1A680ED142F476
:10214C0000621A6072B6236805955A6905929A69FD
:10215C000592059A1A6822F4806281E742F4806243
:10216C001A6006955A6906929B690693069B79E755
:10217C00022B00963B464FF000024146204624D1EC
:10218C00FFF798FC0028C2D172B623681A6842F493
:10219C0000721A60626A1B69511C61621370238D94
:1021AC00013B2385638D013B9BB2638562B6636AF9
:1021BC005A1C6262226812691A70238D013B2385B6
:1021CC00638D013B9BB263854EE7FFF773FC0246C0
:1021DC0000289CD121680B6823F480630B6072B6D5
:1021EC00636A2046591C6162216809691970238D44
:1021FC000096013B2385638D4146013B9BB2638571
:10220C003B46FFF757FC0028BFD080E702001000C8
:10221C0002000100080001000400010032463946AA
:10222C002046FFF7EDFC00287FF42EAF636A5A1CA2
:10223C006262226812691A70238D2268013B238521
:10224C00638D013B9BB2638553695B077FF50CAFD4
:10225C00636A591C6162AEE737B50024019490F8AB
:10226C003D40202C02D0022003B030BD46F2A81510
:10227C00214C2468B4FBF5F519246C430194019CA2
:10228C00651E01953CB92023046380F83C4080F81E
:10229C003D300320E8E70468A569AD07EFD490F85A
:1022AC003C50012DDFD0012580F83C502568ED070E
:1022BC005EBF256845F001052560256825F400659D
:1022CC002560212580F83D50102580F83E500025D2
:1022DC0005644385094B4262C362438D41640385A7
:1022EC00236843F480732360636880F83C5043F4A4
:1022FC00E06363602846B7E7000000200000FFFFA2
:10230C0073B50024019490F83D40069D202C02D01A
:10231C00022002B070BD042D38D0012D36D090F8BB
:10232C003C40012CF4D0012480F83C400468266821
:10233C00F6075EBF266846F001062660266826F47E
:10234C0000662660222680F83D60102680F83E60EC
:10235C00002606644385C562438D41640385036B87
:10236C004262112B01D0036B3BB9236843F48063A9
:10237C002360236843F4807323600023626880F831
:10238C003C3042F4E06262601846C2E746F2A8169E
:10239C000B4C2468B4FBF6F6192474430194019C8D
:1023AC00661E01963CB92023046380F83C4080F8FB
:1023BC003D300320ADE70468A469A407EFD4AEE771
:1023CC00000000202DE9F34704469A4688469146C2
:1023DC000C9EFFF751F994F83D300546202B03D0A5
:1023EC00022002B0BDE8F0870090192301223E497B
:1023FC002046FFF75FFB0028F2D194F83C30012B0C
:10240C00EED0012384F83C30236800271A6841463B
:10241C00D20758BF1A6820465CBF42F001021A600E
:10242C001A6822F400621A60212384F83D3040239C
:10243C0084F83E300A9B27646362BDF82C3001950A
:10244C0063852A4B0096E362638D4A462385534687
:10245C00FFF784FB00282AD0236C84F83C70042BF3
:10246C0007D10120BDE7FFF753FB20B1236C042BF0
:10247C0034D00320B5E7616A27684B1C63620B7884
:10248C00228D3B61638D501E013B9BB263857B6942
:10249C0080B25B0720850AD548B18B1C63624B78F0
:1024AC00023A3B61638D2285013B9BB26385238D90
:1024BC002A4631462046002BD5D1FFF7CEFB00280B
:1024CC00D4D12268136843F400731360202384F87A
:1024DC003C0084F83D3084F83E0082E722681368A3
:1024EC0043F400731360BCE7020010000000FFFF10
:1024FC0003682DE9F341DB07054610D42B689F07D1
:10250C005ED42B68190700F195802B685A0700F1EF
:10251C00BF80EA69002A40F02D81002014E0904C25
:10252C00636803F00C03042B07D0636803F00C03FF
:10253C00082B0CD16368DE0309D523689C03DDD519
:10254C006B68002BDAD1012002B0BDE8F0816B681A
:10255C00B3F5803F10D1236843F480332360FFF739
:10256C008BF8064623689803C8D4FFF785F8801BC0
:10257C006428F7D90320E7E79BB9236823F4803359
:10258C002360236823F480232360FFF775F8064645
:10259C0023689903B2D5FFF76FF8801B6428F7D92D
:1025AC00E8E7B3F5A02F236803D143F4802323601D
:1025BC00D1E723F480332360236823F48023CDE711
:1025CC00674C636813F00C0F07D0636803F00C03BF
:1025DC00082B10D16368DA030DD423689B0702D54E
:1025EC002B69012BAFD123686A6923F0F80343EA06
:1025FC00C203236085E72A695A4B6AB101221A602B
:10260C00FFF73AF8064623689F07ECD4FFF734F837
:10261C00801B0228F7D9ADE71A60FFF72DF80646A4
:10262C00236898077FF56DAFFFF726F8801B02280B
:10263C00F6D99FE7AA694A4C4B4BDAB101221A60D2
:10264C00FFF71AF80646636A9B070DD54FF4FA524A
:10265C00464B1B68B3FBF2F3019300BF019B5A1E60
:10266C000192002BF9D150E7FFF706F8801B0228E6
:10267C00E9D97FE71A60FEF7FFFF0646636A9F07FA
:10268C007FF543AFFEF7F8FF801B0228F6D971E700
:10269C00334CE369D80024D40127E36943F0805319
:1026AC00E361E36903F080530093009B304E336881
:1026BC00D90518D5EB68012B26D1236A43F0010309
:1026CC002362FEF7D9FF41F288368046236A9B07C6
:1026DC003FD5002F3FF41DAFE36923F08053E36136
:1026EC0017E70027E2E7336843F480733360FEF7A3
:1026FC00C3FF80463368DA05DCD4FEF7BDFFA0EBE0
:10270C0008006428F6D935E7ABB9236A41F288385A
:10271C0023F001032362236A23F004032362FEF7F0
:10272C00ABFF0646236A9807D3D5FEF7A5FF801B9F
:10273C004045F7D91EE7052B236A03D143F0040368
:10274C002362BAE723F001032362236A23F0040314
:10275C00B6E7FEF791FFA0EB0800B042B6D909E747
:10276C00001002400000424280044242000000205F
:10277C0000700040224C636803F00C03082B3FF4FC
:10278C00E2AE00231F4E022A33602BD1FEF774FFFA
:10279C000746236899011FD42B6AB3F5803F05D1F6
:1027AC006268A96822F400320A436260696A62684E
:1027BC000B4322F474121343636001233360FEF75E
:1027CC005BFF054623689A013FF5A7AEFEF754FF61
:1027DC00401B0228F6D9CDE6FEF74EFFC01B02289F
:1027EC00D7D9C7E6FEF748FF054623689B017FF55E
:1027FC0094AEFEF741FF401B0228F6D9BAE600BFA3
:10280C00001002406000424230B5194B87B002AC58
:10281C0003F11005224618685968083303C2AB420D
:10282C001446F7D101238DF80430022311498DF899
:10283C0005304B6803F00C02082A17D1C3F383420E
:10284C0006A80244DB0312F8102C0CD54B680A487E
:10285C00C3F34043504306AA134413F8143CB0FB93
:10286C00F3F007B030BD05485043FAE70248F8E7EB
:10287C00942E00080010024000127A0000093D005E
:10288C00544A2DE9F0411368054603F007038B42C7
:10289C000E462AD329688C0734D4CA0747D44D4A2C
:1028AC00136803F007039E42C0F082802A684A4CEA
:1028BC0012F0040F40F08780130706D563682A696D
:1028CC0023F4605343EAC2036360FFF79DFF636820
:1028DC00424AC3F30313D35CD840414B1860002029
:1028EC00FEF788FE0020BDE8F081136823F0070393
:1028FC000B431360136803F007039942CAD00120FD
:10290C00BDE8F081344B11F0040F1EBF5A6842F43D
:10291C00E0625A60080742BF5A6842F460525A603B
:10292C005A68A86822F0F00202435A60B5E76A6858
:10293C00294C012A23681CD113F4003FDFD06368B3
:10294C0041F2883823F0030313436360FEF794FECF
:10295C006B680746012B14D1636803F00C03042B3E
:10296C009DD0FEF789FEC01B4045F5D90320BDE87C
:10297C00F081022A02D113F0007FDFE713F0020F7F
:10298C00DCE7022B0FD1636803F00C03082B86D015
:10299C00FEF772FEC01B4045F5D9E7E7FEF76CFE6B
:1029AC00C01B4045E2D8636813F00C0FF6D176E7F4
:1029BC00136823F0070333431360136803F0070312
:1029CC009E429CD172E76368E96823F4E0630B4391
:1029DC00636071E70020024000100240A42E000842
:1029EC0000000020044B054A5B68C3F30223D35C50
:1029FC00034A1068D840704700100240B42E0008FB
:102A0C0000000020044B054A5B68C3F3C223D35C6F
:102A1C00034A1068D840704700100240B42E0008DA
:102A2C00000000202DE9F0470568C2682B69016998
:102A3C0023F4405313432B618368EA680B434169C9
:102A4C0022F4B05222F00C020B431343EB606B697F
:102A5C00826923F4407313436B61404B81469D4262
:102A6C004FF0190446D1FFF7CDFF04FB00F3D9F862
:102A7C0004604FF06408B600B3FBF6F3B3FBF8F355
:102A8C001E01FFF7BFFF6043D9F804309B00B0FB79
:102A9C00F3F7FFF7B7FF6043D9F804309B00B0FBA6
:102AAC00F3F3B3FBF8F308FB13731B013233B3FBE3
:102ABC00F8F303F0F007FFF7A5FF6043D9F8042003
:102ACC009200B0FBF2FAFFF79DFF6043D9F8043097
:102ADC009B00B0FBF3F3B3FBF8F308FB13A31B0150
:102AEC003233B3FBF8F303F00F033B433344AB60D7
:102AFC00BDE8F087FFF776FF04FB00F3D9F804601C
:102B0C004FF06408B600B3FBF6F3B3FBF8F31E0109
:102B1C00FFF768FF6043D9F804309B00B0FBF3F774
:102B2C00FFF760FF6043D9F804309B00B0FBF3F370
:102B3C00B3FBF8F308FB13731B013233B3FBF8F34D
:102B4C0003F0F007FFF74EFF6043D9F80420920022
:102B5C00B0FBF2FAFFF746FFB7E700BF00380140C1
:102B6C0010B5044640B390F8393003F0FF021BB99E
:102B7C0080F83820FEF702FD2423226884F83930CF
:102B8C00D368204623F40053D360FFF74BFF236830
:102B9C0000201A6922F490421A615A6922F02A0222
:102BAC005A61DA6842F40052DA602023E06384F858
:102BBC00393084F83A3010BD012010BD002103E0FB
:102BCC000B4B5B58435004310A480B4B42189A424A
:102BDC00F6D30A4A02E0002342F8043B084B9A421F
:102BEC00F9D3FEF787FC00F00FF8FEF71BFC7047DB
:102BFC00CC2E00080000002074000020740000207F
:102C0C00B4010020FEE7000070B500250C4E0D4C01
:102C1C00A41BA410A54209D100F02AF900250A4EE4
:102C2C000A4CA41BA410A54205D170BD56F8253042
:102C3C0098470135EEE756F8253098470135F2E70D
:102C4C00C42E0008C42E0008C42E0008C82E00088C
:102C5C0003460244934200D1704703F8011BF9E785
:102C6C002DE9F04F8BB004460D4600F04DF8244B87
:102C7C00804693F900A08946BAF1FF3F2BD022463B
:102C8C002B4620462946FDF7ADFE834618BB002691
:102C9C00002732463B4620462946FDF77BFED0B145
:102CAC0001230093174BCDF820B00193CDE90445D7
:102CBC00CDE90245BAF1000F12D1CDE9066768469D
:102CCC0000F0CEF8B8B1089B1BB100F0CBF8089B14
:102CDC000360DDE90689404649460BB0BDE8F08F3C
:102CEC0032463B4630463946FDF70CFDBAF1020F31
:102CFC00CDE90601E3D100F0B5F821230360E2E74A
:102D0C000C000020BC2E00082DE9F041DFF84CE14E
:102D1C0006463EEA010E0D4607460A460C46034699
:102D2C000FD102460B46FDF7C3FB02460B4630465D
:102D3C002946FDF70BFA06460D4630462946BDE8F6
:102D4C00F08100290EDC21F0004E5EEA0707F4D07A
:102D5C0041B102460B46FDF7F7F902460B46FDF76B
:102D6C00D1FCE8E712150CD1002C6ED00021E60244
:102D7C006FD5481E121AC1F1200023FA00F004434B
:102D8C008B40A2F2FF32D5074FF00005C4F31304B9
:102D9C0044F4801442BF640004EBD3745B0004EB76
:102DAC00D3715010214416222C464FF400165B00B0
:102DBC00A7198F42DEBFC91BBC19AD194900013AD6
:102DCC0001EBD3714FEA56064FEA4303F0D14FF0B3
:102DDC00200E94464FF00046A14206EB0C0702DC95
:102DEC0012D19F4210D8002F07EB060C34DABCF13D
:102DFC00000F31DB04F10108091B44469F4288BFD8
:102E0C0001F1FF31DB1B324401EBD377BEF1010E34
:102E1C0039444FEA43034FEA5606DDD10B4306D043
:102E2C00541C0BBF72460132013522F001026B10AB
:102E3C005208E90703F17F5303F5001348BF42F032
:102E4C00004203EB0055164677E7DC0A153A5B05A2
:102E5C008AE7640001318AE7A046CDE70000F07FE5
:102E6C0000207047014B1868704700BF100000200D
:102E7C00F8B500BFF8BC08BC9E467047F8B500BF5B
:082E8C00F8BC08BC9E4670472B
:102E940002030405060708090A0B0C0D0E0F101097
:102EA40000000000000000000102030406070809F6
:102EB400000000000102030473717274000000003A
:042EC40031010008D0
:042EC8000D010008F0
:102ECC0000A24A04010000001000000001000000F4
:102EDC0014000020000000000000000000000000B2
:102EEC0000000000000000000000000000000000D6
:102EFC0000000000000000000000000000000000C6
:102F0C0000000000000000000000000000000000B5
:102F1C0000000000000000000000000000000000A5
:102F2C000000000000000000000000000000000095
:042F3C000000000091
:0400000508002BC9FB
:00000001FF
