:020000040800F2
:100000000050002001290008A1150008A3150008D0
:10001000A5150008A7150008A91500080000000094
:10002000000000000000000000000000AB15000808
:10003000AD15000800000000AF150008B11500085C
:1000400049290008492900084929000849290008C8
:1000500049290008492900084929000849290008B8
:1000600049290008492900084929000849290008A8
:100070004929000849290008492900084929000898
:100080004929000849290008492900084929000888
:100090004929000849290008492900084929000878
:1000A0004929000849290008492900084929000868
:1000B0004929000849290008492900084929000858
:1000C0004929000849290008492900084929000848
:1000D0004929000849290008492900084929000838
:1000E00049290008492900084929000800000000A2
:1000F0000000000000000000000000000000000000
:0C01000000000000000000005FF808F1A3
:10010C0010B5054C237833B9044B13B10448AFF345
:10011C0000800123237010BD74000020000000003B
:10012C00843A000808B5034B1BB103490348AFF3ED
:10013C00008008BD0000000078000020843A000810
:10014C0081F0004102E000BF83F0004330B54FEA7C
:10015C0041044FEA430594EA050F08BF90EA020FE9
:10016C001FBF54EA000C55EA020C7FEA645C7FEA7C
:10017C00655C00F0E2804FEA5454D4EB5555B8BF9F
:10018C006D420CDD2C4480EA020281EA030382EA10
:10019C00000083EA010180EA020281EA0303362DA2
:1001AC0088BF30BD11F0004F4FEA01314FF4801C75
:1001BC004CEA113102D0404261EB410113F0004F87
:1001CC004FEA03334CEA133302D0524263EB43033E
:1001DC0094EA050F00F0A780A4F10104D5F1200EDC
:1001EC000DDB02FA0EFC22FA05F2801841F1000137
:1001FC0003FA0EF2801843FA05F359410EE0A5F10B
:10020C0020050EF1200E012A03FA0EFC28BF4CF03B
:10021C00020C43FA05F3C01851EBE37101F00045F1
:10022C0007D54FF0000EDCF1000C7EEB00006EEBFE
:10023C000101B1F5801F1BD3B1F5001F0CD3490888
:10024C005FEA30004FEA3C0C04F101044FEA4452DF
:10025C0012F5800F80F09A80BCF1004F08BF5FEA66
:10026C00500C50F1000041EB045141EA050130BD46
:10027C005FEA4C0C404141EB010111F4801FA4F1E9
:10028C000104E9D191F0000F04BF01460020B1FA3E
:10029C0081F308BF2033A3F10B03B3F120020CDA76
:1002AC000C3208DD02F1140CC2F10C0201FA0CF054
:1002BC0021FA02F10CE002F11402D8BFC2F1200CB9
:1002CC0001FA02F120FA0CFCDCBF41EA0C0190406F
:1002DC00E41AA2BF01EB0451294330BD6FEA0404B8
:1002EC001F3C1CDA0C340EDC04F11404C4F12002A3
:1002FC0020FA04F001FA02F340EA030021FA04F3B5
:10030C0045EA030130BDC4F10C04C4F1200220FA0B
:10031C0002F001FA04F340EA0300294630BD21FA49
:10032C0004F0294630BD94F0000F83F4801306BF0F
:10033C0081F480110134013D4EE77FEA645C18BF03
:10034C007FEA655C29D094EA050F08BF90EA020F9A
:10035C0005D054EA000C04BF1946104630BD91EA92
:10036C00030F1EBF0021002030BD5FEA545C05D195
:10037C004000494128BF41F0004130BD14F58004D4
:10038C003CBF01F5801130BD01F0004545F0FE4148
:10039C0041F470014FF0000030BD7FEA645C1ABF7D
:1003AC00194610467FEA655C1CBF0B46024650EAB4
:1003BC00013406BF52EA033591EA030F41F40021E0
:1003CC0030BD00BF90F0000F04BF0021704730B566
:1003DC004FF4806404F132044FF000054FF000013B
:1003EC0050E700BF90F0000F04BF0021704730B5FC
:1003FC004FF4806404F1320410F0004548BF4042D1
:10040C004FF000013EE700BF42004FEAE2014FEA25
:10041C0031014FEA02701FBF12F07F4393F07F4F00
:10042C0081F06051704792F0000F14BF93F07F4F32
:10043C00704730B54FF4607401F0004521F0004175
:10044C0020E700BF50EA010208BF704730B54FF0FB
:10045C0000050AE050EA010208BF704730B511F000
:10046C00004502D5404261EB41014FF4806404F138
:10047C0032045FEA915C3FF4DCAE4FF003025FEABA
:10048C00DC0C18BF03325FEADC0C18BF033202EB42
:10049C00DC02C2F1200300FA03FC20FA02F001FA9C
:1004AC0003FE40EA0E0021FA02F11444C1E600BF3B
:1004BC0070B54FF0FF0C4CF4E06C1CEA11541DBFEE
:1004CC001CEA135594EA0C0F95EA0C0F00F0DEF8B9
:1004DC002C4481EA030621EA4C5123EA4C5350EA9E
:1004EC00013518BF52EA033541F4801143F48013EF
:1004FC0038D0A0FB02CE4FF00005E1FB02E506F080
:10050C000042E0FB03E54FF00006E1FB03569CF0D4
:10051C00000F18BF4EF0010EA4F1FF04B6F5007FDA
:10052C0064F5407404D25FEA4E0E6D4146EB06064C
:10053C0042EAC62141EA55514FEAC52040EA5E50D5
:10054C004FEACE2EB4F1FD0C88BFBCF5E06F1ED87F
:10055C00BEF1004F08BF5FEA500E50F1000041EBB6
:10056C00045170BD06F0004646EA010140EA020063
:10057C0081EA0301B4EB5C04C2BFD4EB0C0541EA85
:10058C00045170BD41F480114FF0000E013C00F39A
:10059C00AB8014F1360FDEBF002001F0004170BDBE
:1005AC00C4F10004203C35DA0C341BDC04F11404D7
:1005BC00C4F1200500FA05F320FA04F001FA05F263
:1005CC0040EA020001F0004221F0004110EBD37030
:1005DC0021FA04F642EB06015EEA430E08BF20EA5C
:1005EC00D37070BDC4F10C04C4F1200500FA04F3FF
:1005FC0020FA05F001FA04F240EA020001F0004191
:10060C0010EBD37041F100015EEA430E08BF20EA03
:10061C00D37070BDC4F1200500FA05F24EEA020E4B
:10062C0020FA04F301FA05F243EA020321FA04F07A
:10063C0001F0004121FA04F220EA020000EBD37031
:10064C005EEA430E08BF20EAD37070BD94F0000F31
:10065C000FD101F00046400041EB010111F4801F65
:10066C0008BF013CF7D041EA060195F0000F18BF16
:10067C00704703F00046520043EB030313F4801F52
:10068C0008BF013DF7D043EA0603704794EA0C0F0C
:10069C000CEA135518BF95EA0C0F0CD050EA410622
:1006AC0018BF52EA4306D1D181EA030101F000419F
:1006BC004FF0000070BD50EA410606BF10461946C7
:1006CC0052EA430619D094EA0C0F02D150EA0136D3
:1006DC0013D195EA0C0F05D152EA03361CBF104614
:1006EC0019460AD181EA030101F0004141F0FE41B3
:1006FC0041F470014FF0000070BD41F0FE4141F437
:10070C00780170BD70B54FF0FF0C4CF4E06C1CEA36
:10071C0011541DBF1CEA135594EA0C0F95EA0C0FEB
:10072C0000F0A7F8A4EB050481EA030E52EA0335A6
:10073C004FEA013100F088804FEA03334FF08055C7
:10074C0045EA131343EA12634FEA022245EA1115F4
:10075C0045EA10654FEA00260EF000419D4208BFA5
:10076C00964244F1FD0404F5407402D25B084FEA52
:10077C003202B61A65EB03055B084FEA32024FF4FE
:10078C0080104FF4002CB6EB020E75EB030E22BF5B
:10079C00B61A754640EA0C005B084FEA3202B6EB1B
:1007AC00020E75EB030E22BFB61A754640EA5C00CA
:1007BC005B084FEA3202B6EB020E75EB030E22BF5A
:1007CC00B61A754640EA9C005B084FEA3202B6EB5B
:1007DC00020E75EB030E22BFB61A754640EADC001A
:1007EC0055EA060E18D04FEA051545EA16754FEA7C
:1007FC0006164FEAC30343EA52734FEAC2025FEA9A
:10080C001C1CC0D111F4801F0BD141EA00014FF028
:10081C0000004FF0004CB6E711F4801F04BF0143F9
:10082C000020B4F1FD0C88BFBCF5E06F3FF6AFAE15
:10083C00B5EB030C04BFB6EB020C5FEA500C50F1A5
:10084C00000041EB045170BD0EF0004E4EEA113128
:10085C0014EB5C04C2BFD4EB0C0541EA045170BD2F
:10086C0041F480114FF0000E013C90E645EA060E73
:10087C008DE60CEA135594EA0C0F08BF95EA0C0FA1
:10088C003FF43BAF94EA0C0F0AD150EA01347FF4E9
:10089C0034AF95EA0C0F7FF425AF104619462CE7C0
:1008AC0095EA0C0F06D152EA03353FF4FDAE104623
:1008BC00194622E750EA410618BF52EA43067FF474
:1008CC00C5AE50EA41047FF40DAF52EA43057FF404
:1008DC00EBAE12E74FF0FF3C06E000BF4FF0010C0F
:1008EC0002E000BF4FF0010C4DF804CD4FEA410C73
:1008FC007FEA6C5C4FEA430C18BF7FEA6C5C1BD040
:10090C0001B050EA410C0CBF52EA430C91EA030FC0
:10091C0002BF90EA020F0020704710F1000F91EA1D
:10092C00030F58BF994208BF90422CBFD8176FEAEB
:10093C00E37040F0010070474FEA410C7FEA6C5CB9
:10094C0002D150EA013C07D14FEA430C7FEA6C5CC0
:10095C00D6D152EA033CD3D05DF8040B704700BFEC
:10096C008446104662468C461946634600E000BF3A
:10097C0001B5FFF7B7FF002848BF10F1000F01BD0C
:10098C004DF808EDFFF7F4FF0CBF012000205DF8D7
:10099C0008FB00BF4DF808EDFFF7EAFF34BF01205C
:1009AC0000205DF808FB00BF4DF808EDFFF7E0FFF5
:1009BC0094BF012000205DF808FB00BF4DF808ED46
:1009CC00FFF7CEFF94BF012000205DF808FB00BFAD
:1009DC004DF808EDFFF7C4FF34BF012000205DF88F
:1009EC0008FB00BF4FEA410C7FEA6C5C02D150EA75
:1009FC00013C0AD14FEA430C7FEA6C5C02D152EA0B
:100A0C00033C02D14FF0000070474FF001007047DB
:100A1C004FEA4102B2F1E04324BFB3F5001CDCF114
:100A2C00FE5C0DD901F0004C4FEAC0024CEA50704C
:100A3C00B2F1004F40EB830008BF20F0010070477B
:100A4C0011F0804F21D113F13872BCBF01F000407E
:100A5C00704741F480114FEA5252C2F11802C2F1B0
:100A6C00200C10FA0CF320FA02F018BF40F0010031
:100A7C004FEAC1234FEAD32303FA0CFC40EA0C00E3
:100A8C0023FA02F34FEA4303CCE77FEA625307D120
:100A9C0050EA01331EBF4FF0FE4040F44000704757
:100AAC0001F0004040F0FE4040F40000704700BFF1
:100ABC0080F0004002E000BF81F0004142001FBF07
:100ACC005FEA410392EA030F7FEA226C7FEA236C10
:100ADC006AD04FEA1262D2EB1363C1BFD218414005
:100AEC0048404140B8BF5B42192B88BF704710F09B
:100AFC00004F40F4000020F07F4018BF404211F03E
:100B0C00004F41F4000121F07F4118BF494292EAA5
:100B1C00030F3FD0A2F1010241FA03FC10EB0C00D1
:100B2C00C3F1200301FA03F100F0004302D549425E
:100B3C0060EB4000B0F5000F13D3B0F1807F06D30B
:100B4C0040084FEA310102F10102FE2A51D2B1F103
:100B5C00004F40EBC25008BF20F0010040EA0300F8
:100B6C007047490040EB000010F4000FA2F10102A5
:100B7C00EDD1B0FA80FCACF1080CB2EB0C0200FA2F
:100B8C000CF0AABF00EBC25052421843BCBFD0407D
:100B9C001843704792F0000F81F4000106BF80F4F7
:100BAC0000000132013BB5E74FEA41037FEA226CBA
:100BBC0018BF7FEA236C21D092EA030F04D092F085
:100BCC00000F08BF0846704790EA010F1CBF0020B9
:100BDC00704712F07F4F04D1400028BF40F0004016
:100BEC00704712F100723CBF00F50000704700F036
:100BFC00004343F0FE4040F4000070477FEA22625D
:100C0C0016BF08467FEA23630146420206BF5FEA2D
:100C1C00412390EA010F40F4800070474FF000032D
:100C2C0004E000BF10F0004348BF40425FEA000CF4
:100C3C0008BF704743F0964301464FF000001CE09C
:100C4C0050EA010208BF70474FF000030AE000BFF2
:100C5C0050EA010208BF704711F0004302D5404230
:100C6C0061EB41015FEA010C02BF844601460020A2
:100C7C0043F0B64308BFA3F18053A3F50003BCFABD
:100C8C008CF2083AA3EBC25310DB01FA02FC63446A
:100C9C0000FA02FCC2F12002BCF1004F20FA02F271
:100CAC0043EB020008BF20F00100704702F1200264
:100CBC0001FA02FCC2F1200250EA4C0021FA02F2C5
:100CCC0043EB020008BF20EADC7070474FF0FF0CCA
:100CDC001CEAD0521EBF1CEAD15392EA0C0F93EAC5
:100CEC000C0F6FD01A4480EA010C400218BF5FEA67
:100CFC0041211ED04FF0006343EA501043EA5111DA
:100D0C00A0FB01310CF00040B1F5000F3EBF4900D3
:100D1C0041EAD3715B0040EA010062F17F02FD2AD7
:100D2C001DD8B3F1004F40EBC25008BF20F00100BA
:100D3C00704790F0000F0CF0004C08BF49024CEAD1
:100D4C00502040EA51207F3AC2BFD2F1FF0340EA63
:100D5C00C250704740F400004FF00003013A5DDCD4
:100D6C0012F1190FDCBF00F000407047C2F1000215
:100D7C00410021FA02F1C2F1200200FA02FC5FEA02
:100D8C00310040F1000053EA4C0308BF20EADC704C
:100D9C00704792F0000F00F0004C02BF400010F4BE
:100DAC00000F013AF9D040EA0C0093F0000F01F06B
:100DBC00004C02BF490011F4000F013BF9D041EA8D
:100DCC000C018FE70CEAD15392EA0C0F18BF93EA8F
:100DDC000C0F0AD030F0004C18BF31F0004CD8D1B9
:100DEC0080EA010000F00040704790F0000F17BF40
:100DFC0090F0004F084691F0000F91F0004F14D086
:100E0C0092EA0C0F01D142020FD193EA0C0F03D1DD
:100E1C004B0218BF084608D180EA010000F00040E0
:100E2C0040F0FE4040F40000704740F0FE4040F4BB
:100E3C00400070474FF0FF0C1CEAD0521EBF1CEA5A
:100E4C00D15392EA0C0F93EA0C0F69D0A2EB030278
:100E5C0080EA010C49024FEA402037D04FF0805312
:100E6C0043EA111143EA10130CF000408B4238BFD7
:100E7C005B0042F17D024FF4000C8B4224BF5B1AE5
:100E8C0040EA0C00B3EB510F24BFA3EB510340EA33
:100E9C005C00B3EB910F24BFA3EB910340EA9C00E1
:100EAC00B3EBD10F24BFA3EBD10340EADC001B0151
:100EBC0018BF5FEA1C1CE0D1FD2A3FF650AF8B42F5
:100ECC0040EBC25008BF20F0010070470CF0004C02
:100EDC004CEA50207F32C2BFD2F1FF0340EAC2502D
:100EEC00704740F400004FF00003013A37E792F0EE
:100EFC00000F00F0004C02BF400010F4000F013A4C
:100F0C00F9D040EA0C0093F0000F01F0004C02BF46
:100F1C00490011F4000F013BF9D041EA0C0195E7AF
:100F2C000CEAD15392EA0C0F08D142027FF47DAF48
:100F3C0093EA0C0F7FF470AF084676E793EA0C0F38
:100F4C0004D14B023FF44CAF08466EE730F0004C36
:100F5C0018BF31F0004CCAD130F000427FF45CAFC6
:100F6C0031F000437FF43CAF5FE700BF2DE9F74F52
:100F7C000027DFF8F890DFF8F8B00F20642589F827
:100F8C00007089F801708BF800708BF8017000F01C
:100F9C0023FC4FF011034FF0800A334CDFF8D48060
:100FAC00224623701C2102230095404684F801A0A0
:100FBC0000F0E2FE0F2000F00FFC4FF010030126B2
:100FCC00224623701C21022300954046667000F0D7
:100FDC00D3FE0F2000F000FC4FF0110384F801A0A9
:100FEC00DFF894A0224623701C2102230095504662
:100FFC0000F0C2FE0F2000F0EFFB4FF01003224672
:10100C0023701C21022300955046667000F0B4FE3C
:10101C000F2000F0E1FB0723224623700095334696
:10102C001C215046677000F0A7FE334622461C2157
:10103C000095404600F0A0FE0A2000F0CDFB3346A0
:10104C004A4600951C21404600F06CFF0095334643
:10105C005A461C21504600F065FF0F2003B0BDE836
:10106C00F04F00F0B9BB00BF9C000020A200002094
:10107C009F000020080100205C0100202DE9F047B2
:10108C00041F0E4625464FF0000A00F1080755F8DC
:10109C00040FFFF7A7F902460B46FFF709FA804643
:1010AC0050468946FFF7B0F902460B464046494682
:1010BC00FFF74CF8FFF7ACFCBD428246E7D1FFF7D7
:1010CC00A3F902F0D1FBFFF7A3FC0746043E54F84A
:1010DC00040FFFF7A7FD3946FFF7ACFEA54246F813
:1010EC00040FF4D13846BDE8F0870000F7B50123B2
:1010FC0064270546134A144E144C13701C21009798
:10110C00304600F039FE052000F066FB224606232F
:10111C001C210097304600F005FF052000F05CFB19
:10112C002278637843EA02232B60A278E37843EABF
:10113C0002236B602279637943EA0223AB6003B02C
:10114C00F0BD00BFDC00002008010020D60000200C
:10115C00F7B5012364270546134A144E144C13703B
:10116C001C210097304600F007FE052000F034FBF0
:10117C00224606231C210097304600F0D3FE0520A2
:10118C0000F02AFB2278637843EA02232B60A278D2
:10119C00E37843EA02236B602279637943EA022302
:1011AC00AB6003B0F0BD00BFDC0000205C01002090
:1011BC00D600002010B50C46FFF798FF2046BDE87E
:1011CC001040FFF7C5BF2DE9F84F05460F46904676
:1011DC0000240A9EA2F10409A3F1040A00F10C0BED
:1011EC00B44201DDBDE8F88F11D14B46514608F1F0
:1011FC0008005A6892FBF4F243F8042F4A689842AC
:10120C0092FBF4F241F8042FF3D10134E8E73946AC
:10121C002846FFF7CFFF2946CC46D6463A460B6800
:10122C00B3F5004FC4BFA3F580330B601368B3F55F
:10123C00004FC4BFA3F58033136051F8040BDCF8E6
:10124C000430594503444CF8043FDEF8040052F8CE
:10125C00043B18444EF8040FE1D1D6E7102210B528
:10126C0088B00DEB0200002101F08EFB1D4B1E4CD3
:10127C009A69204642F010029A619A694FF4005123
:10128C0002F010020092009A9A6942F020029A61D0
:10129C009A6902F020020192019A9A6942F00802BE
:1012AC009A619A6902F008020292029A9A6942F0D3
:1012BC0004029A619B69002203F004030393039BCD
:1012CC0000F0D8FB4FF40053049301230593002343
:1012DC000693022304A92046079300F0EBFA08B00A
:1012EC0010BD00BF001002400010014008B50C48B2
:1012FC000C4BDFF834E04FF4804280E808400023C8
:10130C0002618360C36043618361C361036200F067
:10131C00B3FC18B1BDE8084000F018B908BD00BF17
:10132C000801002000540040A086010008B50C48BC
:10133C000C4BDFF834E04FF4804280E80840002387
:10134C0002618360C36043618361C361036200F027
:10135C0093FC18B1BDE8084000F0F8B808BD00BF18
:10136C005C01002000580040801A0600102210B5C5
:10137C00044688B00DEB0200002101F005FB236848
:10138C00214A93421ED1214C04A9A369204843F061
:10139C000803A361A36903F008030093009BC02317
:1013AC000493122305930323079300F083FAE36954
:1013BC0043F40013E361E36903F400130193019B0D
:1013CC0008B010BD134A9342FAD1104C04A9A3697A
:1013DC000F4843F00803A361A36903F008030293C9
:1013EC00029B4FF44063049312230593032307934A
:1013FC0000F060FAE36943F48003E361E36903F40A
:10140C0080030393039BDBE7005400400010024071
:10141C00000C01400058004010B590B0282200216B
:10142C0006A801F0B1FA0021142201A801F0ACFACF
:10143C004FF480330122022407930E934FF4E013F0
:10144C0006A806920A920F930D9400F0EDFE0F235E
:10145C004FF4806201930023214601A80294039368
:10146C000492059301F0A8F810B010BDF7B52C4804
:10147C0001F006FB00F08CF9FFF7CEFFFFF7EEFE54
:10148C00FFF754FF00F006F9FFF730FFFFF76EFD92
:10149C006423244A00932449244B2548FFF793FEE8
:1014AC00214C234D1F4E21462846FFF783FE002377
:1014BC001F491D4ADFF874E0086856F82370B0F530
:1014CC00004FC4BFA0F5803008601068B0F5004F25
:1014DC00C4BFA0F5803010600868C01B41F8040B35
:1014EC005EF8237010680133C01B032B42F8040B09
:1014FC00E2D1104801F050FA0F4801F0C1FA0F493F
:10150C002846FFF7BBFD0E4B0E4918602046FFF72F
:10151C00B5FD0D4B18600A2000F05EF9C3E700BF63
:10152C00AC3A0008FC000020F0000020B0000020C5
:10153C00A4000020C33A0008CA3A0008E4000020C6
:10154C00C0000020C4000020BC0000207047000038
:10155C000E4B82B09A6942F001029A619A6902F0CC
:10156C0001020092009ADA6942F08052DA61DB697A
:10157C00074A03F080530193019B536823F0E06307
:10158C0043F00073536002B0704700BF001002407C
:10159C00000001407047FEE7FEE7FEE7FEE77047FC
:1015AC007047704700F006B910B500234FF0604447
:1015BC00934201DB104610BDD4F8800EC00703D552
:1015CC00D4F8000EC00702D40133F1E700BF206845
:1015DC000028FBD0C85C2070F6E70000044B0246E4
:1015EC00196809B903491960186802441A607047F0
:1015FC0090000020F80100205822024B4FF0FF30E1
:10160C001A607047F40100205822024B4FF0FF3053
:10161C001A607047F40100205822024B00201A6017
:10162C00704700BFF40100205822024B4FF0FF30EE
:10163C001A607047F40100205822024B4FF0FF3023
:10164C001A607047F40100200F4B1A6842F0010237
:10165C001A6059680D4A0A405A601A6822F084725E
:10166C0022F480321A601A6822F480221A605A68B6
:10167C0022F4FE025A604FF41F029A604FF000628F
:10168C00034B9A60704700BF001002400000FFF847
:10169C0000ED00E008B54FF480624FF4E13E0A48DB
:1016AC000A4B026180E808400C22002342618360EF
:1016BC00C3608361C36101F0EFF818B1BDE8084065
:1016CC00FFF744BF08BD00BFB00100200038014047
:1016DC0010B5044686B01022002102A801F054F97E
:1016EC002268174B9A4228D103F558439A6902A9EC
:1016FC0042F480429A619A69124802F48042009244
:10170C00009A9A6942F004029A619B6903F00403FF
:10171C000193019B4FF40073029302230393032361
:10172C00059300F0C7F84FF480630293002302A9DD
:10173C0004480393049300F0BDF806B010BD00BF3D
:10174C00003801400008014038B50E4B05461878AA
:10175C004FF47A73B3FBF0F30B4A1068B0FBF3F061
:10176C0000F092F8044658B90F2D09D802462946C4
:10177C004FF0FF3000F054F8044B20461D6038BD8C
:10178C00012038BD040000200000002008000020CB
:10179C00074A08B51368032043F01003136000F0E8
:1017AC002DF80020FFF7D0FFFFF7D2FE002008BD78
:1017BC0000200240034A044B11681B780B44136051
:1017CC00704700BFF001002004000020014B186896
:1017DC00704700BFF001002038B50446FFF7F6FF54
:1017EC000546631C1EBF044B1B78E418FFF7EEFF85
:1017FC00401B8442FAD838BD04000020074A00027E
:10180C00D36800F4E06023F4E0631B041B0C43F08A
:10181C00BF6343F400330343D360704700ED00E033
:10182C00174B30B5DC68C4F30224C4F10703251D43
:10183C00042B28BF0423062D4FF0010598BF00246C
:10184C0005FA03F303F1FF3388BF033C1940A140B1
:10185C0005FA04F4013C2240002842EA01024FEA56
:10186C000212AFBF00F16040064B00F00F00D2B285
:10187C00A5BFD2B200F561401A5480F8002330BDE8
:10188C0000ED00E014ED00E00138B0F1807F0AD2E9
:10189C00F021064B064A586082F8231000200722DC
:1018AC0098601A6070470120704700BF10E000E09C
:1018BC0000ED00E02DE9F74F00221646654BDFF8EE
:1018CC00A4E1DFF8A4C14FF001080C6808FA06F88F
:1018DC0008EA0404A0457FD14D68122D00F0AF80BA
:1018EC0000F28880022D00F0A7807CD8002D00F03B
:1018FC008E80012D00F09E804FF00F09FF2C93BFBE
:10190C00824606F18045083DD0F800B092BFB50084
:10191C00D0F804B0AD0009FA05F82BEA080802FA71
:10192C0005F588BF00F1040A48EA0505CAF800501D
:10193C00D1F804A01AF0805F4ED0474D464FAD69E8
:10194C0026F0030845F00105BD61BD6908F180482A
:10195C0005F00105019508F5803806F0030B019D93
:10196C004FEA8B0BD8F8085009FA0BF925EA09094C
:10197C003A4DA84268D005F58065A84266D005F5B9
:10198C008065A84264D005F58065A8420CBF03258C
:10199C00042505FA0BF545EA0905C8F808501D6839
:1019AC001AF4803F14BF2543A5431D605D681AF4EB
:1019BC00003F14BF2543A5435D609D681AF4801F4A
:1019CC0014BF2543A5439D60DD681AF4001F14BFA6
:1019DC002C4325EA0404DC600136102E7FF473AF2F
:1019EC0003B0BDE8F08F032D22D0112D84D1CA682D
:1019FC00043281E71A4FBD4209D012D8DFF86C903F
:101A0C004D4504D009F580394D457FF475AF8A6892
:101A1C00C2B1012A0CBFC0F81080C0F81480082293
:101A2C006AE77545F3D06545F1D0DFF84490EBE7F4
:101A3C00002261E7CA685FE7CA6808325CE7CA68D7
:101A4C000C3259E7042257E70025A2E70125A0E74D
:101A5C0002259EE7000401400010024000080140EE
:101A6C000000211000003110000032100000111095
:101A7C00000022100AB1016170470904FBE70268FB
:101A8C00536913F480630DD06FF4806353610423A6
:101A9C00202203640023036380F83C3080F83D204F
:101AAC0001207047184670472DE9F8430446174645
:101ABC009946C1F307488EB22568B8F1010F0CBFE7
:101ACC006B69AB6936EA030314BF0120002008B927
:101ADC00BDE8F8836B695A0512D52B68202243F4B4
:101AEC0000732B606FF480636B6104232364002309
:101AFC000120236384F83C3084F83D20BDE8F88352
:101B0C007B1CD9D04FB900232022236384F83C30AE
:101B1C0084F83D200320BDE8F883FFF757FEA0EBC7
:101B2C0009008742C8D2EEE72DE9F84304469046F7
:101B3C001F46089EC1F307498DB22368B9F1010F06
:101B4C000CBF5B699B6935EA03030CBF01230023BF
:101B5C00434502D00020BDE8F8837B1CEDD05FB973
:101B6C0000232022236384F83C3084F83D2003209A
:101B7C0084F83E30BDE8F883FFF728FE801B8742CF
:101B8C00DBD2EDE770B504460D46164623685B695B
:101B9C001B0601D5002070BD2046FFF770FFA8B9C9
:101BAC006A1CF3D065B9236C202243F02003236414
:101BBC0000230320236384F83C3084F83D2070BD5F
:101BCC00FFF704FE801B8542E0D2ECE7012070BDDC
:101BDC0070B504460D4616462068436913F0400361
:101BEC0001D0002070BD4269D2060BD56FF01002F7
:101BFC0042612022236484F83C302363012084F862
:101C0C003D2070BD5DB9236C032043F02003236499
:101C1C00202384F83D30002384F83C3070BDFFF75E
:101C2C00D5FD801B8542D7D2EDE770B504460D4635
:101C3C00164623685B695B0701D5002070BD204602
:101C4C00FFF71DFFA8B96A1CF3D065B9236C2022DD
:101C5C0043F02003236400230320236384F83C30E7
:101C6C0084F83D2070BDFFF7B1FD801B8542E0D2AA
:101C7C00ECE7012070BD000038B5044608B901201E
:101C8C0038BD90F83D3003F0FF021BB980F83C20C2
:101C9C00FFF76CFB2423226884F83D30136823F093
:101CAC000103136000F03AFD63682F4A934230D869
:101CBC002E4A9042E3D92E4A2168B0FBF2F24A60D8
:101CCC0001320A62284A0138934232D85B00B0FBD9
:101CDC00F3F0431CC3F30B03042B38BF0423CB6179
:101CEC00226AE369002013430B60E2682369134303
:101CFC008B60A26963691343CB600B6843F00103EB
:101D0C000B602023206484F83D30206384F83E006F
:101D1C0038BD184A9042B2D9154D4FF49672B0FBAB
:101D2C00F5F521686A434D604FF47A75B2FBF5F214
:101D3C00C6E7A26852B903EB4303B0FBF3F0431CB4
:101D4C00C3F30B036BB143F40043C8E719225343AD
:101D5C00B0FBF3F0431CC3F30B0313B143F4404348
:101D6C00BDE70123BBE700BFA08601007F841E00F6
:101D7C0040420F00FF083D002DE9FF4104461F467D
:101D8C000D469046FFF722FD94F83D300646202B79
:101D9C0004D00225284604B0BDE8F0810090192338
:101DAC0001225D492046FFF7BFFE0028F1D194F8CF
:101DBC003C30012BEDD0012384F83C3023681A68A9
:101DCC00D2075EBF1A6842F001021A601A6822F448
:101DDC0000621A60212284F83D20102284F83E20F3
:101DEC0000222264A2F580326785E262628DC4F81B
:101DFC0024802285E26A042A04D0012A02D012F53A
:101E0C00803F04D11A6842F480721A6002E0226B9F
:101E1C00122AF7D000960A9B00224FF0011120469F
:101E2C00FFF782FE28BB23692268B3F5804F12D1DD
:101E3C0005F0FE05156133460A9A38492046FFF72E
:101E4C0033FE0546A0B9236803905A6903929B6937
:101E5C000393039B50E0EB1103F0060343F0F003F4
:101E6C0013612F4933460A9A2046FFF71DFE48B1ED
:101E7C00236C236C042B4FF0000307D184F83C3007
:101E8C00012587E72368EDB21D61D4E784F83C3067
:101E9C0003257FE732460A992046FFF773FE40B1CF
:101EAC00236C042BF4D12268136843F40073136081
:101EBC00E6E7616A20684B1C63620B78228D036134
:101ECC00638D013B9BB263854769531E9BB27F07B1
:101EDC0023850AD54BB18B1C63624B78023A0361A4
:101EEC00638D2285013B9BB2638532460A9920465D
:101EFC00FFF79BFE0028D3D1238D002BCAD121687C
:101F0C000A6842F400720A60202284F83C3084F89B
:101F1C003D2084F83E303DE7020010000200010035
:101F2C00080001002DE9F043044689B098460D469F
:101F3C009146109FFFF74AFC94F83D300646202B43
:101F4C0004D00225284609B0BDE8F083009019237F
:101F5C000122A2492046FFF7E7FD0028F1D194F8B1
:101F6C003C30012BEDD0012384F83C3023681A68F7
:101F7C00D2075EBF1A6842F001021A601A6822F496
:101F8C0000621A60222284F83D20102284F83E2040
:101F9C0000222264A2F58032A4F82A80E262628DCB
:101FAC00C4F824902285E26A1968042A41F48061FD
:101FBC00196004D0012A02D012F5803F04D11A68AE
:101FCC0042F480721A6002E0226B112AF7D000965C
:101FDC003B4600224FF001112046FFF7A5FD0028DB
:101FEC004DD12369B3F5804F236839D145F00105F4
:101FFC00EDB21D6133463A4679492046FFF754FD50
:10200C00054600283AD1228D2368002A69D0012A7E
:10201C007AD11A6822F480621A6072B62368049529
:10202C005A6904929A690492049A1A6842F40072EA
:10203C001A6062B6DFF8B081238D002B5BD0032BC6
:10204C0000F2D480012B7BD1324639462046FFF773
:10205C00BFFD002800F09380236C202B16D13EE0AE
:10206C004FEAE51808F0060848F0F0021A615D49DD
:10207C0033463A462046FFF717FD48B1236C236CD4
:10208C00042B4FF0000328D184F83C30012559E78C
:10209C002368EDB21D613A46334651492046FFF79D
:1020AC0003FD02460028E9D12368079059692046B0
:1020BC000791996907910799196841F48071196022
:1020CC0000963B464FF00111FFF72EFD0028D6D1AC
:1020DC00226848F0F10313618CE784F83C30032547
:1020EC0030E703955A6903929A690392039A1A6826
:1020FC0042F400721A60202384F83D30002384F8E7
:10210C003E3084F83C301DE7022A1A680ED142F4A6
:10211C0000621A6072B6236805955A6905929A692D
:10212C000592059A1A6822F4806281E742F4806273
:10213C001A6006955A6906929B690693069B79E785
:10214C00022B00963B464FF000024146204624D11C
:10215C00FFF7EAFC0028C2D172B623681A6842F471
:10216C0000721A60626A1B69511C61621370238DC4
:10217C00013B2385638D013B9BB2638562B6636A29
:10218C005A1C6262226812691A70238D013B2385E6
:10219C00638D013B9BB263854EE7FFF7C5FC02469E
:1021AC0000289CD121680B6823F480630B6072B605
:1021BC00636A2046591C6162216809691970238D74
:1021CC000096013B2385638D4146013B9BB26385A1
:1021DC003B46FFF7A9FC0028BFD080E702001000A7
:1021EC0002000100080001000400010032463946DB
:1021FC002046FFF7EDFC00287FF42EAF636A5A1CD3
:10220C006262226812691A70238D2268013B238551
:10221C00638D013B9BB2638553695B077FF50CAF04
:10222C00636A591C6162AEE703682DE9F341DB0771
:10223C00054610D42B689F075ED42B68190700F154
:10224C0095802B685A0700F1BF80EA69002A40F09C
:10225C002D81002014E0904C636803F00C03042BD8
:10226C0007D0636803F00C03082B0CD16368DE0302
:10227C0009D523689C03DDD56B68002BDAD10120CE
:10228C0002B0BDE8F0816B68B3F5803F10D12368D4
:10229C0043F480332360FFF799FA064623689803CA
:1022AC00C8D4FFF793FA801B6428F7D90320E7E71B
:1022BC009BB9236823F480332360236823F48023A1
:1022CC002360FFF783FA064623689903B2D5FFF71C
:1022DC007DFA801B6428F7D9E8E7B3F5A02F2368B3
:1022EC0003D143F480232360D1E723F480332360AC
:1022FC00236823F48023CDE7674C636813F00C0F3D
:10230C0007D0636803F00C03082B10D16368DA0361
:10231C000DD423689B0702D52B69012BAFD1236801
:10232C006A6923F0F80343EAC203236085E72A694C
:10233C005A4B6AB101221A60FFF748FA0646236825
:10234C009F07ECD4FFF742FA801B0228F7D9ADE7C0
:10235C001A60FFF73BFA0646236898077FF56DAFC6
:10236C00FFF734FA801B0228F6D99FE7AA694A4C7A
:10237C004B4BDAB101221A60FFF728FA0646636A62
:10238C009B070DD54FF4FA52464B1B68B3FBF2F387
:10239C00019300BF019B5A1E0192002BF9D150E70B
:1023AC00FFF714FA801B0228E9D97FE71A60FFF7C0
:1023BC000DFA0646636A9F077FF543AFFFF706FAEF
:1023CC00801B0228F6D971E7334CE369D80024D47A
:1023DC000127E36943F08053E361E36903F0805321
:1023EC000093009B304E3368D90518D5EB68012B50
:1023FC0026D1236A43F001032362FFF7E7F941F288
:10240C0088368046236A9B073FD5002F3FF41DAFCB
:10241C00E36923F08053E36117E70027E2E73368B1
:10242C0043F480733360FFF7D1F980463368DA05E3
:10243C00DCD4FFF7CBF9A0EB08006428F6D935E71C
:10244C00ABB9236A41F2883823F001032362236A73
:10245C0023F004032362FFF7B9F90646236A9807B1
:10246C00D3D5FFF7B3F9801B4045F7D91EE7052BF1
:10247C00236A03D143F004032362BAE723F0010378
:10248C002362236A23F00403B6E7FFF79FF9A0EB5E
:10249C000800B042B6D909E70010024000004242E1
:1024AC00800442420000002000700040224C63680F
:1024BC0003F00C03082B3FF4E2AE00231F4E022A5C
:1024CC0033602BD1FFF782F90746236899011FD49B
:1024DC002B6AB3F5803F05D16268A96822F40032FB
:1024EC000A436260696A62680B4322F474121343F4
:1024FC00636001233360FFF769F9054623689A018D
:10250C003FF5A7AEFFF762F9401B0228F6D9CDE6DE
:10251C00FFF75CF9C01B0228D7D9C7E6FFF756F9BD
:10252C00054623689B017FF594AEFFF74FF9401BDE
:10253C000228F6D9BAE600BF001002406000424201
:10254C0030B5194B87B002AC03F110052246186860
:10255C005968083303C2AB421446F7D101238DF8F6
:10256C000430022311498DF805304B6803F00C023E
:10257C00082A17D1C3F3834206A80244DB0312F8DE
:10258C00102C0CD54B680A48C3F34043504306AAA1
:10259C00134413F8143CB0FBF3F007B030BD0548FE
:1025AC005043FAE70248F8E79C3A00080010024052
:1025BC0000127A0000093D00544A2DE9F0411368DD
:1025CC00054603F007038B420E462AD329688C0775
:1025DC0034D4CA0747D44D4A136803F007039E420C
:1025EC00C0F082802A684A4C12F0040F40F08780B9
:1025FC00130706D563682A6923F4605343EAC203C0
:10260C006360FFF79DFF6368424AC3F30313D35C17
:10261C00D840414B18600020FFF796F80020BDE829
:10262C00F081136823F007030B431360136803F066
:10263C0007039942CAD00120BDE8F081344B11F058
:10264C00040F1EBF5A6842F4E0625A60080742BF8A
:10265C005A6842F460525A605A68A86822F0F00234
:10266C0002435A60B5E76A68294C012A23681CD1D9
:10267C0013F4003FDFD0636841F2883823F0030382
:10268C0013436360FFF7A2F86B680746012B14D164
:10269C00636803F00C03042B9DD0FFF797F8C01B65
:1026AC004045F5D90320BDE8F081022A02D113F090
:1026BC00007FDFE713F0020FDCE7022B0FD163681A
:1026CC0003F00C03082B86D0FFF780F8C01B4045A5
:1026DC00F5D9E7E7FFF77AF8C01B4045E2D8636805
:1026EC0013F00C0FF6D176E7136823F0070333438E
:1026FC001360136803F007039E429CD172E7636872
:10270C00E96823F4E0630B43636071E70020024047
:10271C0000100240D33A000800000020044B054A88
:10272C005B68C3F30223D35C034A1068D84070473C
:10273C0000100240E33A000800000020044B054A58
:10274C005B68C3F3C223D35C034A1068D84070475C
:10275C0000100240E33A0008000000202DE9F04789
:10276C000568C2682B69016923F4405313432B613C
:10277C008368EA680B43416922F4B05222F00C02E0
:10278C000B431343EB606B69826923F4407313436F
:10279C006B61404B81469D424FF0190446D1FFF7C7
:1027AC00CDFF04FB00F3D9F804604FF06408B600C9
:1027BC00B3FBF6F3B3FBF8F31E01FFF7BFFF604367
:1027CC00D9F804309B00B0FBF3F7FFF7B7FF604379
:1027DC00D9F804309B00B0FBF3F3B3FBF8F308FB20
:1027EC0013731B013233B3FBF8F303F0F007FFF75D
:1027FC00A5FF6043D9F804209200B0FBF2FAFFF772
:10280C009DFF6043D9F804309B00B0FBF3F3B3FB9E
:10281C00F8F308FB13A31B013233B3FBF8F303F0FB
:10282C000F033B433344AB60BDE8F087FFF776FF03
:10283C0004FB00F3D9F804604FF06408B600B3FB56
:10284C00F6F3B3FBF8F31E01FFF768FF6043D9F80A
:10285C0004309B00B0FBF3F7FFF760FF6043D9F83F
:10286C0004309B00B0FBF3F3B3FBF8F308FB1373DA
:10287C001B013233B3FBF8F303F0F007FFF74EFF05
:10288C006043D9F804209200B0FBF2FAFFF746FF40
:10289C00B7E700BF0038014010B5044640B390F8CC
:1028AC00393003F0FF021BB980F83820FEF710FF17
:1028BC002423226884F83930D368204623F400534B
:1028CC00D360FFF74BFF236800201A6922F4904273
:1028DC001A615A6922F02A025A61DA6842F40052EB
:1028EC00DA602023E06384F8393084F83A3010BD84
:1028FC00012010BD002103E00B4B5B584350043109
:10290C000A480B4B42189A42F6D30A4A02E00023BB
:10291C0042F8043B084B9A42F9D3FEF795FE00F0BF
:10292C000FF8FEF7A3FD7047903B00080000002055
:10293C007400002074000020F8010020FEE7000065
:10294C0070B500250C4E0D4CA41BA410A54209D14A
:10295C0001F092F800250A4E0A4CA41BA410A542C3
:10296C0005D170BD56F8253098470135EEE756F87D
:10297C00253098470135F2E7883B0008883B000872
:10298C00883B00088C3B000803460244934200D16C
:10299C00704703F8011BF9E70FB40A4B13B51C6819
:1029AC0024B1A36913B9204600F024FA05AB049AAC
:1029BC00A1682046019300F0DDFB02B0BDE8104099
:1029CC0004B070470C00002070B50E46054618B1D7
:1029DC0083690BB900F00EFAAB69AC6813B92846E1
:1029EC0000F008FA234B9C4217D16C68A3891B0793
:1029FC001DD52369DBB1013EA36816F8011F013B0D
:102A0C00A360E9B9002B2EDA22460A21284600F0F1
:102A1C003FF8013011D00A2070BD174B9C4201D1F8
:102A2C00AC68E3E7154B9C4208BFEC68DEE7214637
:102A3C00284600F07FF80028DDD04FF0FF3070BD45
:102A4C00002B04DAA269934206DB0A2904D023681E
:102A5C005A1C22601970CFE72246284600F018F85D
:102A6C000130C9D1E9E70A2023685A1C226018708A
:102A7C0070BD00BF0C3B00082C3B0008EC3A000872
:102A8C00024B01461868FFF79FBF00BF0C000020E7
:102A9C00F8B50E461446054618B183690BB900F01B
:102AAC00A9F9214B9C422AD16C68A369A360A38924
:102ABC001A072ED5236963B323692068F6B2C01AAE
:102ACC0063693746984204DB2146284600F028F912
:102ADC0028BBA3680130013BA36023685A1C226009
:102AEC001E706369984204D0A389DB0719D50A2E9E
:102AFC0017D12146284600F013F990B10FE00B4B8B
:102B0C009C4201D1AC68D0E7094B9C4208BFEC68F1
:102B1C00CBE72146284600F00DF80028CCD04FF02A
:102B2C00FF373846F8BD00BF0C3B00082C3B0008B3
:102B3C00EC3A0008324B70B51D6806460C4625B1C0
:102B4C00AB6913B9284600F055F92E4B9C420FD1B6
:102B5C006C68B4F90C309AB215072CD4D00611D489
:102B6C000922326043F04003A3814FF0FF3070BD67
:102B7C00254B9C4201D1AC68EBE7244B9C4208BF2F
:102B8C00EC68E6E7510712D5616B41B104F14403DF
:102B9C00994202D0304600F01BFA00236363A389EC
:102BAC0023F02403A3810023636023692360A3899A
:102BBC0043F00803A38123694BB9A38903F4207361
:102BCC00B3F5007F03D02146304600F0C1F9A2894D
:102BDC0012F001030CD00023A36063695B42A36174
:102BEC00236953B9B4F90C3013F08000BAD170BD1D
:102BFC00920758BF6369A360F2E70020F7E700BFB4
:102C0C000C0000200C3B00082C3B0008EC3A0008A0
:102C1C008A892DE9F041054610070C465AD44B68B9
:102C2C00002B05DC0B6C002B02DC0020BDE8F081D6
:102C3C00E66A002EF9D0002312F480522F682B6024
:102C4C0033D0606DA3895A0705D56368C01A636BCE
:102C5C000BB1236CC01A00230246E66A216A28468F
:102C6C00B047431CA38906D129681D294BD82B4A90
:102C7C00CA40D60747D5002262602269D904226077
:102C8C0004D5421C01D12B6803B96065616B2F60C0
:102C9C000029CAD004F14403994202D0284600F01E
:102CAC0097F900206063BDE8F081216A0123284672
:102CBC00B047411CC6D12B68002BC3D01D2B01D0B3
:102CCC00162B01D12F60B0E7A38943F04003A381F9
:102CDC00BDE8F0810F69002FA7D0930718BF002320
:102CEC000E6808BF4B69A6EB07080F608B60B8F144
:102CFC00000F9ADD43463A46216A2846A66AB04739
:102D0C00002807DCA38943F04003A3814FF0FF3078
:102D1C00BDE8F0810744A8EB0008E8E7010040207B
:102D2C0038B50B6905460C46DBB118B183690BB994
:102D3C0000F060F80C4B9C4209D16C68B4F90C3073
:102D4C007BB121462846BDE83840FFF761BF074BF1
:102D5C009C4201D1AC68F1E7054B9C4208BFEC6882
:102D6C00ECE7002038BD00BF0C3B00082C3B0008F2
:102D7C00EC3A0008014900F0A9B800BF2D2D00085D
:102D8C00002310B504460360436083608181436671
:102D9C00C281036143618361194608225C30FFF7ED
:102DAC00F3FD054B24626362044BA362044BE362A4
:102DBC00044B236310BD00BFFD3600081F3700080D
:102DCC00573700087B37000870B568254A1E5543F5
:102DDC000E4605F1740100F047F9044640B100219C
:102DEC0080E842000C30A06005F16802FFF7CCFDD2
:102DFC00204670BD836910B5044633BB8364C3643D
:102E0C000365124B124A1B688262984204BF01236D
:102E1C00836100F01FF86060204600F01BF8A06092
:102E2C00204600F017F80022E06004216068FFF7EC
:102E3C00A7FF01220921A068FFF7A2FF022212219D
:102E4C00E068FFF79DFF0123A36110BD4C3B000818
:102E5C00812D0008F8B51C4B07461E68B36913B9E1
:102E6C003046FFF7C7FF4836B4687368013B03D59B
:102E7C00336833B13668F7E7B4F90C506DB1683488
:102E8C00F4E704213846FFF79FFF30600028F1D1AA
:102E9C000C2304463B602046F8BD4FF6FF73E381DC
:102EAC0001236566A3812560A56065602561656168
:102EBC00A5610822294604F15C00FFF765FD6563F6
:102ECC00A563A564E564E6E74C3B00082DE9F843EF
:102EDC0080468946002600F1480414B93046BDE806
:102EEC00F883A5686768013F01D52468F5E7AB89CD
:102EFC00012B07D9B5F90E30013303D029464046D2
:102F0C00C84706436835EEE770B50E46B1F90E10AA
:102F1C0090B0002914461D4607DA00232B60B389B4
:102F2C001A0610D44FF480630EE001AA00F046FCA0
:102F3C000028F2DB029A02F47042A2F500535A42C6
:102F4C005A412A60EEE740230020236010B070BD88
:102F5C008B8973B59D0706460C4607D504F14703CC
:102F6C00236023610123636102B070BD01AB6A462B
:102F7C00FFF7CAFF00990546304600F075F848B9CE
:102F8C00B4F90C309A05EFD423F0030343F0020399
:102F9C00A381E3E70D4BB362A389206043F0800368
:102FAC00A381009B20616361019B5BB1B4F90E109E
:102FBC00304600F015FC28B1A38923F0030343F03D
:102FCC000103A381A3891D43A581CDE7812D0008B1
:102FDC0038B50546002943D051F8043C0C1F002B92
:102FEC00B8BFE41800F02CFC1E4A1368104633B925
:102FFC00636014602846BDE8384000F022BCA34250
:10300C000BD921686218934201BF1A685B68521889
:10301C00226063600460EDE713465A680AB1A2426D
:10302C00FAD919685818A0420BD1206801445818D5
:10303C0082421960DED110685268014419605A60EE
:10304C00D8E702D90C232B60D4E7206821188A42D8
:10305C0001BF116852680918216062605C60C9E7A1
:10306C0038BD00BF9400002070B5CD1C25F00305C1
:10307C0008350C2D38BF0C25002D064601DBA94266
:10308C0003D90C233360002070BD00F0D9FB234A18
:10309C001468214691B9224C23681BB9304600F0C4
:1030AC0017FB20602946304600F012FB431C26D14A
:1030BC000C233046336000F0C4FBE4E70B685B1B69
:1030CC001AD40B2B0FD90B60CC18CD50304600F016
:1030DC00B8FB04F10B00231D20F00700C31A1BD012
:1030EC005A42E25070BD8C420BBF63684B68136050
:1030FC00636018BF0C46E9E70C464968CAE7C41C74
:10310C0024F00304A04205D0211A304600F0E0FA66
:10311C000130CDD02560D9E770BD00BF94000020F0
:10312C0098000020936810B4013B002B936008DAE0
:10313C009469A34202DBCBB20A2B02D110BCFFF77D
:10314C00A7BC1368581C10601970C8B210BC70472B
:10315C00F8B506460F461446D518AC4201D10020EE
:10316C0007E03A4614F8011B3046FFF7DBFF431C1F
:10317C00F3D1F8BD2DE9F04F9DB00C4617460393E3
:10318C00064618B183690BB9FFF734FE7C4B9C42A1
:10319C0057D17468A38918075DD52369002B5AD0C1
:1031AC000023099320238DF8293030234FF0010B95
:1031BC008DF82A30B846454615F8013B002B55D101
:1031CC00B8EB070A0BD053463A4621463046FFF778
:1031DC00BFFF013000F0C480099B5344099398F859
:1031EC000030002B00F0BC8000234FF0FF32049322
:1031FC000793059206938DF853301A93052229787C
:10320C00604800F00FFB05F10108049B002831D148
:10321C00D90644BF20228DF853201A0744BF2B2215
:10322C008DF853202A782A2A2CD000210A20079ABC
:10323C00A84698F800300135303B092B6DD971B395
:10324C0026E0514B9C4201D1B468A3E74F4B9C4202
:10325C0008BFF4689EE721463046FFF76BFC002858
:10326C009ED04FF0FF301DB0BDE8F08F252BA7D0BE
:10327C00A846A0E7434A4546801A0BFA00F01843CB
:10328C000490BBE7039A111D12680391002A01DB1D
:10329C00079204E0524243F002030792049398F819
:1032AC0000302E2B10D198F8013008F101012A2B97
:1032BC0037D1039B08F102081A1D1B680392002BDF
:1032CC00B8BF4FF0FF330593314D032298F800102F
:1032DC00284600F0A7FA40B14023401B03FA00F047
:1032EC00049B08F101080343049398F8001006228C
:1032FC00284808F101078DF8281000F093FA0028EF
:10330C0034D0254B03BB039B073323F0070308334F
:10331C000393099B4B4409934CE700FB02320121B8
:10332C0086E700230A2518460593884698F800205E
:10333C000131303A092A03D9002BC5D00590C3E7D7
:10334C0005FB00200123F0E703AB00932246134B4F
:10335C0004A93046AFF30080B0F1FF3F8146D8D1CD
:10336C00A3895B063FF57DAF09987CE703AB00931F
:10337C0022460A4B04A9304600F08AF8ECE700BF5D
:10338C000C3B0008503B00082C3B0008EC3A0008B2
:10339C00563B00085A3B0008000000005D31000855
:1033AC002DE9F04791461F468A680B690646934201
:1033BC00B8BF1346C9F8003091F843200C46DDF82D
:1033CC00208012B10133C9F800302368990642BF3E
:1033DC00D9F800300233C9F80030256815F006051D
:1033EC0007D104F1190AE368D9F800209B1A9D4211
:1033FC002ADB94F843302268003318BF012392066D
:10340C002FD404F1430239463046C047013022D054
:10341C002368E56803F00603042B18BF0025D9F8D0
:10342C0000204FF0000908BFAD1AA368226908BF3D
:10343C0025EAE5759342C4BF9B1AED181A344D4525
:10344C001BD10020BDE8F087012352463946304697
:10345C00C047013003D14FF0FF30BDE8F087013594
:10346C00C1E73020E11881F843005A1C94F845104C
:10347C002244023382F84310C3E701232246394623
:10348C003046C0470130E6D009F10109D7E700000A
:10349C002DE9F04317460A7E85B06E2A98460646FB
:1034AC000C460C9B01F1430E00F0BC801AD8632A29
:1034BC002ED00AD8002A00F0C880582A00F08A8042
:1034CC0004F1420584F842202AE0642A01D0692ADA
:1034DC00F6D121681A6811F0800F23D0111D1960E4
:1034EC00136827E0732A00F0B48008D86F2A2AD01A
:1034FC00702AE5D10A6842F020020A6003E0752ABE
:10350C0021D0782ADCD178226F4984F8452064E0F8
:10351C001A6801F14205111D1960136884F84230D4
:10352C000123A3E011F0400F02F104011960D7D080
:10353C00B2F90030002B03DA2D225B4284F84320D1
:10354C0062490A2217E02068196810F0800F03D036
:10355C00081D18600B6806E010F0400F01F1040024
:10356C001860F7D00B886F2A14BF0A22082257491B
:10357C00002084F843006568002DA560C0F29C8093
:10358C00206820F004002060002B3FD1002D40F07B
:10359C0095807546082A0BD12368DA0708D523696C
:1035AC0062689A42DEBF302305F8013C05F1FF3515
:1035BC00AEEB05032361CDF800803B4603AA214600
:1035CC003046FFF7EDFE013055D14FF0FF3005B01E
:1035DC00BDE8F08381F845203C492268186812F058
:1035EC00800F00F104051D6001D0036802E0550650
:1035FC00FBD50388D00744BF42F0200222601BB9E0
:10360C00226822F0200222601022B1E77546B3FB3B
:10361C00F2F002FB1033CB5C05F8013D03460028A9
:10362C00F5D1B7E708681A6810F0800F496904D023
:10363C00101D18601368196007E010F0400F02F1BC
:10364C00040018601368F6D01980002375462361B6
:10365C00B1E71A68111D19601568002162682846C7
:10366C0000F0E0F808B1401B606063682361002340
:10367C0084F843309FE723692A4639463046C047D1
:10368C000130A2D023689B0707D5002504F1190946
:10369C00E368039A9B1A9D4205DBE068039B984202
:1036AC00B8BF184693E701234A4639463046C0470F
:1036BC0001308AD00135EBE7002BA7D10B7804F150
:1036CC00420584F8423065E7723B0008613B000814
:1036DC0038B50023054C054608462360FDF77EFFF0
:1036EC00431C02D1236803B12B6038BDF4010020C8
:1036FC0010B50C46B1F90E1000F0A4F80028ABBFC1
:10370C00636DA3891B1823F48053ACBF6365A3813D
:10371C0010BD2DE9F0411F468B890546DB050C4693
:10372C00164605D502230022B1F90E1000F068F8F8
:10373C00A389324623F48053A381B4F90E103B467F
:10374C002846BDE8F04100F017B810B50C46B1F9A9
:10375C000E1000F055F8431CA38915BF606523F4C7
:10376C00805343F48053A38118BFA38110BDB1F9DA
:10377C000E1000F013B8000038B505460846114687
:10378C000022054C22601A46FDF70EFF431C02D1A5
:10379C00236803B12B6038BDF401002038B5002339
:1037AC00054C054608462360FDF726FF431C02D155
:1037BC00236803B12B6038BDF401002038B5002319
:1037CC00064C0546084611462360FDF71DFF431CB9
:1037DC0002D1236803B12B6038BD00BFF401002077
:1037EC0038B50023054C054608462360FDF714FF49
:1037FC00431C02D1236803B12B6038BDF4010020B7
:10380C0038B50546084611460022054C22601A467A
:10381C00FDF70AFF431C02D1236803B12B6038BDAE
:10382C00F401002010B5C9B202449042034601D104
:10383C00002010BD1C7801308C42F6D1184610BD0A
:10384C007047704738B50546084611460022054CAE
:10385C0022601A46FDF7F0FE431C02D1236803B127
:10386C002B6038BDF40100202DE9F04F8BB00446DD
:10387C000D4600F04DF8244B804693F900A0894684
:10388C00BAF1FF3F2BD022462B4620462946FDF7A6
:10389C00A9F8834618BB0026002732463B46204633
:1038AC002946FDF777F8D0B101230093174BCDF8DB
:1038BC0020B00193CDE90445CDE90245BAF1000FE2
:1038CC0012D1CDE90667684600F0CEF8B8B1089B76
:1038DC001BB100F0CBF8089B0360DDE9068940467C
:1038EC0049460BB0BDE8F08F32463B463046394670
:1038FC00FCF708FFBAF1020FCDE90601E3D100F0A5
:10390C00B5F821230360E2E770000020833B000838
:10391C002DE9F041DFF84CE106463EEA010E0D467A
:10392C0007460A460C4603460FD102460B46FCF7E7
:10393C00BFFD02460B4630462946FCF707FC0646FF
:10394C000D4630462946BDE8F08100290EDC21F0F9
:10395C00004E5EEA0707F4D041B102460B46FCF775
:10396C00F3FB02460B46FCF7CDFEE8E712150CD133
:10397C00002C6ED00021E6026FD5481E121AC1F140
:10398C00200023FA00F004438B40A2F2FF32D5074B
:10399C004FF00005C4F3130444F4801442BF6400D8
:1039AC0004EBD3745B0004EBD3715010214416224A
:1039BC002C464FF400165B00A7198F42DEBFC91BC3
:1039CC00BC19AD194900013A01EBD3714FEA560607
:1039DC004FEA4303F0D14FF0200E94464FF00046CF
:1039EC00A14206EB0C0702DC12D19F4210D8002F2B
:1039FC0007EB060C34DABCF1000F31DB04F10108E3
:103A0C00091B44469F4288BF01F1FF31DB1B324446
:103A1C0001EBD377BEF1010E39444FEA43034FEA71
:103A2C005606DDD10B4306D0541C0BBF7246013237
:103A3C00013522F001026B105208E90703F17F53A4
:103A4C0003F5001348BF42F0004203EB0055164645
:103A5C0077E7DC0A153A5B058AE7640001318AE7EF
:103A6C00A046CDE70000F07F00207047014B18689E
:103A7C00704700BF0C000020F8B500BFF8BC08BCB4
:103A8C009E467047F8B500BFF8BC08BC9E46704710
:103A9C0002030405060708090A0B0C0D0E0F101083
:103AAC00436F6E736F6C6520697320776F726B69EF
:103ABC006E672E2E2E0A004C6566743A200020523A
:103ACC00696768743A2000000000000000000001E3
:103ADC0002030406070809000000000102030400A9
:103AEC0000000000000000000000000000000000CA
:103AFC0000000000000000000000000000000000BA
:103B0C0000000000000000000000000000000000A9
:103B1C000000000000000000000000000000000099
:103B2C000000000000000000000000000000000089
:103B3C000000000000000000000000000000000079
:103B4C0010000020232D302B2000686C4C00656683
:103B5C0067454647003031323334353637383941D2
:103B6C0042434445460030313233343536373839E8
:0C3B7C006162636465660073717274001E
:043B880031010008FF
:043B8C000D0100081F
:103B900000A24A04010000001000000010000020F4
:103BA000000000000C3B00082C3B0008EC3A000829
:103BB0000000000000000000000000000000000005
:103BC00000000000000000000000000000000000F5
:103BD00000000000000000000000000000000000E5
:103BE00000000000000000000000000000000000D5
:103BF00000000000000000000000000000000000C5
:043C000001000000BF
:0400000508002901C5
:00000001FF
